:020000040800F2
:1000000020090020ED01000859370008D33200080C
:100010002D370008D90A0008C1460008000000007A
:10002000000000000000000000000000093A000885
:10003000DB0A000800000000E9370008833C0008E4
:10004000070200080702000807020008070200086C
:10005000070200080702000807020008070200085C
:10006000070200080702000807020008070200084C
:10007000070200080702000807020008070200083C
:10008000070200080000000007020008070200083D
:10009000070200080702000807020008070200081C
:1000A000070200080702000807020008070200080C
:1000B00007020008070200080702000807020008FC
:1000C00007020008070200080702000807020008EC
:1000D00007020008070200080702000807020008DC
:1000E00007020008070200080702000807020008CC
:1000F00007020008070200080702000800000000CD
:1001000000000000070200080000000007020008CD
:1001100007020008000000000702000807020008AC
:10012000070200080702000807020008070200088B
:10013000070200080000000000000000070200089D
:10014000070200080702000800000000000000008D
:10015000000000000000000000000000000000009F
:10016000000000000000000000000000070200087E
:10017000070200080000000000000000000000006E
:10018000000000000702000800000000000000005E
:10019000000000000000000000000000000000005F
:1001A000000000000000000007020008070200082D
:1001B000070200080702000807020008000000000C
:1001C000000000000702000800000000000000001E
:1001D0000702000807020008DFF80CD000F0E6FB79
:1001E000004800472D6A0008200900200648804783
:1001F00006480047FEE7FEE7FEE7FEE7FEE7FEE70C
:10020000FEE7FEE7FEE7FEE7F13C0008D901000843
:100210002DE9F05F0546002092469B46884606463B
:10022000814640241BE0284641464746224600F0CE
:100230002CFA53465A46C01A914110D3114618461B
:10024000224600F013FA2D1A67EB01084F462246AA
:100250000120002100F00AFA17EB00094E41201E90
:10026000A4F10104DFDC484631462A464346BDE896
:10027000F09FD2B201E000F8012B491EFBD270477B
:100280000022F6E710B513460A4604461946FFF762
:10029000F0FF204610BD2DE9FE4F804681EA0300A5
:1002A000C00F0C46009021F0004123F00045B8EB50
:1002B0000200A94105D24046214690461C460B4605
:1002C000024623F00040104347D0270DC7F30A0031
:1002D000C3F30A510290401A019040286BDAC3F32D
:1002E000130040F4801B0098924620B10023D2EB0B
:1002F000030A63EB0B0B01985946C0F140025046CC
:1003000000F0B4F906460D4650465946019A00F0F1
:10031000CCF910EB08006141002487EA115284EA0D
:10032000E7731A4340D0009A62B3019A012A4FEA58
:10033000075215DC001B61EB02014FF0004202EA9C
:100340000752CDE90042001C41F5801132462B4690
:1003500000F003FA03B0BDE8F08F40462146F9E70C
:10036000001B61EB0201001C41F5801300185B418A
:100370002018A2F5001747EB030140EAD570B61923
:100380006D4111E06D084FEA360645EAC0754FEA47
:100390000752001B61EB0201001C41F58011490866
:1003A0004FEA30000019514132462B4603B0BDE8F8
:1003B000F04F00F0C3B90098012240000023D0EBB9
:1003C000020263EBE073009821464FEAE074B8EB59
:1003D000000061EB0401E9E783F000435BE781F093
:1003E000004158E72DE9FE4F81EA030404F0004480
:1003F00021F0004100944FF0000B23F0004350EA3D
:1004000001045ED052EA03045BD0C3F30A54C1F383
:100410000A552C44A4F2F3340194A0FB0254C1F316
:10042000130141F48011C3F3130343F4801301FB60
:10043000024400FB034E840A970A44EA815447EAC7
:100440008357A4FB076802958D0A05FB07854FEAD1
:10045000932C04FB0C542705029D4FEA065847EAEB
:100460001637B5EB08056EEB070C870E920E47EAC0
:10047000811742EA8312A7FB0201B6EB0B0164EB82
:1004800000042B0D43EA0C335E1844EB1C50DA4693
:100490005146E7FB0201C5F313044FEA0B3343EA6D
:1004A00014534FEA0432019C43EA0603A4F10C04FE
:1004B0000294009CCDE900B400F04FF903B0BDE810
:1004C000F08F00200146F9E72DE9F04D81EA0304A1
:1004D00004F0004B21F0004514464FF0000A23F0D1
:1004E000004150EA050220D054EA01021DD0C5F3B4
:1004F0000A570246C5F31303C1F31300C1F30A56AA
:1005000040F4801543F48013A7EB0608101BD64671
:1005100008F2FD3873EB050002D308F1010801E091
:1005200092185B41B8F1000F03DA00200146BDE8E4
:10053000F08D00204FF48011064684460EE0171B14
:1005400073EB050705D3121B63EB050306434CEA67
:10055000010C49084FEA300092185B4150EA01074C
:10056000EDD152EA030012D082EA040083EA0501C9
:10057000084305D0101BAB4106D20122002306E040
:1005800000224FF0004302E06FF0010253101AEB1B
:1005900006004CEB085110EB0A0041EB0B01BDE8E3
:1005A000F04D00F0CBB80EB5C10F80EAE070084402
:1005B000CA07002140F233438DE80E000A460B467D
:1005C00000F0CBF803B000BD0EB540F2334102910C
:1005D0000021CDE900110A460B4600F0BEF803B039
:1005E00000BD00F0004230F000400AD0C10D01F51E
:1005F0006071C0F3160042EA0151C208400711437E
:10060000704700200146704701F0004330B421F0EC
:10061000004150EA010206D00A0DA2F56072C1F352
:100620001301002A02DC30BC00207047440F44EA6A
:10063000C104C100E01830BC00EBC25000F047B864
:1006400030B50B46014600202022012409E021FAA2
:1006500002F59D4205D303FA02F5491B04FA02F59F
:100660002844151EA2F10102F1DC30BD202A04DB72
:10067000203A00FA02F1002070479140C2F12003B5
:1006800020FA03F3194390407047202A04DB203AF4
:1006900021FA02F00021704721FA02F3D040C2F1A2
:1006A00020029140084319467047202A06DBCB17E9
:1006B000203A41FA02F043EAE07306E041FA02F31D
:1006C000D040C2F1200291400843194670470029EA
:1006D000A8BF7047401C490008BF20F001007047C8
:1006E00010B4B0FA80FC00FA0CF050EA010404BF28
:1006F00010BC704749B1CCF1200421FA04F411FA7E
:100700000CF118BF012121430843A3EB0C01CB1DC1
:100710004FEA00614FEA102042BF002010BC704732
:1007200000EBC35010440029A4BF10BC7047401C0C
:10073000490008BF20F0010010BC704710B5141E1E
:1007400073F1000408DA401C41F1000192185B418A
:100750001A4301D120F0010010BD2DE9F04D924661
:100760009B4611B1B1FA81F202E0B0FA80F2203278
:100770009046FFF77BFF04460F4640EA0A0041EA35
:100780000B0153465A46084313D0114653EA010061
:1007900019D0C8F140025046FFF777FF05460E46D4
:1007A000504659464246FFF761FF084305D00120F5
:1007B00004E020463946BDE8F08D0020054346EAB6
:1007C000E0762C4337430A986305E40AA0EB08005F
:1007D0000022FD0A44EA47540A3002D500200146AF
:1007E000E9E7010510196941DDE90845001969418A
:1007F000BDE8F04DA2E770B521F0004303430CD0F3
:10080000C1F30A550024D5EB040564EB0403D617A5
:10081000AD1AB34102DB0020014670BD201841EB48
:10082000025170BD2DE9F04D00231A461B1A8A4172
:1008300003DB00200146BDE8F08DC1F30A52C1F38D
:10084000130141F480154FF0000BD10702D10018BD
:100850006D41521E0027044640F2FF11384601EB5D
:10086000620A3E468046024600204FF48011FFF7A0
:100870000CFFC2197141BB1846EB0100B4EB030C2D
:1008800075EB000C04D3E41A65EB000517460E4621
:10089000241908F101006D4180463428E3DDF9197F
:1008A00046EB0600091BA84103D24FF0FF32134666
:1008B00001E0002213461BEB070046EB0A51BDE89E
:1008C000F04DFFF73BBF2DE9FE4FC3F30A5701F090
:1008D00000450024C1F30A56C3F31303C1F3130107
:1008E00043F4801312EB020AA64641F480110095EE
:1008F00043EB030CA7F1010B16E0B0EB0A0061EB30
:100900000C01071E71F1000707DA4FF00008D0EB69
:10091000080085F0004568EB0101171A73EB010729
:10092000EBD3761E001849415E45F6DA50EA010223
:1009300009D0CDE900E5002213460296FFF70DFF2E
:1009400003B0BDE8F08F20460099F9E7C1F30A52E1
:10095000C1F3130140F2FF3341F480119A4202DAED
:1009600000200146704740F233439A42A2F23342DC
:1009700002DC5242FFF789BEFFF778BE30B5041E95
:1009800071F1000404DB4FF00044404264EB0101CC
:10099000141E73F1000405DB1C464FF00043524265
:1009A00063EB0403994208BF904230BD064C074DEB
:1009B00006E0E06840F0010394E80700984710342F
:1009C000AC42F6D3FFF70CFC406E0008606E0008E6
:1009D00070B5C1F30A5201F000450024C1F31301C0
:1009E00040F2FF3341F480119A4201DA002070BDD9
:1009F00040F233439A42A2F2334203DC5242FFF701
:100A000044FE00E090402C43F1D0404270BD000015
:100A100010B504465021FFF733FC9FED1A0A84ED10
:100A2000090A9FED190A84ED0A0A9FED180A84ED60
:100A3000000A9FED170A84ED010A9FED160A84ED66
:100A4000020A9FED150A84ED030A9FED140A84ED56
:100A5000040AB0EE000A84ED110A9FED110A84ED3C
:100A6000120A9FED100A84ED0D0AB6EE000A84ED1D
:100A70000E0A9FED0D0A84ED0F0A9FED0C0A84ED1E
:100A8000100A10BDD7A3703F6F12833A00000442D2
:100A90000000C64200304C4500610C479A397A4448
:100AA00000000000CDCC4C3FCDCC2C41CDCC4C3EF9
:100AB00010B540F48042104602F04FFE012801D1EB
:100AC00042F40042104602F0B5FE4FF4804002F0BE
:100AD000B1FEC0F30D0010BDFEE77047D0ED131A54
:100AE00090ED081AD0ED042AD0ED060A71EEC11A75
:100AF00030EE600A81EEA22A80ED052A90ED073AD9
:100B0000D0ED011A01EE803AD0ED0A1A41EE830AC7
:100B1000C0ED060AD0ED020A00EE801A02EE821A3B
:100B200061EE210AC0ED070AD0ED030A20EE800A2B
:100B300020EE210A80ED080A704772B6FEE700F049
:100B40007FBD00F079B87047044B10B51C68606336
:100B5000186881631868C26310BD00006402002039
:100B6000274826499FED2B0AC0F864112549C0F893
:100B70006C112549C0F868112449C0F86011244956
:100B8000C0F8701180ED210A0121BFEE000A016258
:100B900080ED2E0A9FED200AF0EE000A80ED300A6B
:100BA0009FED1E0A80ED310A9FED1D0A80ED260A99
:100BB000B2EE0C0A80ED2F0A9FED1A0A80ED380A7A
:100BC0009FED190A80ED390A9FED180A80ED3C0A65
:100BD000C0ED400ADFED160A80ED410AC0ED480A7B
:100BE00080ED490ADFED130A80ED4C0AC0ED500A92
:100BF00080ED510A80ED540A704700003F0B000859
:100C0000A8030020430B0008810E0008490B0008D0
:100C1000470B00083B72043F9A99993ECDCCCC3DDE
:100C20000AD7233C666626409A9999400000000046
:100C3000CDCCCC3E00001A4310B543F6FE70FFF752
:100C400037FF00EE100A9FED0C1AF8EE400A80EE16
:100C5000810AF0EE000A20EE200A10EE100AFFF7DB
:100C6000C0FC9FED061B53EC112BFFF7BBFBFFF7FE
:100C7000CBFC00EE100A10BD00FC7F464AD8124D96
:100C8000FB21094090ED2E0AD0ED1E0A90ED2F1A9F
:100C900060EE200A90ED210A10EE810A02F054BBAA
:100CA000B0EE401A00B5B5EEC01A3648F1EE10FAB3
:100CB0000CDDF5EEC00AF1EE10FA07DD80EE810AD8
:100CC00010EE101A814201DA012000BDF5EEC00AD3
:100CD000F1EE10FA0BDDB0EE410A05F053FFC0EE65
:100CE000801A11EE901A814201DD022000BDB5EE9E
:100CF000C01AF1EE601AF1EE10FA0CD2F5EEC00A4D
:100D0000F1EE10FA07DD81EE810A10EE101A814231
:100D100001DA032000BDB5EEC01AF1EE10FA0CD2D4
:100D2000F5EEC00AF1EE10FA07D280EE810A10EE5D
:100D3000101A814201DA042000BDF5EEC00AF1EE7E
:100D400010FA0BD2B0EE410A05F01CFF81EE802AAA
:100D500012EE101A814201DD052000BDB5EEC01A69
:100D6000F1EE10FA0CDDF5EEC00AF1EE10FA07D242
:100D700081EE810A10EE101A814201DA062000BDD0
:100D8000002000BDD7B3DD3F70B504462DED068BC6
:100D9000D0F86811884751EC100BFFF735FC354946
:100DA000DFED359A8860D4F8B800B0F17E5FD4F8F2
:100DB0006C0132D0804700BF84ED1E0AD4F89850F1
:100DC0002846FFF70EFC94ED048B53EC182BFFF72D
:100DD00062FA41EC1A0B2846FFF703FC53EC1A2B7E
:100DE000FFF772FBFFF710FC94ED1E1AD4ED220AF8
:100DF00009EE100A214931EE600AF0EEC01A11EE38
:100E0000900A884216DDB5EEC00AF1EE10FA08D25B
:100E100039EEE00A30EE010A0CE0804739EEC00AF4
:100E2000CAE7B5EEC00AF1EE10FA0FDB31EE690A3F
:100E300030EE600A10EE100AFFF7D3FB53EC182BCC
:100E4000FFF742FBFFF7E0FBC4F89400D4ED250A5E
:100E500094ED230AB0EE491A02F098FA84ED240AC0
:100E6000D4ED1E0AC4ED220A84ED230ABDEC068BE4
:100E700070BD000010000020DB0FC9407CD9A040ED
:100E800070B5124D04462DED028B2868C8B9104884
:100E90006168A1600068406A9FED0E8B60608842C7
:100EA00001D9401A03E04FF6FF72511A0844FFF7C8
:100EB0008BFB53EC182BFFF707FBC4E9040101205F
:100EC000286094ED040BBDEC028B70BD1000002077
:100ED000B002002055555555154B21412DE9F047DD
:100EE000044690F858009CB00E464FF000090128C7
:100EF00015D0012084F85800002517951895206812
:100F00004FF0A04840450ED1284F0097384602F0D8
:100F1000EFF98246206802F0EBF960B10EE00220A2
:100F20001CB0BDE8F087E06D40F02000E06584F87B
:100F300058500120F4E7BAF1000F09D0E06D40F0FD
:100F40002000E0654FF0010984F858504846E7E773
:100F50001748326840F61F71002A826822F4604206
:100F600016D094F8383042EA433273681A438260EC
:100F7000D8F80820BB6802F0010203F001031A430D
:100F8000E2D1B36832681A4383688B431A430BE09B
:100F90008260D8F80820BB6802F0010203F0010368
:100FA0001A43D1D182688A438260CDE700010050A4
:100FB000000300502DE9F84F00270446009790F8F1
:100FC0005800DFF8E0930D46B846012811D00126FD
:100FD00084F85860206802F087F960B1E06D40F055
:100FE0002000E0655FF0010784F858803846BDE8CE
:100FF000F88F0220FBE7D5E900210C23206803EAE3
:1010000091131844036B01F01F014FF01F0C0CFAF1
:1010100001FCC2F3846223EA0C038A401343036396
:10102000206802F061F98246206802F059F95AEA14
:1010300000003CD1AA6829682068B2F1004F37D07F
:1010400002F05AF92068416921F0004141612068AD
:101050006969C268C2F3C102520091402A69042A38
:1010600031D000EB82002B68026EDFF83CC303F046
:10107000F84302EA0C020B431A4342F000410166B6
:1010800020682A69A96900EB8200026E22F0807252
:101090000A430266297F22682869012910D00021AD
:1010A00002EB8000026E22F000720A4302667DE0CD
:1010B000002202F021F92068416941F00041C5E7B2
:1010C0004FF00071ECE7002102F004F940032068C2
:1010D0004FF0000172D002F0FDF890FAA0F0B0FAE3
:1010E00080F1286842036ED090FAA0F0B0FA80F048
:1010F000814204D100221146206802F00CF901213E
:10110000206802F0E7F8400320684FF001015DD04D
:1011100002F0E0F890FAA0F0B0FA80F128684203FB
:1011200059D090FAA0F0B0FA80F0814204D10022A8
:101130000121206802F0EFF80221206802F0CAF8CD
:10114000400320684FF0020148D002F0C3F890FA43
:10115000A0F0B0FA80F12868420344D090FAA0F0E1
:10116000B0FA80F0814204D100220221206802F00E
:10117000D2F80321206802F0ADF8400320684FF058
:10118000030133D002F0A6F890FAA0F0B0FA80F193
:10119000286842032FD090FAA0F0B0FA80F0814284
:1011A00004D100220321206802F0B5F8206881688C
:1011B00011F0010F22D0ACE000E004E002F08AF868
:1011C000C0F384618DE7C0F3846091E702F082F898
:1011D000C0F38461A2E7C0F38460A6E702F07AF866
:1011E000C0F38461B7E7C0F38460BBE702F072F834
:1011F000C0F38461CCE7C0F38460D0E72A7B296820
:1012000050F8B03FC1F3120C23EA0C0302F0180CA3
:10121000664A22FA0CF20A4013430360E968494522
:1012200077D1286841031CD090FAA0F1B1FA81F17E
:10123000491C01F01F0109294FEA403132D8002929
:1012400012D000BF90FAA0F1B1FA81F101F10101D1
:1012500001F01F0106FA01F609D100BFC0F3846155
:1012600009E0C0F38461E3E7C0F38461EEE790FA3C
:10127000A0F1B1FA81F101F1010101F01F0146EA8B
:10128000816102D1C0F3846003E090FAA0F0B0FA6B
:1012900080F000F1010000F01F0000EB400041EA87
:1012A000005132E000290ED090FAA0F1B1FA81F19C
:1012B00001F1010101F01F0106FA01F606D100BF9C
:1012C000C0F3846106E0C0F38461F1E790FAA0F115
:1012D000B1FA81F101F1010101F01F0146EA8161DA
:1012E00002D1C0F3846003E090FAA0F0B0FA80F07D
:1012F00000F1010000F01F002D4A00EB400002EB5E
:10130000005041EA000141F00071AA68206801F034
:10131000F3FF28482A6802423FF466AE26488168F7
:10132000264B01F0E0719A4202D0254B9A421CD123
:101330000B021AD42268B2F1A04F7FF455AE826836
:1013400041F4000122F0E0720A4382601D481E4908
:101350000068B0FBF1F0401C00EB4000800000E0B2
:10136000401E00900028FBD13EE6184D184BAA42C3
:1013700007D1CD0105D422689A42F5D041F08071A1
:1013800009E0144DAA42EFD14A02EDD422689A42F4
:10139000EAD041F48001826822F0E0720A43826060
:1013A00022E6000000007F4000F0FF03FFFF07007F
:1013B000000020FE0000088000030050000021C350
:1013C0001000C0900C000020400D0300000052C728
:1013D00000010050000084CBF8B54FF00005040078
:1013E0002E46009502D0E06D10B107E00120F8BD57
:1013F000204600F0EBF8266684F858602068816883
:10140000C1F3407119B18168684A11408160206858
:101410008168C1F3007189B98168654A114041F062
:1014200080518160634864490068B0FBF1F040007E
:10143000801C00E0401E00900028FBD120688168DD
:10144000C1F3007141B9E16D41F01001E165216E18
:1014500041F001012166012501F046FFE16DC90659
:1014600000D430B1E06D40F01000E0650125284661
:10147000F8BDE06D20F4807040F00200E065206867
:10148000806810F0010F11D14FF0A04080684B49E7
:1014900000F00100896801F00101084306D14848C5
:1014A0006168826822F47C120A438260E168E06B22
:1014B000627F0843A16841EA4231084394F824104E
:1014C00040EA0140012904D1218D3E4A02EB41410D
:1014D0000843E16A29B101F47871226B014342EAC1
:1014E00001002268D168384B19400143D16020685F
:1014F0000169626B21F0406111430161206801F0D4
:10150000EFFE70BB207F94F83810800340EA410260
:101510002168C86844F2020398431043C8602069F8
:101520000028206801690AD041F4803101612068F7
:1015300050F8C01F22696FF30D01114307E021F439
:1015400080310161206850F8C01F6FF30D01016008
:1015500094F8400001280CD02068016921F00101B5
:101560000161606901282068016B21F00F0111D031
:1015700013E0D4E911010843D4E9131211430843DD
:1015800021680A6940F2FC739A43104340F001005D
:101590000861E6E7226A521E11430163E06D20F004
:1015A000020040F00100E06561E70000C0FFFF5F5E
:1015B000C0FFFF7F0C000020400D03000001005021
:1015C000000300500000FEFF0740F0FF10B598B088
:1015D0000446142111A8FEF753FE44216846FEF785
:1015E0004FFE2068B0F1A04F26D14FF4004000908C
:1015F00080030F90684600F08FFB08B1FFF79DFA5B
:101600000E48C16C41F40051C164C16C01F4005139
:101610001691C16C41F00101C164C06C11A900F0C8
:1016200001001690072011900320129000201390C3
:101630004FF0904000F056F918B010BD0010024075
:1016400070B5044600F078FA0546601C02D00448E4
:101650004068044400F070FA401BA042FAD370BD09
:10166000000000202DE9F041040006D0DFF8E881F9
:1016700094F85C00002518B107E00120BDE8F08176
:1016800084F85D50204600F0EFF82068816921F071
:101690001001816100F050FA0646032705E000BF03
:1016A00000F04AFA801B0A2811D8206880690007D8
:1016B000F6D42068816941F00101816100F03CFAB3
:1016C00006460BE000F038FA801B0A2806D9206E87
:1016D00040F00100206684F85C70CEE720688069E5
:1016E000C007EFD02068816941F002018161216863
:1016F000414502D1594960680860207C0128206872
:10170000816937D041F040018161607C0128206807
:10171000816932D021F480418161A07C0128206858
:1017200081692DD041F48051816120688169A2686E
:1017300021F44071114381612068816921F0A40185
:1017400081612068016921F010010161E0680128D0
:1017500019D010B302281BD02068816941F08001A4
:1017600081612068016941F010010161E06803288E
:101770000ED012E021F04001C6E741F48041CBE7F2
:1017800021F48051D0E72068816941F0040103E031
:101790002068816941F020018161207EE269400674
:1017A0006FF0FF0101EB0222A0F100701043226AEA
:1017B000A38A521E10430A0202EB03431843236814
:1017C000D861A068B0F5407F10D1D4E90A0301EBDD
:1017D0000321401E0843216B131303EB011108433F
:1017E000A18C02EB014108432168C860206850F8D1
:1017F000C01FE26B1143016019482064216851F851
:10180000802FA38E22F4F81242EA03420A601449A0
:1018100070316164216851F8802F94F8383022F0DB
:10182000706242EA03620A600D49B031A1640D4959
:10183000E1640C49D83121650A49F031616500F550
:10184000547120C08842FCD3A5652566012084F828
:101850005C00002012E700000064004000650040CA
:1018600000A4004088A5004010B598B0044614219B
:1018700011A8FEF705FD44216846FEF701FD174952
:101880002068884228D18014009040030C9068465C
:1018900000F042FA08B1FFF750F91148816D41F0AC
:1018A00000718165816D01F000711691C16C41F08C
:1018B0000101C164C06C11A900F0010016904FF441
:1018C000C050119002201290002013901490092013
:1018D0001590C00600F006F818B010BD0064004076
:1018E000001002402DE9F04FDFF82092002301267E
:1018F0000324A9F1040B85B00F2709F1040AABF109
:10190000040EFAE006FA03F52A407CD091F804C0F0
:101910000CF0030CBCF1010F02D0BCF1020F26D178
:10192000D0F808C0CDF800C04FEA430C04FA0CF818
:10193000CDF810C0DDF800C02CEA080CCDF800C0CE
:10194000D1F80C80DDF810C008FA0CF8DDF800C002
:1019500048EA0C08C0F80880D0F804C02CEA050C4E
:101960000D79C5F300159D4045EA0C0545600D79DC
:10197000ED43AD070ED0C5684FEA430804FA08FCF2
:1019800025EA0C05D1F808C00CFA08FC4CEA050C55
:10199000C0F80CC00D7905F00305022D16D1DD0845
:1019A00000EB850CCDF808C0DCF820805D074FEA1D
:1019B000D56C07FA0CF528EA05080D6905FA0CF54F
:1019C000DDF808C045EA0805CCF8205005684FEA64
:1019D000430CCDF808C004FA0CFC25EA0C0591F87C
:1019E00004C00CF00308DDF808C008FA0CF848EA57
:1019F0000508C0F800804D6815F4403F7CD0444D88
:101A0000D5F860C000E077E04CF0010CC5F860C08C
:101A10002D6E23F0030C05F0010500953D4D654446
:101A20000295AD684FEA837C4FEA1C7807FA08FC00
:101A300025EA0C05B0F1904F06D0DFF8DCC0604518
:101A400005D14FF0010C20E04FF0000C1DE0DFF855
:101A5000CCC0604502D14FF0020C16E0DFF8C0C0E8
:101A6000604502D14FF0030C0FE0DFF8B8C06045CD
:101A700002D14FF0040C08E0DFF8ACC0604502D1A1
:101A80004FF0050C01E04FF0060C0CFA08FC4CEA94
:101A9000050C029DC5F808C0D9F80050CC46D1F815
:101AA000048095435FEAC82800D51543CCF8005060
:101AB000DAF80050D446D1F8048095435FEA8828CC
:101AC00000D51543CCF80050DBF80050DC46D1F8C7
:101AD000048095435FEA883800D51543CCF8005060
:101AE000DEF80050F446D1F8048095435FEAC83828
:101AF00000D51543CCF800505B1C0A6832FA03F598
:101B00007FF400AF05B0BDE8F08F0000080401408D
:101B10000010024000000140000400480008004896
:101B2000000C004800100048001400480AB1816110
:101B3000704781627047000001488068704700006C
:101B400000000020024881684268114481607047AB
:101B50000000002010B50024032000F065F80F20DD
:101B600000F008F808B1012401E000F025F8204653
:101B700010BD000070B50E4E05460024706898B187
:101B80004FF47A71B1FBF0F00A490968B1FBF0F04B
:101B900000F02FFF40B9102D06D200222946501E1A
:101BA00000F022F8356000E00124204670BD0000FE
:101BB000000000200C0000200A4882B0016E41F0B5
:101BC00001010166016E01F001010091816D41F09A
:101BD00080518165806D00F08050009002B000F06F
:101BE00093B8000000100240F0B40E4B1B680C4686
:101BF000C3F30223C3F10705042D00D90425191DE1
:101C0000072901D2002300E0DB1E012606FA05F1B8
:101C1000491E214099409E40761E16403143F0BC3B
:101C200002F078BD0CED00E0064900F007020868FC
:101C30004FF6FF03184040EA0220034A10430860B1
:101C4000704700000CED00E00000FA052B492C4B1A
:101C50000A6832214A432B4940B1B0F5007F086839
:101C600029D020F4C06040F480602CE00868C0F304
:101C70004120022804D051F8800F20F4807022E027
:101C8000D1F8800020F48070C1F88000086820F44A
:101C9000C06040F400700860B2FBF3F0401C00E04C
:101CA000401E4A69520501D50028F9D1486940050E
:101CB0000AD503207047C0F34120022806D051F80E
:101CC000800F40F48070086000207047D1F88000D9
:101CD00040F48070C1F88000086820F4C06040F4CF
:101CE00000700860B2FBF3F0401C00E0401E4A693F
:101CF0005205DBD50028F9D1D8E700000C00002000
:101D000040420F00007000400248816841F4804169
:101D100081607047007000402DE9F8430446006878
:101D200000269D4D00035ED5A86D0027C00008D495
:101D3000A86D40F08050A865A86D012700F0805084
:101D40000090DFF85892D9F8001041F48071C9F87A
:101D50000010FFF7F1FE804606E000BFFFF7ECFE43
:101D6000A0EB080002282BD8D9F80000C005F5D553
:101D7000D5F8900010F4407014D0216C814211D03D
:101D8000D5F89000D5F8901020F4407041F48031DF
:101D9000C5F89010D5F8901021F48031C5F8901056
:101DA000C5F89000C00711D0FFF7C6FE804641F28B
:101DB000883907E0FFF7C0FEA0EB0801494501D9CB
:101DC00003260BE0D5F890008007F3D5D5F89000F6
:101DD000216C20F440700843C5F890001FB1A86D35
:101DE00020F08050A8652078C00707D0D5F888007B
:101DF000616820F003000843C5F888002078800758
:101E000007D5D5F88800A16820F00C000843C5F874
:101E100088002078400707D5D5F88800E16820F0D1
:101E200030000843C5F888002078000707D5D5F8AA
:101E30008800216920F0C0000843C5F88800207898
:101E4000800607D5D5F88800616920F44060084312
:101E5000C5F888002078400607D5D5F88800A16924
:101E600020F440500843C5F888002078000607D5C4
:101E7000D5F88800E16920F440400843C5F888009F
:101E80002088C00507D5D5F88800216A20F44030A5
:101E90000843C5F888002088800507D5D5F8880054
:101EA000616A20F440200843C5F888002088400576
:101EB0000FD5D5F88800A16A20F440100843C5F872
:101EC0008800A06AB0F5801F03D1E86840F4801054
:101ED000E860208800050FD5D5F88800E16A20F475
:101EE00040000843C5F88800E06AB0F5800F03D1D0
:101EF000E86840F48010E8602088C0040FD5D5F869
:101F00008800216B20F040700843C5F88800206BE2
:101F1000B0F1807F03D1E86840F48010E860208849
:101F20004FF0006180040ED5D5F88800626B20F078
:101F300040601043C5F88800606B884203D1E868B0
:101F400040F48010E860208840040ED5D5F8880061
:101F5000A26B20F040601043C5F88800A06B884257
:101F600003D1E86840F48010E860208800040FD5B1
:101F7000D5F88800E16B20F040500843C5F8880090
:101F8000E06BB0F1805F03D1E86840F48030E86036
:101F90003046BDE8F88300000010024000700040A9
:101FA0002DE9F0470E4605004FF0000725D0DFF879
:101FB000AC81D8F8000000F00F00B0420CD2D8F885
:101FC000001021F00F013143C8F80010D8F80000CC
:101FD00000F00F00B04210D12968614CC80741F2EF
:101FE000883A5AD06868DFF87C91032808D0022824
:101FF00020682DD0400500282CDB0120BDE8F087AB
:1020000020688001F9D5E06800F00302E068C0F3C1
:102010000310401C032A19D0534A00BFB2FBF0F052
:10202000E268C2F306225043E268C2F34162521CE6
:102030005200B0FBF2F0484517D9A06810F0F00F3D
:102040000CD0880711D5A86840B10EE0474AE5E7F3
:102050008003D0E700F0B6F8484506D9A06820F024
:10206000F00040F08000A0608027A068696820F040
:1020700003000843A060FFF75FFD814606E000BF54
:10208000FFF75AFDA0EB090151453AD8A0686968ED
:1020900000F00C00B0EB810FF2D12868810714D555
:1020A000400703D5A06840F4E060A06028780007EE
:1020B00005D5A06820F4605040F4E060A060A068FE
:1020C000A96820F0F000084304E0802F03D1A06845
:1020D00020F0F000A060D8F80010404601F00F0199
:1020E000B14216D9016821F00F0131430160FFF7B9
:1020F00023FD074607E000BFFFF71EFDC11B51454A
:1021000001D903207AE7D8F8000000F00F00B042B0
:10211000F2D12878400705D5A068E96820F4E0608E
:102120000843A0602878000706D5A068296920F434
:10213000605040EAC100A06000F044F8A1680C4A79
:10214000C1F30311515C01F01F01C8400949086047
:1021500009480068BDE8F047FFF70CBD00200240C9
:102160000010024000B4C4040024F40000127A00FD
:10217000726C00080C000020000000200548064991
:1021800000688968054AC1F30221515C01F01F0112
:10219000C84070470C00002000100240826C00080C
:1021A0000548064900688968054AC1F3C221515CA7
:1021B00001F01F01C84070470C00002000100240D1
:1021C000826C0008184910B58868C0F3810217486E
:1021D000012A0BD08A684310C2F38102022A06D07A
:1021E0008A68C2F38102032A03D0002010BD18467A
:1021F00010BDCA6802F00304CA68C2F30312521C7D
:10220000032C02D0B0FBF2F001E0B3FBF2F0CA689D
:10221000C968C2F306225043C1F34161491C490019
:10222000B0FBF1F010BD0000001002400024F400EB
:102230002DE9F84304007AD02078F84DC00747D044
:10224000A868E96800F00C0001F003010C2802D036
:10225000082817D001E0032914D06068B0F5803F4A
:1022600017D0B0F5A02F286817D020F48030286050
:10227000286820F4802028606068E0B1FFF75CFCEB
:10228000064614E02868800322D560680028D2D072
:102290001EE0286840F48030EDE740F4802028609C
:1022A000F7E700BFFFF748FC801B642870D8286858
:1022B0008003F7D50CE0FFF73FFC064605E000BFC2
:1022C000FFF73AFC801B6428F0D828688003F7D415
:1022D000207880074CD5A868E96800F00C0001F070
:1022E00003010C2802D004280DD001E002290AD0F5
:1022F000E068002828682BD040F480702860FFF741
:102300001BFC064619E02868400502D5E068002855
:1023100091D06868217C20F0FE4040EA016068604E
:10232000BF480068FFF726FC002800D120E072E1DA
:10233000FFF702FC801B0228B8D828684005F7D5B3
:102340006868217C20F0FE4040EA016068600FE090
:1023500020F480702860FFF7EFFB064605E000BF21
:10236000FFF7EAFB801B0228A0D828684005F7D4B5
:102370002078000729D560690028D5F8940013D08B
:1023800040F00100C5F89400FFF7D6FB064606E0D2
:1023900090E000BFFFF7D0FB801B022886D8D5F85D
:1023A00094008007F6D510E020F00100C5F89400F5
:1023B000FFF7C2FB064604E0FFF7BEFB801B0228C6
:1023C00078D8D5F894008007F6D42078400761D5F6
:1023D000A86D0026C00008D4A86D40F08050A86504
:1023E000A86D012600F0805000908E480168C90554
:1023F00011D40168804641F480710160FFF79CFBB5
:10240000074604E0FFF798FBC01B022852D8D8F813
:102410000000C005F6D5A068012815D00528D5F81C
:10242000900016D020F00100C5F89000D5F890007B
:1024300020F00400C5F89000A06841F28838B8B1D7
:10244000FFF77AFB07460EE0D5F8900040F0010058
:10245000F0E740F00400C5F89000F5E7FFF76CFBEB
:10246000C11B414526D8D5F890008007F6D50CE071
:10247000FFF762FB074604E0FFF75EFBC11B414527
:1024800018D8D5F890008007F6D41EB1A86D20F0BA
:102490008050A8652078800629D5A0690028D5F845
:1024A000980013D040F00100C5F89800FFF744FBF6
:1024B000064606E075E000BFFFF73EFB801B0228E2
:1024C0006FD8D5F898008007F6D510E020F001000D
:1024D000C5F89800FFF730FB064604E0FFF72CFB39
:1024E000801B02285DD8D5F898008007F6D4E069F3
:1024F000F0B3A968C1F3810103295DD002282868DF
:1025000020F08070286003D0FFF716FB04464BE0F4
:10251000FFF712FB064604E0FFF70EFB801B0228C4
:102520003FD828688001F7D4F4E908016FF00F0262
:1025300002EB01110843218A5204490802EB415180
:10254000A26841EA02210843217D4FF07E424908FA
:1025500002EB41610843217B40EAC160E968324AED
:1025600011400843E860286840F08070286000E06F
:102570005EE0E86840F08070E860FFF7DDFA04464E
:1025800005E000BFFFF7D8FA001B022809D8286829
:102590008001F7D54CE000BFFFF7CEFA001B022800
:1025A00002D90320BDE8F88328688001F4D4E868E4
:1025B0001E490840E8603BE00128F3D0E868226A41
:1025C00000F00301914226D1616A00F0F002090196
:1025D000103991421FD1A26A00F4FE41B1EB022FE3
:1025E00019D194F82C2000F07841B1EBC26F12D1D0
:1025F000218E00F4C00249084905A1F5001191425D
:1026000009D194F8341000F0C06049084906A1F1DE
:10261000007181420CD00120C4E70000001002408C
:1026200000000020007000400C809F01FCFFEEFEC7
:102630000020B7E770B5040009D0606A002540B1FA
:1026400025616561A56294F85D0040B10CE0012050
:1026500070BD6068B0F5827FF4D0E561F2E784F880
:102660005C50204600F05CF8022084F85D00206891
:10267000016821F040010160E1684FF4E06291429D
:1026800001D9002001E04FF48050B1F5706F02D005
:10269000914200D0A562A188228901F4827102F4DE
:1026A00004421143227C02F002021143227D02F017
:1026B00001021143228B02F400721143227F02F0C7
:1026C0003802114394F8202002F080021143228D39
:1026D00002F40052114322681160A169042202EA47
:1026E000114194F8242000F4805002F010021143AC
:1026F00094F8342002F008021143A28902F47062B7
:1027000011430143206841602068C16921F40061E0
:10271000C1612566012084F85D00002070BD0000C5
:1027200010B586B0044614216846FDF7A9FD12498C
:10273000206888421ED11148016E41F48051016623
:10274000016E01F480510591C16C41F00101C16439
:10275000C06C694600F001000590E0200090022066
:102760000190002002900390052004904FF09040CB
:10277000FFF7B8F806B010BD00300140001002406D
:102780002DE9FF5F1D46934604464FF001090E9E5A
:10279000FFF7D2F9074694F85D006168012806D07A
:1027A000B1F5827F39D1A168B1BB042835D1019838
:1027B00000287CD0BBF1000FFBD0002DF9D094F89D
:1027C0005C00012829D04FF0010A84F85CA094F83D
:1027D0005D00042802D0052084F85D004FF0000859
:1027E000C4F86080C4F840B0A4F84650A4F844503F
:1027F0000199A163E587A587C4F84C80C4F850808F
:10280000E0684FF4E061884201D8012D09D92068C1
:10281000426822F4805208E0FFE7022004B0BDE8DD
:10282000F09F2068426842F480524260206802684B
:10283000520603D4026842F040020260E068884217
:10284000606846D908B1012D3BD1A06B0188206892
:10285000C160A06B801CA063E08F401EE08730E069
:102860002068816889070FD5E18F69B1B9F1010F3F
:102870000AD1A16B0988C160A06B801CA063E08FA6
:10288000401EE0874FF0000920688168C90711D019
:10289000B4F8461071B1C068216C0880206C801CAF
:1028A0002064B4F84600401EA4F8460000E09EE014
:1028B0004FF00109FFF740F9C01BB04201D3701C73
:1028C00074D1E08F0028CBD1B4F846000028C7D1DE
:1028D00075E008B1012D6BD1E08F0128A06B08D9FC
:1028E00021680088C860A06B801CA063E08F801EF8
:1028F00007E0216800780873A06B401CA063E08F9C
:10290000401EE08754E02068816889071AD5E18F6E
:10291000C1B1B9F1010F15D1E18F0129A16B07D91F
:102920000988C160A06B801CA063E08F801E06E058
:1029300009780173A06B401CA063E08F401EE08704
:102940004FF0000920688168C90728D0B4F8461004
:1029500029B3B4F84610012914D9C068216C088045
:10296000206C801C2064B4F84600801EA4F8460049
:10297000B4F84600012810D82068416841F480511D
:1029800041600AE0007B216C0870206C401C2064D0
:10299000B4F84600401EA4F846004FF00109FFF7C6
:1029A000CBF8C01BB04202D3701C01D012E08EB134
:1029B000E08F0028A7D1B4F846000028A3D13A46FA
:1029C0003146204600F011FF50B12020206684F8E7
:1029D0005C800CE084F85DA084F85C8003201DE737
:1029E00084F85DA084F85C80206E0028F7D0012078
:1029F00014E710B5401EB0F1807F01D3012010BD57
:102A00004FF0E02460610F21601701F083FE002089
:102A1000A06107202061002010BD000030B590F8B3
:102A20003C20012A42D0012280F83C20CA688B68F1
:102A300022F440721A434B6822F480621A430B68F6
:102A400022F400621A430B6922F480521A434B6944
:102A500022F400521A430B6B22F480421A430B8B70
:102A600022F4702242EA0342CB6922F080521A43D8
:102A70000F4D03680024AB4202D00E4DAB4210D183
:102A80000D8D22F4700242EA05520D6A22F0807226
:102A90002A434D6A22F000722A43C96A22F000528A
:102AA0000A435A6480F83C40002030BD022030BD0B
:102AB000002C014000340140F0B590F83C20012A80
:102AC0003AD0012580F83C50022280F83D2003686E
:102AD0005A689C68194E1A4FB34201D0BB4204D1C8
:102AE00022F4700C4A6842EA0C02DFF858C002EA8D
:102AF0000C02D1F800C04CEA020CC3F804C0026812
:102B0000B2420DD0B2F1804F0AD00F4B9A4207D09B
:102B10000E4B9A4204D0BA4202D00D4B9A4204D1D5
:102B2000896824F080031943916080F83D500021AA
:102B300080F83C100846F0BD0220F0BD002C01409A
:102B4000003401408FFFFFFD0004004000080040FA
:102B50000040014010B5040003D094F83D0010B1CE
:102B600007E0012010BD002084F83C00204600F062
:102B700023F8022084F83D00211D206801F0DCF8D4
:102B8000012084F8480084F83E0084F83F0084F86F
:102B9000400084F8410084F8420084F8430084F83F
:102BA000440084F8450084F8460084F8470084F81F
:102BB0003D00002010BD000008B50C4A01680C481B
:102BC000914207D1016E41F400610166006E00F48C
:102BD000006009E0074A914207D1816D41F002018E
:102BE0008165806D00F00200009008BD002C01405E
:102BF000001002400004004090F83D10012901D06F
:102C000001207047022180F83D1000680F4988427A
:102C10000ED0B0F1804F0BD00D49884208D00D493D
:102C2000884205D00C49884202D00C49884207D11D
:102C300081680B4A1140062906D0B1F5803F03D0C8
:102C4000016841F00101016000207047002C014043
:102C500000040040000800400034014000400140F2
:102C60000700010070B5044690F83C0000250128DB
:102C700014D0012684F83C60022084F83D002268CC
:102C80009068364B184020F47F40906008687028A8
:102C90002ED010DC10F00F0F03D021E04FF0020017
:102CA00070BD4FEA2012072A1AD2DFE802F0525212
:102CB00052524A3840002A4BC21A984249D009DC85
:102CC000B0F5805F0DD0B0F5005F1CD0B0F1101FE3
:102CD00006D13EE0102A3CD0202A3AD0502A38D0E3
:102CE000012584F83D60002084F83C00284670BD32
:102CF000CB68D1E90121206801F089F8206881685A
:102D000041F0770109E0CB68D1E90121206801F0A9
:102D10007EF82068816841F480418160E1E7CA68FB
:102D20004968206801F01EFA5021206806E0CA6850
:102D30004968206801F027FA6021206801F072F8E4
:102D4000CFE7CA684968206801F00CFA4021206882
:102D5000F4E7226801461046F0E7000088FFCEFF46
:102D60002000100010B586B0044614216846FDF717
:102D700087FA0F492068884217D10E48C16C41F08C
:102D80000101C164C06C694600F0010005904FF478
:102D9000E060009002200190002002900390062045
:102DA00004904FF09040FEF79DFD06B010BD00006E
:102DB000002C01400010024070B5044690F83C0021
:102DC00000260D4601280BD0012084F83C000C2A77
:102DD0004AD007DC82B1042A20D0082A06D131E08B
:102DE000022070BD102A53D0142A63D0012600207F
:102DF00084F83C00304670BD206801F01DF8206862
:102E0000816941F0080181612068816921F0040134
:102E10008161206881692A69114311E0206801F00D
:102E200059F82068816941F40061816120688169F5
:102E300021F480618161206881692A6941EA022167
:102E40008161D4E7206801F08DF82068C16941F004
:102E50000801C1612068C16921F00401C1612068D5
:102E6000C1692A69114311E0206801F0C3F82068A4
:102E7000C16941F40061C1612068C16921F48061C8
:102E8000C1612068C1692A6941EA0221C161AEE7D6
:102E9000206801F0F7F82068016D41F00801016534
:102EA0002068016D21F0040101652068016D2A6927
:102EB000114311E0206801F01DF92068016D41F413
:102EC000006101652068016D21F480610165206861
:102ED000016D2A6941EA0221016588E710B5040005
:102EE00003D094F83D0010B107E0012010BD002090
:102EF00084F83C00204600F022F8022084F83D00CF
:102F0000211D206800F018FF012084F8480084F893
:102F10003E0084F83F0084F8400084F8410084F8C3
:102F2000420084F8430084F8440084F8450084F8A3
:102F3000460084F8470084F83D00002010BD70472B
:102F400030B50446022269B1042912D0082917D0ED
:102F50000C291CD0102921D094F84300012824D03A
:102F6000012030BD94F83E000128F9D184F83E20BC
:102F70001DE094F83F000128F2D184F83F2016E0CC
:102F800094F840000128EBD184F840200FE094F839
:102F900041000128E4D184F8412008E094F842007F
:102FA0000128DDD184F8422001E084F84320012289
:102FB000206800F01FFF194B20681949194A9842F0
:102FC00009D0884207D0904205D0174DA84202D0C0
:102FD000164DA84203D1456C45F400454564206870
:102FE00098420CD0B0F1804F09D0114B984206D0D6
:102FF000104B984203D0884201D0904207D181689B
:103000000D4A1140062906D0B1F5803F03D0016872
:1030100041F001010160002030BD0000002C0140A2
:10302000003401400040014000440140004801409C
:1030300000040040000800400700010090F88410E0
:10304000012918D0012180F884102421C0F88810AB
:1030500001680A680B6823F001030B6022F000513D
:1030600000224266036819602021C0F8881080F8A9
:103070008420104670470220704770B5044690F8CF
:10308000840001281DD0012084F884002420C4F885
:10309000880020680568026822F00102026020684A
:1030A000826822F060620A438260204601F07EF866
:1030B000206805602020C4F88800002084F884007F
:1030C00070BD022070BD70B5044690F884000128E0
:1030D0001DD0012084F884002420C4F888002068D2
:1030E0000568026822F0010202602068826822F00E
:1030F00060420A438260204601F058F8206805606B
:103100002020C4F88800002084F8840070BD0220CC
:1031100070BD10B5040003D0D4F8880010B107E0EA
:10312000012010BD002084F88400204600F026F81D
:103130002420C4F888002068016821F001010160A2
:10314000A06A10B1204601F053F8204601F034F98E
:103150000128E6D02068416821F490414160206850
:10316000816821F02A0181602068016841F0010135
:1031700001602046BDE8104001F09EB870B598B0DF
:103180000446142111A8FDF77BF844216846FDF799
:1031900077F820492068884239D104200024009023
:1031A00003946846FEF7B8FD08B1FDF7C6FC1A485F
:1031B000816D41F480218165816D01F4802116913A
:1031C000C16C41F00401C164C16C01F004011691AD
:1031D000C16C41F00201C164C06C022500F0020024
:1031E000169007264FF40060CDE91254CDE914463D
:1031F000119011A90948FEF775FB2802CDE9125478
:10320000CDE91446119011A90548FEF76BFB18B0E3
:1032100070BD000000480040001002400008004857
:10322000000400482DE9F8430446D0F88800984689
:1032300016460D46202802D00220BDE8F883A5B12D
:103240009EB10020C4F890002120C4F888001834F2
:10325000FEF772FCA6878146E68754F8100C2027FB
:10326000183CB0F5805F02D003E00120E5E720695B
:1032700010B12E46002510E000260EE080212046E9
:1032800001F0D4F9C0B9DEB116F8010B21688862EB
:10329000B4F85600401EA4F85600B4F856004B4649
:1032A0004FF00002CDF800800028E7D14FF0400138
:1032B000204601F0BBF940B1C4F888700320BCE798
:1032C00035F8020BC0F30800E0E7C4F8887000206E
:1032D000B3E7FEE700EB8100006E00F0F8407047B6
:1032E0008068C0F3C00070478068C0F380007047FA
:1032F0008068C0F380007047042303EAD15310B5FF
:1033000018444369C1F3045107248C40A3438A4005
:103310001343436110BD00EB8100016E21F00041B9
:10332000114301667047B4EEC10AF1EE10FA02D201
:10333000B0EE410A7047B4EEE00AF1EE10FAF9DDA2
:10334000B0EE600A7047000010B510EE100AFDF7ED
:1033500048F941EC100B9FED0A1B01F051FA51ECBA
:10336000100BFDF751F900EE100AB5EEC00AF1EEB0
:1033700010FA03DADFED040A30EE200A10BD000077
:1033800000000060FB211940DB0FC940F7EE001A76
:1033900021EE000A31EEC11A01EE200A704700004A
:1033A00030B58BB0002408940994202168460A9413
:1033B000FCF766FF1C484FF0A041042501604FF464
:1033C0004031C0E90114C4600461C0E905450477D7
:1033D00044770121016280F82440C462046380F8CC
:1033E0003840C46380F84040FDF7F6FF08B1FDF7B0
:1033F000A4FB08A90C480894FDF770FD08B1FDF77F
:103400009CFB0A4800900620CDE901047F2005942A
:10341000CDE9030569460448FDF7CCFD002801D03D
:10342000FDF78BFB0BB030BD3001002002003004F3
:10343000114810B50F490160002141608160C160F1
:103440000174417481741022426101220223C0E997
:103450000623C0E908328262C262C0E90C2181639E
:10346000C163FEF7FFF8002803D0BDE81040FDF768
:1034700064BB10BD006400409C01002010B586B004
:1034800014216846FCF7FCFE1548C16C41F00101AF
:10349000C164C16C01F001010591C16C41F00401EE
:1034A000C164C16C01F004010591C16C41F00201DD
:1034B000C164C06C0B4C00F002000590002210218A
:1034C0002046FEF733FB1020009001200021CDE9BB
:1034D0000101039169462046FEF704FA06B010BDCB
:1034E0000010024000080048124810B51049016061
:1034F0004FF48271416000214FF47062C0E9021202
:103500000122C0E90412520282612022C0E907218F
:1035100007224162C0E90A1201634163FFF78AF89A
:10352000002803D0BDE81040FDF707BB10BD000028
:10353000003001400002002010B59CB00024199416
:103540001A9417941894149415941C210DA8169489
:10355000FCF796FE34216846FCF792FE3C483B4956
:10356000C0E900142021816041F29A01C0E90314EE
:103570008021C0E90541FFF7EDFA08B1FDF7DDFA5A
:103580004FF48050179017A93148FFF76BFB08B133
:10359000FDF7D3FA2E48FFF7A1FC08B1FDF7CDFAED
:1035A0001494159414A92A481694FFF785FA08B1C3
:1035B000FDF7C3FA6020CDE90D040F941094119427
:1035C000129400220DA922481394FFF7F5FB08B1CD
:1035D000FDF7B3FA04220DA91D48FFF7EDFB08B172
:1035E000FDF7ABFA08220DA91948FFF7E5FB08B172
:1035F000FDF7A3FA00944FF40050CDE90440039482
:103600000003CDE9084001940294069407940A94BB
:103610000B9469460E480C94FFF700FA08B1FDF7C9
:103620008CFA0B48FFF7E8FA00210948FFF788FCFD
:1036300004210748FFF784FC08210548FFF780FCB8
:103640000348FFF78FFB1CB010BD0000002C0140A9
:103650006402002010B588B0002419480094019439
:1036600002940394049405941449069401604FF461
:103670009671C0E901144FF6FF71C0E9031480216F
:103680008161FFF767FA08B1FDF757FA4FF48050F0
:10369000009069460A48FFF7E5FA08B1FDF74DFAD0
:1036A000049404A906480694FFF706FA08B1FDF74A
:1036B00044FA0348FFF7A0FA08B010BD0004004028
:1036C000B0020020174810B5154901601649416045
:1036D000002181600C22C160C0E904128161C161D6
:1036E000016241628162FFF714FD08B1FDF725FA1E
:1036F00000210C48FFF7E7FC08B1FDF71EFA002196
:103700000848FFF7BAFC08B1FDF717FA0548FFF7BC
:1037100095FC002803D0BDE81040FDF70EBA10BD9F
:1037200000480040FC02002000941100FEE710B5A4
:1037300090ED0B0AD0ED060A044690ED0F1A30EE1C
:10374000600AD0ED0D0A03F037F8D4ED110A20EE2F
:10375000200A84ED130A10BDFEE7002101E041407C
:1037600040080028FBD101F00100704710B52DED95
:10377000048BB0EE608AF0EE408A18EE100AFCF777
:1037800030FF41EC100B01F0E7FEB0EE409AB1EED5
:10379000680AF0EE609A10EE100AFCF722FF53EC74
:1037A000192BFCF71FFEFCF72FFF0E4C206018EEC4
:1037B000100AFCF716FF41EC100B00F0BDFFB0EE55
:1037C000409AF0EE609A18EE900AFCF70AFF53EC6C
:1037D000192BFCF707FEFCF717FF60602046BDECD5
:1037E000048B10BDBC0000207047F8B515460E468E
:1037F0000B460092044600224FF4C05100F038F806
:1038000088B93346002280212046009500F0A0F8B8
:1038100048B9334600224FF4C0612046009500F0BD
:1038200027F8002804D0206E40F0200020660320F6
:10383000F8BD000011B50C4C83B0002210212046C9
:10384000FEF774F94FF6FF700090012301AA03A957
:103850000648FEF795FF012210212046FEF766F983
:10386000BDF8040004B010BD0008004800020020AC
:103870002DE9FE4F4FF0000A984617460E460446C3
:103880000C9D8DF804A0FEF757F9411BA8EB01052C
:10389000FEF752F9814620684FF4C06B0C3002905D
:1038A0002A480068C0EBC00000EB8000000D6843B0
:1038B000009043E05E4506D12FB9029800788DF85C
:1038C00004009DF80400B8F1FF3F37D0FEF734F94B
:1038D000A0EB0900A84203D215B1009858B32BE021
:1038E0002068416821F0E00141606068B0F5827FA6
:1038F0000BD1A068B0F5004F02D0B0F5806F04D1B5
:103900002068016821F040010160A06AB0F5005F05
:1039100009D12068016821F4005101602068016824
:1039200041F400510160012084F85D0084F85CA03E
:103930000320BDE8FE8F0025401E009020688068AF
:103940003040B842B6D10020F3E700000C00002060
:103950002DE9F8431E46914688460446089DFEF729
:10396000EBF8401B351AFEF7E7F8074625480068D4
:10397000C0F3CB30684338E0701C37D0FEF7DCF87A
:10398000C01BA84203D215B1009860B32CE0206898
:10399000416821F0E00141606068B0F5827F0BD1A1
:1039A000A068B0F5004F02D0B0F5806F04D1206858
:1039B000016821F040010160A06AB0F5005F09D103
:1039C0002068016821F4005101602068016841F419
:1039D00000510160012084F85D00002084F85C0043
:1039E0000320BDE8F8830025401E00902068816810
:1039F00038EA010004D000214945BDD10020F0E79C
:103A00000121F9E70C0000207047000010B5F0EE2E
:103A1000601AD0ED2E0A0446BAEE081A20EE800A8B
:103A2000F2EE080AFFF77FFCF0EE610AFFF79EFE58
:103A300090EC020A0246FDF733F992ED000A0346C4
:103A400084ED2A0A92ED010A84ED2B0A9FED800A8B
:103A5000804981ED030AD2ED011AC1ED041A92EDFD
:103A6000001ADFED7D0AB6EE002A072B61EE200A70
:103A7000B0EE601A41EE820A01EEC21A81ED051A1B
:103A8000C1ED060A14D2DFE803F013040B3A4148F3
:103A90004F0060EE010A20EE210AC1ED070A05E0A1
:103AA00020EE411A20EE200A81ED071A81ED080A66
:103AB00091ED071AB7EE000AD1ED080A30EE410A7F
:103AC00071EE201A30EE600A11EE900A20EE020A22
:103AD000B0F17E5F81ED090A09DD81EE212A81EDD9
:103AE000072A32EE201AC0EE811AC1ED081A072B00
:103AF00068D2DFE803F067202932414A590020EEFE
:103B0000211A20EE600A81ED071ACFE760EE610A04
:103B100020EE410AC1ED070AC8E760EE600A20EE18
:103B2000010AC1ED070AC1E760EE200A20EE610A32
:103B3000C1ED070ABAE781ED0C0AD1ED080A30EEB3
:103B4000200A81ED0B0A37E081ED0C0AD1ED080A5D
:103B500030EE200A81ED0A0A07E081ED0A0AD1ED74
:103B6000080A30EE200A81ED0C0AD1ED070A30EE8A
:103B7000200A81ED0B0A25E081ED0A0AD1ED080A41
:103B800030EE200A81ED0B0A07E081ED0B0AD1ED42
:103B9000080A30EE200A81ED0A0AD1ED070A30EE5C
:103BA000200A81ED0C0A0DE081ED0B0AD1ED080A27
:103BB00030EE200A81ED0C0AD1ED070A30EE200A22
:103BC00081ED0A0A9FED254AB7EE002AB7EE001AEA
:103BD000F0EE441AFFEE000A91ED0A0A02F0DAFF55
:103BE000B0EE403AB7EE002AF0EE441AB7EE001AF3
:103BF000FFEE000A91ED0B0A02F0CCFFF0EE403A26
:103C0000B7EE002AF0EE441AB7EE001AFFEE000AF3
:103C100091ED0C0A02F0BEFFDFED110AD4F860311D
:103C2000BDE8104020EE200ABCEEC00A10EE100ADB
:103C300023EEA00A82B2BCEEC00A10EE100A23EEF8
:103C4000200A81B2BCEEC00A10EE100A80B21847FA
:103C50003ACD133E10000020D7B35D3F00000000B6
:103C600000D08445B4EEE00AF1EE10FA06DCF1EE85
:103C7000600AB4EEE00AF1EE10FA01D2B0EE600A8A
:103C80007047FDF75FBF00B593B038216846FCF779
:103C9000F7FA14210EA8FCF7F3FA0020FDF7D6FF7F
:103CA0000220C1010391402104910421CDE90801C2
:103CB00000905521CDE90A1007900C900D906846B0
:103CC000FEF7B6FA08B172B6FEE70F200E90032099
:103CD0000F90002010901190129004210EA8FEF772
:103CE0005FF9002801D072B6FEE713B000BD0000F6
:103CF0000248016841F470010160704788ED00E0FE
:103D000010B50446D0ED090A90ED0B1A09480221BE
:103D100030EE410A90ED001A04F12C0002F0B6FDDD
:103D200084ED0C0AD4ED0B0A30EE800A84ED0B0A08
:103D300010BD0000CC0000202DE9F0430268264BA6
:103D4000264D274E274C4FF08049984207D04845D2
:103D500005D0A84203D0B04201D0A04203D122F046
:103D600070074A683A43204FDFF880C0DFF8808050
:103D700098420DD048450BD0A84209D0B04207D098
:103D8000A04205D0B84203D0604501D0404503D1E0
:103D900022F44075CA682A434D6922F080022A4302
:103DA00002608A68C2620A688262984207D0A042B2
:103DB00005D0B84203D0604501D0404501D1096922
:103DC0000163012141610169C90703D0016921F043
:103DD00001010161BDE8F083002C014000040040B6
:103DE0000008004000340140004001400044014010
:103DF0000048014010B501F01F030121046A9940F9
:103E00008C430462016A9A401143016210BD10B5EF
:103E1000846842EA032224F47F440A4322438260F6
:103E200010BD00008268034B1A400A4342F00701AC
:103E3000816070478FFFCFFF2DE9F043056A026A6A
:103E400022F001020262436882691C4C25F00205DF
:103E500022400C6822F0030214438A68194E2A4358
:103E6000174D194FDFF864C0DFF86490A84207D0FF
:103E7000B04205D0B84203D0604501D0484506D1D4
:103E800022F00808CA6842EA080222F00402A842A6
:103E900007D0B04205D0B84203D0604501D04845B4
:103EA00005D14D6923F440731D438B692B43436057
:103EB0008461496841630262BDE8F0838FFFFEFFC1
:103EC000002C01400034014000400140004401400A
:103ED00000480140F0B5056A026A22F01002026251
:103EE00042688369194C1B4E23400C6823F44073CD
:103EF00043EA042425F020038D6843EA0513144D9A
:103F0000A84201D0B04206D1CF6823F0800343EA33
:103F1000071323F04003A8420AD0B04208D00E4D48
:103F2000A84205D00D4DA84202D00D4DA84207D1A0
:103F30004D6922F4406242EA85028D6942EA8502B7
:103F400042608461496881630362F0BDFF8FFFFEB8
:103F5000002C014000340140004001400044014079
:103F600000480140F0B5056A026A22F480720262DC
:103F70004368C269194C1B4E22400C6822F00302B0
:103F8000144325F400728D6842EA0522144DA842BC
:103F900001D0B04206D1CF6822F4006242EA072283
:103FA00022F48062A8420AD0B04208D00E4DA84246
:103FB00005D00E4DA84202D00D4DA84207D14D6943
:103FC00023F4405343EA05138D6943EA0513436024
:103FD000C4614968C1630262F0BD00008FFFFEFF4B
:103FE000002C0140003401400040014000440140E9
:103FF00000480140F0B5056A026A22F4805202626C
:104000004268C369194C1B4E23400C6823F440736B
:1040100043EA042425F400538D6843EA0533144D24
:10402000A84201D0B04206D1CF6823F4004343EA4E
:10403000073323F48043A8420AD0B04208D00E4D83
:10404000A84205D00D4DA84202D00D4DA84207D17F
:104050004D6922F4404242EA85128D6942EA851296
:104060004260C461496801640362F0BDFF8FFFFED6
:10407000002C014000340140004001400044014058
:104080000048014030B5056A026A22F480320262BB
:104090004268036D114C23400C681C4325F4003327
:1040A0000D8943EA05430E4DA8420BD00D4DA842A1
:1040B00008D00D4DA84205D00C4DA84202D00C4DA1
:1040C000A84204D14D6922F4803242EA05224260BE
:1040D000046549688164036230BD00008FFFFEFF04
:1040E000002C0140003401400040014000440140E8
:1040F0000048014030B5046A026A22F4801202626C
:104100004268036D114D24F400142B400D6843EAFE
:1041100005230D8944EA05540D4DA8420BD00D4DE1
:10412000A84208D00C4DA84205D00C4DA84202D0A0
:104130000B4DA84204D14D6922F4802242EA852227
:10414000426003654968C164046230BDFF8FFFFEB1
:10415000002C014000340140004001400044014077
:104160000048014010B5036A046A24F001040462A7
:10417000846924F0F00444EA021423F00A020A439A
:104180008461026210BD10B5036A046A24F0100451
:104190000462846923F0A00324F4704444EA0232E8
:1041A00043EA01118261016210BD000030B5416E29
:1041B000B9B1026891689268C1F342610B4B520F2A
:1041C0009C5CE50003F10804A25CB5FBF2F2A0F8E8
:1041D0006A205A5C615CD200B2FBF1F1A0F8681071
:1041E00030BD0121A0F86A10F8E70000626C0008F9
:1041F00090F82810090706D501684A68836B22F4F5
:1042000000421A434A6090F82810C90706D0016896
:104210004A68C36A22F400321A434A6090F82810B0
:10422000890706D501684A68036B22F480321A4375
:104230004A6090F82810490706D501684A68436B20
:1042400022F480221A434A6090F82810C90606D545
:1042500001688A68C36B22F480521A438A6090F81E
:104260002810890606D501688A68036C22F400527A
:104270001A438A6090F82810490611D501684A68E7
:10428000436C22F480121A434A60416CB1F5801FDE
:1042900006D101684A68836C22F4C0021A434A605E
:1042A00090F82810090606D501684A68C06C22F407
:1042B000002202434A6070472DE9F8430026044675
:1042C000C0F89060FDF738FC8046206800684FF029
:1042D000200500076FF07E4713D5434600222904CE
:1042E0002046009700F0A2F958B1216851E8000F6C
:1042F00020F0800041E80002002AF6D1C4F888507E
:1043000021E020680068400722D5434600224FF490
:1043100080012046009700F089F9C8B1216851E872
:10432000000F20F4907041E80002002AF6D12068C6
:10433000083050E8001F21F0010140E80012002A77
:10434000F5D1C4F88C5084F884600320BDE8F8836C
:10435000C4F88850C4F88C5044F86C6F66602676B8
:104360000020F3E710B5026852E8001F21F49071B5
:1043700042E80013002BF6D10E4B0268083252E8D7
:10438000001F194042E80014002CF6D1C16E01292B
:1043900008D1016851E8002F22F0100241E8002303
:1043A000002BF6D12021C0F88C100021C166416796
:1043B00010BD0000FEFFFFEF2DE9F041044601684B
:1043C00080682269E3691043626900251A4310433B
:1043D000DFF82CC20A688B4B1A4002430A6020683F
:1043E0004168E26821F44051114341602168A069AD
:1043F000614501D0226A10438A68834B1A40024308
:104400008A602068C16A626A21F00F011143C162AB
:104410007E4923687E488B420DD1D0F8880010F089
:10442000030006D0012855D0022842D003283FD1EE
:1044300052E001203DE077498B420BD1D0F8880053
:1044400010F00C0035D0042833D0082840D00C28B8
:104450002ED141E070498B420BD1D0F8880010F08A
:10446000300026D0102835D0202831D030281FD158
:1044700032E06A498B420BD1D0F8880010F0C000BE
:1044800017D0402826D0802822D0C02810D123E081
:1044900063450DD1D0F8880010F4406009D0B0F524
:1044A000806F17D0B0F5006F12D0B0F5406F13D009
:1044B00010205B495B4F00264FF4004263453BD11F
:1044C00060B1022813D004280BD0082872D10DE067
:1044D0000220EEE70420ECE70820EAE7FDF74EFEB5
:1044E00001E0FDF76FFE010001D17CE01146606A3A
:1044F00037F810206768B1FBF2F007EB47038342FF
:1045000070D8B0EB073F6DD8002308461946FBF77B
:104510007FFE090241EA1061020278081018714119
:104520003A460023FBF774FE3F4AA0F540719142E2
:1045300058D82168C86056E0E3694FF6EF78934297
:104540002CD109284ED2DFE800F00508114D0D4DA1
:104550004D4D1000FDF712FE01E0FDF721FE0100B8
:1045600004D140E0FDF72EFEF9E71146606A37F806
:104570001000B1FBF0F04100606801EB5001B1FBAD
:10458000F0F0A0F1100141452CD84FF6F071014038
:10459000C0F3420001432068C16024E0092821D211
:1045A000DFE800F0050912200E2020201100FDF7A1
:1045B000E5FD02E016E0FDF7F3FD010004D112E095
:1045C000FDF700FEF9E71146606A37F81000B1FB0D
:1045D000F0F1606801EB5001B1FBF0F0A0F11001C7
:1045E00041450AD901250120A4F86A0024F8680F82
:1045F0002846E6602661BDE8F08180B299E70000B8
:1046000000800040F369FFCFFFF4FF110038014044
:10461000001002400044004000480040004C0040B0
:104620000024F4004A6C0008FFFC0F002DE9F0475D
:10463000994617460D4604464FF00008089E33E0A1
:10464000701C31D0FDF778FAA0EB0900B04218D801
:10465000BEB120680168490726D5802D24D0402DA1
:1046600022D0C169C94309070DD408250562204637
:10467000FFF778FEC4F8905084F884800120BDE8EC
:10468000F0870320FBE7C069C04300050CD4216814
:104690004FF4006008622046FFF764FE2020C4F853
:1046A000900084F88480ECE72068C06935EA000057
:1046B00004D00020B842C3D00020E0E70120F9E791
:1046C000FEE700000FB4054B10B503A9044A029899
:1046D00001F0C2FC10BC5DF814FB0000156A000874
:1046E000D800002003B401984100009850EAC1208E
:1046F00018BF04204A0D18BF40F0010040F2FF72BD
:10470000B2EB515F08BF40F00200012808BF05204E
:1047100002B070470907090E002804DB00F1E02011
:1047200080F80014704700F00F0000F1E02080F8DE
:10473000141D70470000000010B52F499FED2C1B81
:104740002DED020B84B0059820F000408842D8BFC0
:104750009DED040B2DDD2949884209D1049840B90B
:104760004FF0010001F0B0FB01F06EFB06B010BD90
:1047700005DB9DED040B01F053FB06B010BD684650
:104780009DED040B00F04CFF10F0030004BF9DED05
:10479000021B9DED000B0CD001280ED09DED021BDD
:1047A0009DED000B022817D0012001F089FA06B018
:1047B00010BD01F051F906B010BD9DED021B9DED3D
:1047C000000B012001F07CFA51EC100B81F000414C
:1047D00006B041EC100B10BD01F03EF951EC100B8E
:1047E00081F0004106B041EC100B10BD000000004C
:1047F0000000000000000000FB21E93F0000F07F06
:1048000010B52DED040B86B09DED060B10EE100AD1
:1048100010EE901A8DED000B002818BF0120084300
:1048200020F00040C0F17F6000F1E040C00F21D1D6
:104830009DED080B10EE101A10EE900A8DED000B96
:10484000002918BF0121084320F00040C0F17F601B
:1048500000F1E040C00F0DD129490798B1EB400F9E
:1048600004BF0698002842D00998400004BF089869
:1048700000283CD09DED080B53EC102B9DED060B52
:1048800051EC100BFCF71FF8CDE902019DED020B76
:1048900040F2FF7110EE900A8DED000B31EA1050DE
:1048A00021D00798039900F0004001F000418842B0
:1048B00019D09DED080B8DED040B9DED020B8DEDD8
:1048C000000B10EE900A059961F31E0005909DED16
:1048D000041B9DED020B51EC110B53EC102BFBF75D
:1048E0007EFDCDE902019DED020B0AB010BD012055
:1048F00001F0EAFA0AB0BDE8104001F0A5BA0000E4
:104900000000E0FF000000002DE9F04D2DED040B4C
:104910002DED0E8B96B0DDE92550279CDDF890A09B
:1049200025F0004624F00048BAF1000F14BF012121
:10493000002101EB4502FC4953184A1093422AD347
:10494000002814BF0123002303EB44030B44F74961
:104950008B4220D358EA00019FEDF59B76D0DFF81B
:10496000D8B35D4503D1BAF1000F05D188E0BAF1A3
:10497000000F08BF002100D0012101EB450111F516
:10498000001F08D8002814BF0121002101EB4401B9
:1049900011F5001F0BD99DED261B9DED240B16B0C4
:1049A000BDEC0E8B04B0BDE8F04D01F043BA00271A
:1049B000002DBCBFE149884521DAE1498845A8BFFF
:1049C00002271CDAC3451ADCDE4901EB2851142901
:1049D00008DDC1F1340220FA02F101FA02F282424A
:1049E0000DD108E058B9C1F1140228FA02F101FA18
:1049F00002F2424503D101F00101C1F1020756EA7A
:104A00000A0124D1002C22DA002D18BF022F01D078
:104A1000012F0AD0022001F057FA16B0BDEC0E8B20
:104A200004B0BDE8F04D01F0E3B9022001F04CFA0A
:104A300001F0DEF951EC100B81F0004141EC100B5C
:104A400016B0BDEC0E8B04B0BDE8F08D18E09FED04
:104A5000BEAB9FEDBF8B002871D1B848804522D1F5
:104A600005F1804010F5801008BFBAF1000F07D0A3
:104A7000B3450ADC002CA8BF9DED260BE0DA0DE063
:104A8000B0EE490AF0EE690ADAE7002C06DA9DED8D
:104A9000260B51EC100B81F000416FE0AE487844DA
:104AA00090ED000BCCE7D8454DD1002C48DA2EB163
:104AB00086423AD1BAF1000F42D126E0BAF1000F96
:104AC00013D0022001F000FA01F0CEF98DED020BB7
:104AD0009DED240B8DED000B10EE900A039961F310
:104AE0001E0003909DED020BAAE78DED02AB9DED3C
:104AF000240B1AEE901A10EE900A8DED000B61F364
:104B00001E0003909DED020B9AE78DED028B9DED4B
:104B1000240B18EE901A10EE900A8DED000B61F345
:104B20001E0003909DED020B8AE709DA9DED240B30
:104B300051EC190B53EC102BFBF7C6FC1EE020E0E8
:104B40009DED240B7CE786421BDAB4F1804F0DD03B
:104B5000A4F10050B0F1FF5013D1002D11DB9DEDF9
:104B6000240B51EC100B02F039F807E09DED240BFB
:104B700053EC102B51EC100B00F0C2BC41EC100BAD
:104B80005EE79DED240B51EC100B01F0FCFDBAF13A
:104B9000000FCDE90E0142D19FED710B46B3A6F196
:104BA000E040B0F17F600CD05E4538D1002D00DAD6
:104BB000A7B3022F0CBF01204FF0FF30FBF7F3FC2F
:104BC000DCE7002D01DD002C0DDA002D01DD002CCD
:104BD0001FDB002D16DA002C14DB012F08BF9FED20
:104BE000620B3FF42DAFB0EE4A0AF0EE6A0A27E7F7
:104BF000022F18BF002D0CD0012F0AD1002DFFF677
:104C00001FAF06E0002DB8BF002C08DA012F3FF4DB
:104C100017AFB0EE480AF0EE680A11E71BE001207A
:104C200000EBE57050EA070115D0791EB0EE498A15
:104C3000F0EE698A084308BF9FED4D8B4E48002572
:104C4000804570DD4D494E48884514DDB0420DDB8E
:104C5000002C19DB2FE0012001F036F916B0BDEC75
:104C60000E8B04B0BDE8F04D01F0EEB8B34502DCA8
:104C7000002C09DC1FE0864202DA002C1BDA03E07C
:104C80005E452BDD002C16DD022001F01DF901F040
:104C9000EBF88DED020B53EC1A2B51EC180BFBF7D4
:104CA000A1FBCDE900010399019861F31E00039077
:104CB0009DED020BC4E6022001F006F901F0E4F8D4
:104CC00010EE901A18EE900A8DED020B8DED008B10
:104CD00061F31E0003909DED020BB1E69DED0E0BFE
:104CE00053EC192B51EC100BFBF776FB9FED260BC9
:104CF000CDE9080153EC102B9DED080B51EC100B86
:104D0000FBF770FB9FED221B53EC112BFBF767FBAE
:104D10009DED081B53EC112BFBF764FB9FED1E1B55
:104D200053EC112B3CE08CE0FFFF1F00FFFF0F0056
:104D3000000000000000F03F0000F03F0000F07FA6
:104D40000000404301FCFFFF000000000000F07F76
:104D50000000000000000000A6220000000000008B
:104D60000000000000000080000000000000F0FFD4
:104D7000000000000000F0BF0000E0410000F04330
:104D8000FFFFEF3F00000000000000000000D03FE8
:104D9000555555555555D53F000000000000E03FE2
:104DA000FBF71DFB9DED080B41EC1A0B53EC102B90
:104DB00051EC100BFBF716FB53EC1A2BFBF712FB15
:104DC00041EC1A0B9FEDFE0B53EC102B9DED080BE5
:104DD00051EC100BFBF706FB41EC1B0B9FEDFA0BA4
:104DE00051EC1A0B53EC102BFBF7FCFA41EC1A0BAD
:104DF0009FEDF70B53EC102B9DED080B51EC100BB6
:104E0000FBF7F0FA53EC1A2BFBF7E6FA41EC1A0B1E
:104E100051EC1B0B53EC1A2BFBF73DFA0690CDE936
:104E200006519DED060B53EC1B2B51EC100BFBF7C1
:104E3000D3FA53EC1A2BFBF7D2FA41EC100B00F02B
:104E4000A1B90020B6F5801F0EDA9FEDE30B53ECFD
:104E5000102B9DED0E0B51EC100BFBF7C3FACDE9B7
:104E60000E016FF034000E4600EB2650A0F2FF3723
:104E7000C6F31300DA4940F07F6646F04056884298
:104E8000D8BF002408DDD7498142C8BF012403DC14
:104E90000024A6F580167F1CD348784400EBC4009C
:104EA0000F9690ED00CB9DED0E0B53EC1C2B51ECAF
:104EB000100BFBF791FA9DED0E0B41EC1B0B53EC25
:104EC0001C2B51EC100BFBF7E6F941EC100B51ECED
:104ED000190B53EC102BFBF7F7FA41EC1D0B51ECBF
:104EE0001B0B53EC1D2BFBF77DFA41EC1A0BBF4853
:104EF0008DED10AB7844109590ED000B4FF0005005
:104F000040EA660000EB84408DED080B00F50020C0
:104F100009909DED080B53EC1C2B51EC100BFBF78B
:104F20005BFA9DED0E1B53EC112BFBF758FA41EC8D
:104F3000100B53EC102B9DED100B51EC100BFBF7ED
:104F400051FA9DED080B41EC1C0B53EC102B9DED21
:104F5000100B51EC100BFBF745FA53EC1B2BFBF736
:104F60003EFA53EC1C2BFBF737FA53EC1D2BFBF7E7
:104F700039FA41EC1C0B53EC1A2B51EC1A0BFBF7D2
:104F800031FA41EC1B0B9A480621B0EE4B0AF0EEC9
:104F90006B0A784400F018FEB0EE401AF0EE601A8A
:104FA000B0EE41DAF0EE61DA53EC1B2B51EC1B0B47
:104FB000FBF718FA53EC1D2BFBF714FA9DED100BC1
:104FC00041EC1B0B53EC1A2B51EC100BFBF763F964
:104FD00053EC1C2BFBF706FA53EC1B2BFBF75BF98E
:104FE0009DED100B41EC1B0B53EC102B51EC100BF7
:104FF000FBF7F8F941EC1D0B9FED7FEB53EC1E2BFB
:10500000FBF749F953EC1B2BFBF745F90890CDE969
:1050100008519DED080B53EC1E2B51EC100BFBF7C8
:10502000DBF953EC1D2BFBF7D7F953EC1B2BFBF7EC
:10503000D6F99DED080B41EC1D0B53EC102B9DEDAB
:10504000100B51EC100BFBF7CDF941EC1B0B53ECA3
:105050001A2B51EC1D0BFBF7C5F99DED080B41EC2C
:105060001A0B53EC102B51EC1C0BFBF7BBF953EC58
:105070001A2BFBF710F941EC1A0B51EC1B0B53ECFC
:105080001A2BFBF708F90C90CDE90C519DED0C0B98
:1050900053EC1B2B51EC100BFBF79EF953EC1A2B26
:1050A000FBF79DF941EC1B0B9FED550B53EC102BBF
:1050B0009DED0C0B51EC100BFBF794F941EC1A0B26
:1050C0009FED510B51EC1B0B53EC102BFBF78AF9A6
:1050D00041EC1B0B9FED4E0B53EC102B9DED0C0B7D
:1050E00051EC100BFBF77EF953EC1B2BFBF7D3F8BD
:1050F00041EC100B4848784400EBC40090ED001BD5
:1051000051EC100B53EC112BFBF7C5F841EC1B0BCA
:105110003846FBF748FACDE9080153EC1B2B51EC5C
:105120001A0BFBF7B8F841EC100B3C48784400EB45
:10513000C40090ED00CB51EC100B53EC1C2BFBF793
:10514000AAF89DED081B53EC112BFBF7A4F8069071
:10515000CDE906519DED080B53EC102B9DED060B90
:1051600051EC100BFBF738F953EC1C2BFBF734F91F
:1051700053EC1A2BFBF730F953EC1B2BFBF72FF9F1
:1051800041EC100B9DED261B53EC102B8DED001BFD
:1051900000959DED260B51EC100BFBF723F99DEDCF
:1051A000000B41EC1A0B53EC102B9DED260B51EC30
:1051B000100BFBF711F99DED061B53EC112B2FE0A3
:1051C000000000604715F73FFE822B654715F73F4B
:1051D00044DF5DF80BAE543E000000000000404389
:1051E0008E9803007AB60B00F21D0000501E0000DE
:1051F0002A1D000000000000000000000000084020
:10520000000000E009C7EE3FFD033ADC09C7EE3FAE
:10521000F5015B14E02F3EBEB61B0000701B0000C2
:10522000FBF7E0F853EC1A2BFBF735F89DED060B76
:1052300041EC1A0B53EC102B9DED000B51EC100BB5
:10524000FBF7D0F8CDE90C019DED0C0B51EC1A0BDE
:1052500053EC102BFBF71FF8CDE902010C46AA49CD
:105260008C422FDB611A084318D19DED0C0B53ECD7
:10527000102B9DED020B51EC100BFBF7ADF841EC40
:105280001B0B9FEDA30B51EC1A0B53EC102BFBF7F0
:1052900002F853EC1B2BFBF771FB2DD2022000F020
:1052A00013FE00F0E1FD10EE901A18EE900A8DED5D
:1052B000020B8DED008B61F31E0003909DED020B40
:1052C000FFF7BEBB944A24F00041914214D39349A6
:1052D000214408437FF4EFAC9DED0C0B53EC102BF5
:1052E0009DED020B51EC100BFBF776F853EC1A2BEB
:1052F000FBF744FB7FF6DFAC24F000408849894A85
:10530000002601EB205182422BDA481C4FF4801119
:1053100021FA00F02044844AC0F30A517A44A1F2F1
:10532000FF3192ED000B814A8DED080BCA4020EA57
:105330000202C0F3130040F48010C1F1140120FAFE
:1053400001F60992002CB8BF76429DED080B53EC94
:10535000102B9DED0C0B51EC100BFBF73DF8CDE93C
:105360000C019DED0C0B51EC1A0B53EC102BFAF7C2
:1053700092FF9FED6F0B0890CDE9085153EC102B75
:105380009DED080B51EC100BFBF72CF841EC1B0BBF
:105390009FED690B53EC102B9DED080B51EC100B9E
:1053A000FBF720F89DED0C0B41EC1C0B53EC102B84
:1053B0009DED080B51EC100BFBF70EF853EC1A2B7C
:1053C000FBF70DF89FED5E1B53EC112BFBF70AF872
:1053D00053EC1C2BFAF75FFF41EC1A0B51EC1B0B43
:1053E00053EC1A2BFAF757FFCDE902019DED020BA2
:1053F00053EC1B2B51EC100BFAF7EEFF53EC1A2B6E
:10540000FAF7EDFF9DED020B41EC1A0B53EC102B5C
:1054100051EC100BFAF7E6FFCDE908014A489DED83
:10542000080B0521784400F0CFFB9DED081B51ECE3
:10543000100B53EC112BFAF7D5FF9DED021B53EC2B
:10544000112BFAF7CCFFCDE906019DED020B53ECD1
:105450001A2B51EC100BFAF7C5FF53EC1A2BFAF785
:105460001AFF9FED3B0B41EC1A0B53EC102B9DEDFB
:10547000060B51EC100BFAF7AFFF9DED060B41EC5C
:105480001B0B53EC102B9DED020B51EC100BFAF79C
:10549000A9FF53EC1B2BFBF717F853EC1A2BFAF769
:1054A0009BFF9DED021B53EC112BFAF795FF53EC7C
:1054B000192BFAF794FFCDE9020101EB0650011513
:1054C0000029C8BF039015DC9DED020B324651EC5C
:1054D000100BFBF790F9FFF705F9042808BF00F05F
:1054E000D3FC32469DED020B51EC100BFBF783F918
:1054F000CDE902019DED020B51EC180B53EC102B82
:10550000FAF770FFFFF73ABB000090400000000080
:10551000FE822B654715973C00CC904000346F3FCE
:1055200001FCFFFF0000E03F281A0000FFFF0F0012
:1055300000000000432EE63F396CA80C615C20BEE1
:10554000EF39FAFE422EE63FC818000000000000C6
:10555000000000000000004010B52F499FED2C1BFB
:105560002DED020B84B0059820F000408842DCBF8E
:1055700000209DED040B32DD2849884209D10498B2
:1055800040B94FF0010000F09FFC00F05DFC06B058
:1055900010BD05DB9DED040B00F042FC06B010BD14
:1055A00068469DED040B00F03BF810F0030011D0AD
:1055B000012818D09DED021B9DED000B02281AD08A
:1055C00000F04AFA51EC100B81F0004106B041ECBA
:1055D000100B10BD9DED021B9DED000B012000F096
:1055E0006FFB06B010BD9DED021B9DED000B00F0A2
:1055F00033FA06B010BD012000F062FB51EC100B35
:1056000081F0004106B041EC100B10BD000000001D
:105610000000000000000000FB21E93F0000F07FD7
:105620002DE9F14F04462DED020B2DED088B8AB0CC
:105630009FEDE70B80ED020B139EE74826F0004537
:1056400085420ADC9DED120B002084ED000B0AB0B0
:10565000BDEC088B03B0BDE8F08FE0489FEDE0ABF8
:105660009FEDE1BBA84247DDE14F9FEDE39B9FED3E
:10567000E48B9DED120B53EC1A2B51EC100B002E0A
:105680001CDDFAF7A9FE41EC100BBD4208D053EC2B
:105690001B2B51EC100BFAF79FFEC4E900010BE045
:1056A00053EC192B51EC100BFAF796FE53EC182B18
:1056B000FAF792FEC4E900010120C8E7FAF7EBFD12
:1056C00041EC100BBD4208D053EC1B2B51EC100BDE
:1056D000FAF7E1FDC4E900010BE053EC192B51ECA2
:1056E000100BFAF7D8FD53EC182BFAF7D4FDC4E9E8
:1056F00000014FF0FF30AAE7C348A84279DB9DEDD7
:10570000120B51EC100B01F03EF841EC180B9FED21
:10571000C00B53EC102BFAF765FE9FEDBF1B53EC4B
:10572000112BFAF7B8FDFBF753F90746FAF73BFFE1
:1057300041EC190B53EC1A2BFAF754FE53EC182BCF
:10574000FAF74DFE41EC180B53EC1B2B51EC190BE7
:10575000FAF748FEDFF8C8A241EC100B4FEA1558E3
:105760000125FA4453EC102B51EC180BFAF734FED8
:10577000032DC4E900013DD0C1F30A5005EB4511EA
:10578000A8EB00001139814234DA0AEB051BB0EEB8
:1057900048AA9BED000BF0EE68AA53EC102B51ECDD
:1057A000190BFAF71FFE41EC1B0B51EC1A0B53ECD3
:1057B0001B2BFAF711FE41EC180B51EC1A0B53ECB2
:1057C000182BFAF709FE53EC1B2BFAF705FE9BED9D
:1057D000020B41EC1A0B53EC102B51EC190BFAF79E
:1057E00001FE53EC1A2BFAF7F7FD41EC100B6D1C80
:1057F000B8E70EE0002EA8BF3846BFF628AF94EDFC
:10580000000B51EC100B81F00041C4E9000178421B
:105810001DE7C6F3130040F4801EC6F30A50A0F241
:10582000F530471100F01F05C5F12000DDF848B044
:1058300008900020069007900520EC467949002D3D
:1058400007EB0002794408BF51F8221009D051F843
:10585000223001EB8201AB404A68089922FA01F13B
:105860001943A1FB0E26A1FB0B131A449A4234BF25
:105870000123002303EB06080CEB8003D3E901A608
:105880000E448E4234BF0121002192448A4411B15A
:10589000924502D903E0924501D2012100E00021A6
:1058A000C3E901A641444CF82010011EA0F10100FB
:1058B000C4DC029800F10050850F0298DDE903670F
:1058C0008000DDF81480FAF76EFE41EC1A0B3046CA
:1058D000FAF77AFE9FED541B53EC112BFAF782FD79
:1058E00041EC1B0B3846FAF76FFE9FED511B53EC52
:1058F000112BFAF777FD41EC180B4046FAF764FEDE
:105900009FED4D1B53EC112BFAF76CFD41EC190B7D
:1059100051EC180B53EC192BFAF7BDFC53EC1B2B75
:10592000FAF7B9FC53EC1A2BFAF7B5FCCDE90801EC
:10593000002008909DED080B53EC1A2B51EC100B36
:10594000FAF74AFD53EC1B2BFAF746FD53EC182BE4
:10595000FAF742FD53EC192BFAF741FD9FED381B86
:1059600053EC112BFAF73EFD9FED370B41EC180B72
:1059700053EC102B9DED080B51EC100BFAF732FD98
:1059800053EC182BFAF787FC9FED310B41EC180B09
:1059900053EC102B9DED080B51EC100BFAF722FD88
:1059A00053EC182BFAF777FC41EC100B139810F01E
:1059B000004F06D06D4251EC100B81F0004141ECDC
:1059C000100B284684ED000B41E6000000000000AB
:1059D0000000000000000000FB21E93F7CD90240EC
:1059E00000004054FB21F93F3163621A61B4D03D9D
:1059F000FB21F93F000000000000601A61B4D03DB7
:105A00007370032E8A19A33BFB213941000000006B
:105A100083C8C96D305FE43F000000000000E03F34
:105A2000EA15000038150000000000000000103EDC
:105A3000000000000000103C000000000000103AD0
:105A4000182D4454FB21F93D3326A611460B113C79
:105A500000000054FB21F93D10B52DED040B2DED98
:105A6000088B82B0B0EE419AF0EE619A0B9820F06C
:105A700000449FED4BABB4F1795F11DA9DED0A0B59
:105A800051EC100BFAF7A4FF002801BFB0EE4A0A50
:105A9000F0EE6A0A02B0BDEC088B04BF04B010BD82
:105AA0009DED0A0B53EC102B51EC100BFAF79AFCFE
:105AB00041EC180B3C480621B0EE480AF0EE680AAB
:105AC000784400F081F853EC182B51EC100BFAF7E6
:105AD00089FC9DED0A0B41EC1B0B53EC192B51EC8F
