:020000040800F2
:10000000180B0020ED0100081F3600089B31000886
:100010001D360008110900086542000800000000B4
:10002000000000000000000000000000513800083F
:10003000F9090008000000003336000853380008B2
:10004000070200080702000807020008070200086C
:10005000070200080702000807020008070200085C
:1000600007020008070200080702000889090008C3
:10007000070200080702000807020008070200083C
:10008000070200080000000007020008070200083D
:10009000070200080702000807020008070200081C
:1000A00007020008D138000807020008070200080C
:1000B00007020008070200080702000807020008FC
:1000C00007020008070200080702000807020008EC
:1000D00007020008070200080702000807020008DC
:1000E00007020008070200080702000807020008CC
:1000F00007020008070200080702000800000000CD
:1001000000000000070200080000000007020008CD
:1001100007020008000000000702000807020008AC
:10012000070200080702000807020008070200088B
:10013000070200080000000000000000070200089D
:10014000070200080702000800000000000000008D
:10015000000000000000000000000000000000009F
:10016000000000000000000000000000070200087E
:10017000070200080000000000000000000000006E
:10018000000000000702000800000000000000005E
:10019000000000000000000000000000000000005F
:1001A000000000000000000007020008070200082D
:1001B000070200080702000807020008000000000C
:1001C000000000000702000800000000000000001E
:1001D0000702000807020008DFF80CD000F06EFBF1
:1001E00000480047594E0008180B00200648804779
:1001F00006480047FEE7FEE7FEE7FEE7FEE7FEE70C
:10020000FEE7FEE7FEE7FEE7C1380008D901000877
:100210002DE9F05F0546002092469B46884606463B
:10022000814640241BE0284641464746224600F0CE
:10023000ACF953465A46C01A914110D3114618469C
:10024000224600F093F92D1A67EB01084F4622462B
:100250000120002100F08AF917EB00094E41201E11
:10026000A4F10104DFDC484631462A464346BDE896
:10027000F09FD2B201E000F8012B491EFBD270477B
:100280000022F6E710B513460A4604461946FFF762
:10029000F0FF204610BD2DE9FE4F804681EA0300A5
:1002A000C00F0C46009021F0004123F00045B8EB50
:1002B0000200A94105D24046214690461C460B4605
:1002C000024623F00040104347D0270DC7F30A0031
:1002D000C3F30A510290401A019040286BDAC3F32D
:1002E000130040F4801B0098924620B10023D2EB0B
:1002F000030A63EB0B0B01985946C0F140025046CC
:1003000000F034F906460D4650465946019A00F071
:100310004CF910EB08006141002487EA115284EA8D
:10032000E7731A4340D0009A62B3019A012A4FEA58
:10033000075215DC001B61EB02014FF0004202EA9C
:100340000752CDE90042001C41F5801132462B4690
:1003500000F083F903B0BDE8F08F40462146F9E78D
:10036000001B61EB0201001C41F5801300185B418A
:100370002018A2F5001747EB030140EAD570B61923
:100380006D4111E06D084FEA360645EAC0754FEA47
:100390000752001B61EB0201001C41F58011490866
:1003A0004FEA30000019514132462B4603B0BDE8F8
:1003B000F04F00F043B90098012240000023D0EB39
:1003C000020263EBE073009821464FEAE074B8EB59
:1003D000000061EB0401E9E783F000435BE781F093
:1003E000004158E72DE9FE4F81EA030404F0004480
:1003F00021F0004100944FF0000B23F0004350EA3D
:1004000001045ED052EA03045BD0C3F30A54C1F383
:100410000A552C44A4F2F3340194A0FB0254C1F316
:10042000130141F48011C3F3130343F4801301FB60
:10043000024400FB034E840A970A44EA815447EAC7
:100440008357A4FB076802958D0A05FB07854FEAD1
:10045000932C04FB0C542705029D4FEA065847EAEB
:100460001637B5EB08056EEB070C870E920E47EAC0
:10047000811742EA8312A7FB0201B6EB0B0164EB82
:1004800000042B0D43EA0C335E1844EB1C50DA4693
:100490005146E7FB0201C5F313044FEA0B3343EA6D
:1004A00014534FEA0432019C43EA0603A4F10C04FE
:1004B0000294009CCDE900B400F0CFF803B0BDE891
:1004C000F08F00200146F9E70EB540F2334102916A
:1004D0000021CDE900110A460B4600F0BEF803B03A
:1004E00000BD00F0004230F000400AD0C10D01F51F
:1004F0006071C0F3160042EA0151C208400711437F
:10050000704700200146704701F0004330B421F0ED
:10051000004150EA010206D00A0DA2F56072C1F353
:100520001301002A02DC30BC00207047440F44EA6B
:10053000C104C100E01830BC00EBC25000F047B865
:1005400030B50B46014600202022012409E021FAA3
:1005500002F59D4205D303FA02F5491B04FA02F5A0
:100560002844151EA2F10102F1DC30BD202A04DB73
:10057000203A00FA02F1002070479140C2F12003B6
:1005800020FA03F3194390407047202A04DB203AF5
:1005900021FA02F00021704721FA02F3D040C2F1A3
:1005A00020029140084319467047202A06DBCB17EA
:1005B000203A41FA02F043EAE07306E041FA02F31E
:1005C000D040C2F1200291400843194670470029EB
:1005D000A8BF7047401C490008BF20F001007047C9
:1005E00010B4B0FA80FC00FA0CF050EA010404BF29
:1005F00010BC704749B1CCF1200421FA04F411FA7F
:100600000CF118BF012121430843A3EB0C01CB1DC2
:100610004FEA00614FEA102042BF002010BC704733
:1006200000EBC35010440029A4BF10BC7047401C0D
:10063000490008BF20F0010010BC704710B5141E1F
:1006400073F1000408DA401C41F1000192185B418B
:100650001A4301D120F0010010BD2DE9F04D924662
:100660009B4611B1B1FA81F202E0B0FA80F2203279
:100670009046FFF77BFF04460F4640EA0A0041EA36
:100680000B0153465A46084313D0114653EA010062
:1006900019D0C8F140025046FFF777FF05460E46D5
:1006A000504659464246FFF761FF084305D00120F6
:1006B00004E020463946BDE8F08D0020054346EAB7
:1006C000E0762C4337430A986305E40AA0EB080060
:1006D0000022FD0A44EA47540A3002D500200146B0
:1006E000E9E7010510196941DDE90845001969418B
:1006F000BDE8F04DA2E72DE9F04D81EA030404F0D6
:10070000004B21F0004514464FF0000A23F0004151
:1007100050EA050220D054EA01021DD0C5F30A5761
:100720000246C5F31303C1F31300C1F30A5640F4A4
:10073000801543F48013A7EB0608101BD64608F279
:10074000FD3873EB050002D308F1010801E09218AF
:100750005B41B8F1000F03DA00200146BDE8F08DDF
:1007600000204FF48011064684460EE0171B73EB01
:10077000050705D3121B63EB050306434CEA010C86
:1007800049084FEA300092185B4150EA0107EDD169
:1007900052EA030012D082EA040083EA050108430A
:1007A00005D0101BAB4106D20122002306E0002237
:1007B0004FF0004302E06FF0010253101AEB060005
:1007C0004CEB085110EB0A0041EB0B01BDE8F04D7A
:1007D000FFF734BF2DE9FE4FC3F30A5701F0004580
:1007E0000024C1F30A56C3F31303C1F3130143F406
:1007F000801312EB020AA64641F48011009543EBE8
:10080000030CA7F1010B16E0B0EB0A0061EB0C0141
:10081000071E71F1000707DA4FF00008D0EB08005F
:1008200085F0004568EB0101171A73EB0107EBD364
:10083000761E001849415E45F6DA50EA010209D0F9
:10084000CDE900E5002213460296FFF706FF03B04C
:10085000BDE8F08F20460099F9E7C1F30A52C1F3D1
:10086000130140F2FF3341F480119A4202DA002072
:100870000146704740F233439A42A2F2334202DC0F
:100880005242FFF782BEFFF771BE000030B5041E72
:1008900071F1000404DB4FF00044404264EB0101BD
:1008A000141E73F1000405DB1C464FF00043524256
:1008B00063EB0403994208BF904230BD064C074DDC
:1008C00006E0E06840F0010394E807009847103420
:1008D000AC42F6D3FFF784FC98510008B8510008E9
:1008E00043F6FE70AFF3008010B540F4804210462E
:1008F00002F096FE012801D142F40042104602F0B7
:10090000BDFE4FF4804002F0B9FEC0F30D0010BDF3
:10091000FEE710EE801AB0EE410A02F069BC00005A
:10092000B5EEC01AF1EE10FA02D89FED140A704726
:1009300070EE601A1249F0EEE12A12EE900A884237
:1009400017DDF5EEC01ADFED0F2AF1EE10FA04D232
:1009500072EEE00A30EE800A08E0F5EEC01AF1EE21
:1009600010FA08DB30EE620A30EE600A80EE012AEF
:1009700001E081EE812AB0EE420A704700000000DB
:100980007CD9A040DB0FC940014800F00BBC00003F
:10099000C40400200D4902688A4201D20C4901E0DA
:1009A0000B492031D2B21423083AB2FBF3F2436C64
:1009B00002F01F0223F003031944816404498031CB
:1009C000C1640121914001657047000008040240A4
:1009D000000802400179074A02EB81024265054A9C
:1009E0004432491E826501F01F0201219140C16518
:1009F00070470000FC080240704772B6FEE7000036
:100A00002DE9F047044690F858009CB00E464FF090
:100A10000009012815D0012084F8580000251795F9
:100A2000189520684FF0A04840450ED1284F0097F8
:100A3000384602F0C1FB8246206802F0BDFB60B17F
:100A40000EE002201CB0BDE8F087E06D40F0200011
:100A5000E06584F858500120F4E7BAF1000F09D09E
:100A6000E06D40F02000E0654FF0010984F8585037
:100A70004846E7E71748326840F61F71002A826847
:100A800022F4604216D094F8383042EA4332736858
:100A90001A438260D8F80820BB6802F0010203F014
:100AA00001031A43E2D1B36832681A4383688B4367
:100AB0001A430BE08260D8F80820BB6802F00102FC
:100AC00003F001031A43D1D182688A438260CDE7E3
:100AD00000010050000300502DE9F84F00270446A4
:100AE000009790F85800DFF8E0930D46B8460128CB
:100AF00011D0012684F85860206802F059FB60B1DB
:100B0000E06D40F02000E0655FF0010784F8588058
:100B10003846BDE8F88F0220FBE7D5E900210C2319
:100B2000206803EA91131844036B01F01F014FF092
:100B30001F0C0CFA01FCC2F3846223EA0C038A4006
:100B400013430363206802F033FB8246206802F0FF
:100B50002BFB5AEA00003CD1AA6829682068B2F150
:100B6000004F37D002F02CFB2068416921F0004192
:100B7000416120686969C268C2F3C10252009140B4
:100B80002A69042A31D000EB82002B68026EDFF85C
:100B90003CC303F0F84302EA0C020B431A4342F051
:100BA0000041016620682A69A96900EB8200026E93
:100BB00022F080720A430266297F2268286901298F
:100BC00010D0002102EB8000026E22F000720A4376
:100BD00002667DE0002202F0F3FA2068416941F0EC
:100BE0000041C5E74FF00071ECE7002102F0D6FAB2
:100BF000400320684FF0000172D002F0CFFA90FA63
:100C0000A0F0B0FA80F1286842036ED090FAA0F00C
:100C1000B0FA80F0814204D100221146206802F02F
:100C2000DEFA0121206802F0B9FA400320684FF093
:100C300001015DD002F0B2FA90FAA0F0B0FA80F1B2
:100C40002868420359D090FAA0F0B0FA80F08142AF
:100C500004D100220121206802F0C1FA022120689B
:100C600002F09CFA400320684FF0020148D002F0E5
:100C700095FA90FAA0F0B0FA80F12868420344D0C7
:100C800090FAA0F0B0FA80F0814204D10022022153
:100C9000206802F0A4FA0321206802F07FFA4003E2
:100CA00020684FF0030133D002F078FA90FAA0F0F8
:100CB000B0FA80F1286842032FD090FAA0F0B0FA81
:100CC00080F0814204D100220321206802F087FADB
:100CD0002068816811F0010F22D0ACE000E004E050
:100CE00002F05CFAC0F384618DE7C0F3846091E7A1
:100CF00002F054FAC0F38461A2E7C0F38460A6E76F
:100D000002F04CFAC0F38461B7E7C0F38460BBE73C
:100D100002F044FAC0F38461CCE7C0F38460D0E70A
:100D20002A7B296850F8B03FC1F3120C23EA0C0368
:100D300002F0180C664A22FA0CF20A4013430360D0
:100D4000E968494577D1286841031CD090FAA0F1A1
:100D5000B1FA81F1491C01F01F0109294FEA403124
:100D600032D8002912D000BF90FAA0F1B1FA81F177
:100D700001F1010101F01F0106FA01F609D100BFDE
:100D8000C0F3846109E0C0F38461E3E7C0F38461E8
:100D9000EEE790FAA0F1B1FA81F101F1010101F061
:100DA0001F0146EA816102D1C0F3846003E090FA3A
:100DB000A0F0B0FA80F000F1010000F01F0000EB9D
:100DC000400041EA005132E000290ED090FAA0F133
:100DD000B1FA81F101F1010101F01F0106FA01F6FA
:100DE00006D100BFC0F3846106E0C0F38461F1E77F
:100DF00090FAA0F1B1FA81F101F1010101F01F01B6
:100E000046EA816102D1C0F3846003E090FAA0F069
:100E1000B0FA80F000F1010000F01F002D4A00EB55
:100E2000400002EB005041EA000141F00071AA6865
:100E3000206802F0C5F928482A6802423FF466AEED
:100E400026488168264B01F0E0719A4202D0254B7A
:100E50009A421CD10B021AD42268B2F1A04F7FF43F
:100E600055AE826841F4000122F0E0720A438260CC
:100E70001D481E490068B0FBF1F0401C00EB40002B
:100E8000800000E0401E00900028FBD13EE6184D97
:100E9000184BAA4207D1CD0105D422689A42F5D059
:100EA00041F0807109E0144DAA42EFD14A02EDD41D
:100EB00022689A42EAD041F48001826822F0E0720E
:100EC0000A43826022E6000000007F4000F0FF033A
:100ED000FFFF0700000020FE000008800003005014
:100EE000000021C31000C0900C000020400D030042
:100EF000000052C700010050000084CB0068006C65
:100F000070470000F8B54FF0000504002E4600952C
:100F100002D0E06D10B107E00120F8BD204600F0DE
:100F2000EBF8266684F8586020688168C1F3407148
:100F300019B18168684A1140816020688168C1F3F5
:100F4000007189B98168654A114041F08051816022
:100F5000634864490068B0FBF1F04000801C00E089
:100F6000401E00900028FBD120688168C1F3007109
:100F700041B9E16D41F01001E165216E41F00101DF
:100F80002166012502F014F9E16DC90600D430B1E3
:100F9000E06D40F01000E06501252846F8BDE06DE9
:100FA00020F4807040F00200E0652068806810F056
:100FB000010F11D14FF0A04080684B4900F00100B3
:100FC000896801F00101084306D1484861688268D8
:100FD00022F47C120A438260E168E06B627F08437E
:100FE000A16841EA4231084394F8241040EA0140E4
:100FF000012904D1218D3E4A02EB41410843E16AB7
:1010000029B101F47871226B014342EA01002268A0
:10101000D168384B19400143D16020680169626B87
:1010200021F0406111430161206802F0BDF870BBFE
:10103000207F94F83810800340EA41022168C86894
:1010400044F2020398431043C860206900282068D6
:1010500001690AD041F480310161206850F8C01F55
:1010600022696FF30D01114307E021F48031016122
:10107000206850F8C01F6FF30D01016094F8400024
:1010800001280CD02068016921F00101016160692B
:1010900001282068016B21F00F0111D013E0D4E981
:1010A00011010843D4E913121143084321680A6966
:1010B00040F2FC739A43104340F001000861E6E7F8
:1010C000226A521E11430163E06D20F0020040F0DD
:1010D0000100E06561E70000C0FFFF5FC0FFFF7F28
:1010E0000C000020400D03000001005000030050E0
:1010F0000000FEFF0740F0FF70B598B005461421D0
:1011000011A8FFF7BDF844216846FFF7B9F8286831
:10111000B0F1A04F3DD14FF40040009080030F90FC
:10112000684600F077FC08B1FFF767FC1A49C86C05
:1011300040F40050C864C86C00F400501690C86CAD
:1011400040F00100C864C86C002600F00100169051
:101150000320CDE91206119011A94FF0904000F044
:1011600031FA0F4C0D4820600520C4E901068020AB
:10117000C4E90360400060618000A0612020C4E9F0
:101180000706204600F06CF808B1FFF736FC6C65E6
:10119000A56218B070BD00000010024008000240B7
:1011A000C4040020F0B4016C0C6801680D6890F86C
:1011B000442002F01F06042202FA06F3234211D053
:1011C0006B070FD50B689B0603D40B6823F0040351
:1011D0000B6090F8441001F01F018A40016C4A60D6
:1011E000016B1DE0022303FA06F727424FF0000CC3
:1011F0004FF0010218D0AF0716D50C68A40605D42D
:101200000C6824F00A040C6080F8252090F8441043
:1012100001F01F018B40016C4B6080F824C0C16A53
:1012200000291AD0F0BC08470823B340234214D049
:101230002B0712D50B6823F00E030B6090F84410B7
:10124000036C01F01F0102FA01F15960C26380F8DA
:10125000252080F824C0416BE2E7F0BC7047000015
:1012600070B504000CD02B4A21681420914209D299
:10127000294A0A44B2FBF0F08000606427480AE083
:10128000012070BD234A52420A44B2FBF0F08000B4
:101290006064204808382064022084F825000A6829
:1012A00047F6F0708243D4E902031843D4E90435C9
:1012B0002B431843A3691843E3691843236A18436F
:1012C000104308602046FFF765FBA0680025B0F5D5
:1012D000804F00D16560A16C20790860D4E91301CA
:1012E00041606068401E032808D82046FFF772FB63
:1012F000606D0560D4E91601416002E06565A56591
:10130000E565E563012084F8250084F82450002079
:1013100070BD000008040240F8FFFDBF000002405D
:1013200070B5044600F078FA0546601C02D0044807
:101330004068044400F070FA401BA042FAD370BD2C
:10134000000000202DE9F041040006D0DFF8E8811C
:1013500094F85C00002518B107E00120BDE8F08199
:1013600084F85D50204600F0EFF82068816921F094
:101370001001816100F050FA0646032705E000BF26
:1013800000F04AFA801B0A2811D8206880690007FB
:10139000F6D42068816941F00101816100F03CFAD6
:1013A00006460BE000F038FA801B0A2806D9206EAA
:1013B00040F00100206684F85C70CEE72068806908
:1013C000C007EFD02068816941F002018161216886
:1013D000414502D1594960680860207C0128206895
:1013E000816937D041F040018161607C012820682B
:1013F000816932D021F480418161A07C012820687C
:1014000081692DD041F48051816120688169A26891
:1014100021F44071114381612068816921F0A401A8
:1014200081612068016921F010010161E0680128F3
:1014300019D010B302281BD02068816941F08001C7
:1014400081612068016941F010010161E0680328B1
:101450000ED012E021F04001C6E741F48041CBE715
:1014600021F48051D0E72068816941F0040103E054
:101470002068816941F020018161207EE269400697
:101480006FF0FF0101EB0222A0F100701043226A0D
:10149000A38A521E10430A0202EB03431843236837
:1014A000D861A068B0F5407F10D1D4E90A0301EB00
:1014B0000321401E0843216B131303EB0111084362
:1014C000A18C02EB014108432168C860206850F8F4
:1014D000C01FE26B1143016019482064216851F874
:1014E000802FA38E22F4F81242EA03420A601449C4
:1014F00070316164216851F8802F94F8383022F0FF
:10150000706242EA03620A600D49B031A1640D497C
:10151000E1640C49D83121650A49F031616500F573
:10152000547120C08842FCD3A5652566012084F84B
:101530005C00002012E700000064004000650040ED
:1015400000A4004088A5004010B598B004461421BE
:1015500011A8FEF795FE44216846FEF791FE174953
:101560002068884228D18014009040030C9068467F
:1015700000F050FA08B1FFF740FA1148816D41F0D0
:1015800000718165816D01F000711691C16C41F0AF
:101590000101C164C06C11A900F0010016904FF464
:1015A000C050119002201290002013901490092036
:1015B0001590C00600F006F818B010BD0064004099
:1015C000001002402DE9F04FDFF8209200230126A1
:1015D0000324A9F1040B85B00F2709F1040AABF12C
:1015E000040EFAE006FA03F52A407CD091F804C014
:1015F0000CF0030CBCF1010F02D0BCF1020F26D19C
:10160000D0F808C0CDF800C04FEA430C04FA0CF83B
:10161000CDF810C0DDF800C02CEA080CCDF800C0F1
:10162000D1F80C80DDF810C008FA0CF8DDF800C025
:1016300048EA0C08C0F80880D0F804C02CEA050C71
:101640000D79C5F300159D4045EA0C0545600D79FF
:10165000ED43AD070ED0C5684FEA430804FA08FC15
:1016600025EA0C05D1F808C00CFA08FC4CEA050C78
:10167000C0F80CC00D7905F00305022D16D1DD0868
:1016800000EB850CCDF808C0DCF820805D074FEA40
:10169000D56C07FA0CF528EA05080D6905FA0CF572
:1016A000DDF808C045EA0805CCF8205005684FEA87
:1016B000430CCDF808C004FA0CFC25EA0C0591F89F
:1016C00004C00CF00308DDF808C008FA0CF848EA7A
:1016D0000508C0F800804D6815F4403F7CD0444DAB
:1016E000D5F860C000E077E04CF0010CC5F860C0B0
:1016F0002D6E23F0030C05F0010500953D4D65446A
:101700000295AD684FEA837C4FEA1C7807FA08FC23
:1017100025EA0C05B0F1904F06D0DFF8DCC060453B
:1017200005D14FF0010C20E04FF0000C1DE0DFF878
:10173000CCC0604502D14FF0020C16E0DFF8C0C00B
:10174000604502D14FF0030C0FE0DFF8B8C06045F0
:1017500002D14FF0040C08E0DFF8ACC0604502D1C4
:101760004FF0050C01E04FF0060C0CFA08FC4CEAB7
:10177000050C029DC5F808C0D9F80050CC46D1F838
:10178000048095435FEAC82800D51543CCF8005083
:10179000DAF80050D446D1F8048095435FEA8828EF
:1017A00000D51543CCF80050DBF80050DC46D1F8EA
:1017B000048095435FEA883800D51543CCF8005083
:1017C000DEF80050F446D1F8048095435FEAC8384B
:1017D00000D51543CCF800505B1C0A6832FA03F5BB
:1017E0007FF400AF05B0BDE8F08F000008040140B1
:1017F00000100240000001400004004800080048BA
:10180000000C004800100048001400480AB1816133
:10181000704781627047000001488068704700008F
:1018200000000020024881684268114481607047CE
:101830000000002010B50024032000F073F80F20F2
:1018400000F008F808B1012401E000F025F8204676
:1018500010BD000070B50E4E05460024706898B1AA
:101860004FF47A71B1FBF0F00A490968B1FBF0F06E
:1018700000F03DFF40B9102D06D200222946501E2F
:1018800000F030F8356000E00124204670BD000013
:10189000000000200C0000200A4882B0016E41F0D8
:1018A00001010166016E01F001010091816D41F0BD
:1018B00080518165806D00F08050009002B000F092
:1018C000A1B8000000100240002809DB00F01F0250
:1018D000012191404009800000F1E020C0F8001192
:1018E00070470000F0B40E4B1B680C46C3F3022394
:1018F000C3F10705042D00D90425191D072901D2BC
:10190000002300E0DB1E012606FA05F1491E2140F6
:1019100099409E40761E16403143F0BC02F0B4BCA4
:101920000CED00E0064900F0070208684FF6FF03DF
:10193000184040EA0220034A104308607047000044
:101940000CED00E00000FA052B492C4B0A6832210F
:101950004A432B4940B1B0F5007F086829D020F4F4
:10196000C06040F480602CE00868C0F34120022889
:1019700004D051F8800F20F4807022E0D1F880006C
:1019800020F48070C1F88000086820F4C06040F442
:1019900000700860B2FBF3F0401C00E0401E4A6992
:1019A000520501D50028F9D1486940050AD5032020
:1019B0007047C0F34120022806D051F8800F40F450
:1019C0008070086000207047D1F8800040F480707B
:1019D000C1F88000086820F4C06040F4007008601E
:1019E000B2FBF3F0401C00E0401E4A695205DBD513
:1019F0000028F9D1D8E700000C00002040420F0079
:101A0000007000400248816841F480418160704765
:101A1000007000402DE9F8430446006800269D4D03
:101A200000035ED5A86D0027C00008D4A86D40F063
:101A30008050A865A86D012700F080500090DFF865
:101A40005892D9F8001041F48071C9F80010FFF7DE
:101A5000E3FE804606E000BFFFF7DEFEA0EB0800D5
:101A600002282BD8D9F80000C005F5D5D5F890008C
:101A700010F4407014D0216C814211D0D5F8900040
:101A8000D5F8901020F4407041F48031C5F89010E2
:101A9000D5F8901021F48031C5F89010C5F8900069
:101AA000C00711D0FFF7B8FE804641F2883907E041
:101AB000FFF7B2FEA0EB0801494501D903260BE070
:101AC000D5F890008007F3D5D5F89000216C20F46C
:101AD00040700843C5F890001FB1A86D20F08050F9
:101AE000A8652078C00707D0D5F88800616820F085
:101AF00003000843C5F888002078800707D5D5F88B
:101B00008800A16820F00C000843C5F88800207800
:101B1000400707D5D5F88800E16820F03000084379
:101B2000C5F888002078000707D5D5F88800216916
:101B300020F0C0000843C5F888002078800607D54B
:101B4000D5F88800616920F440600843C5F8880032
:101B50002078400607D5D5F88800A16920F44050C8
:101B60000843C5F888002078000607D5D5F8880016
:101B7000E16920F440400843C5F888002088C0058A
:101B800007D5D5F88800216A20F440300843C5F80D
:101B900088002088800507D5D5F88800616A20F480
:101BA00040200843C5F88800208840050FD5D5F8A7
:101BB0008800A16A20F440100843C5F88800A06A94
:101BC000B0F5801F03D1E86840F48010E8602088F9
:101BD00000050FD5D5F88800E16A20F440000843DD
:101BE000C5F88800E06AB0F5800F03D1E86840F4DA
:101BF0008010E8602088C0040FD5D5F88800216BDC
:101C000020F040700843C5F88800206BB0F1807F59
:101C100003D1E86840F48010E86020884FF000614C
:101C200080040ED5D5F88800626B20F04060104328
:101C3000C5F88800606B884203D1E86840F48010E2
:101C4000E860208840040ED5D5F88800A26B20F00B
:101C500040601043C5F88800A06B884203D1E86853
:101C600040F48010E860208800040FD5D5F8880083
:101C7000E16B20F040500843C5F88800E06BB0F1FC
:101C8000805F03D1E86840F48030E8603046BDE80A
:101C9000F883000000100240007000402DE9F0477A
:101CA0000E4605004FF0000725D0DFF8AC81D8F8CC
:101CB000000000F00F00B0420CD2D8F8001021F064
:101CC0000F013143C8F80010D8F8000000F00F00F1
:101CD000B04210D12968614CC80741F2883A5AD005
:101CE0006868DFF87C91032808D0022820682DD08E
:101CF000400500282CDB0120BDE8F087206880012A
:101D0000F9D5E06800F00302E068C0F30310401C5E
:101D1000032A19D0534A00BFB2FBF0F0E268C2F3C5
:101D200006225043E268C2F34162521C5200B0FBEB
:101D3000F2F0484517D9A06810F0F00F0CD08807D2
:101D400011D5A86840B10EE0474AE5E78003D0E727
:101D500000F0B6F8484506D9A06820F0F00040F041
:101D60008000A0608027A068696820F00300084315
:101D7000A060FFF751FD814606E000BFFFF74CFD74
:101D8000A0EB090151453AD8A068696800F00C0041
:101D9000B0EB810FF2D12868810714D5400703D535
:101DA000A06840F4E060A0602878000705D5A0682E
:101DB00020F4605040F4E060A060A068A96820F0C2
:101DC000F000084304E0802F03D1A06820F0F00069
:101DD000A060D8F80010404601F00F01B14216D9BA
:101DE000016821F00F0131430160FFF715FD07463F
:101DF00007E000BFFFF710FDC11B514501D90320CB
:101E00007AE7D8F8000000F00F00B042F2D128784D
:101E1000400705D5A068E96820F4E0600843A060A9
:101E20002878000706D5A068296920F4605040EAA8
:101E3000C100A06000F044F8A1680C4AC1F303118E
:101E4000515C01F01F01C840094908600948006859
:101E5000BDE8F047FFF7FEBC002002400010024042
:101E600000B4C4040024F40000127A008051000879
:101E70000C00002000000020054806490068896821
:101E8000054AC1F30221515C01F01F01C8407047AF
:101E90000C0000200010024090510008054806493F
:101EA00000688968054AC1F3C221515C01F01F0135
:101EB000C84070470C0000200010024090510008FC
:101EC000184910B58868C0F381021748012A0BD061
:101ED0008A684310C2F38102022A06D08A68C2F3DC
:101EE0008102032A03D0002010BD184610BDCA6825
:101EF00002F00304CA68C2F30312521C032C02D07E
:101F0000B0FBF2F001E0B3FBF2F0CA68C968C2F3BB
:101F100006225043C1F34161491C4900B0FBF1F076
:101F200010BD0000001002400024F4002DE9F84329
:101F300004007AD02078F84DC00747D0A868E96837
:101F400000F00C0001F003010C2802D0082817D083
:101F500001E0032914D06068B0F5803F17D0B0F5D8
:101F6000A02F286817D020F480302860286820F43B
:101F7000802028606068E0B1FFF74EFC064614E060
:101F80002868800322D560680028D2D01EE0286827
:101F900040F48030EDE740F480202860F7E700BF90
:101FA000FFF73AFC801B642870D828688003F7D5B7
:101FB0000CE0FFF731FC064605E000BFFFF72CFC04
:101FC000801B6428F0D828688003F7D42078800725
:101FD0004CD5A868E96800F00C0001F003010C285A
:101FE00002D004280DD001E002290AD0E0680028C0
:101FF00028682BD040F480702860FFF70DFC06465F
:1020000019E02868400502D5E068002891D068688A
:10201000217C20F0FE4040EA01606860BF48006813
:10202000FFF718FC002800D120E072E1FFF7F4FB75
:10203000801B0228B8D828684005F7D56868217C3D
:1020400020F0FE4040EA016068600FE020F48070FC
:102050002860FFF7E1FB064605E000BFFFF7DCFB69
:10206000801B0228A0D828684005F7D420780007F4
:1020700029D560690028D5F8940013D040F00100FC
:10208000C5F89400FFF7C8FB064606E090E000BFE5
:10209000FFF7C2FB801B022886D8D5F89400800782
:1020A000F6D510E020F00100C5F89400FFF7B4FB6E
:1020B000064604E0FFF7B0FB801B022878D8D5F86D
:1020C00094008007F6D42078400761D5A86D0026DB
:1020D000C00008D4A86D40F08050A865A86D012606
:1020E00000F0805000908E480168C90511D4016845
:1020F000804641F480710160FFF78EFB074604E0E3
:10210000FFF78AFBC01B022852D8D8F80000C00590
:10211000F6D5A068012815D00528D5F8900016D06E
:1021200020F00100C5F89000D5F8900020F00400E0
:10213000C5F89000A06841F28838B8B1FFF76CFB91
:1021400007460EE0D5F8900040F00100F0E740F0BF
:102150000400C5F89000F5E7FFF75EFBC11B4145A1
:1021600026D8D5F890008007F6D50CE0FFF754FB91
:10217000074604E0FFF750FBC11B414518D8D5F8CE
:1021800090008007F6D41EB1A86D20F08050A8659D
:102190002078800629D5A0690028D5F8980013D0AA
:1021A00040F00100C5F89800FFF736FB064606E050
:1021B00075E000BFFFF730FB801B02286FD8D5F811
:1021C00098008007F6D510E020F00100C5F89800CF
:1021D000FFF722FB064604E0FFF71EFB801B0228E8
:1021E0005DD8D5F898008007F6D4E069F0B3A96807
:1021F000C1F3810103295DD00228286820F0807096
:10220000286003D0FFF708FB04464BE0FFF704FB10
:10221000064604E0FFF700FB801B02283FD8286831
:102220008001F7D4F4E908016FF00F0202EB01110D
:102230000843218A5204490802EB4151A26841EA4D
:1022400002210843217D4FF07E42490802EB4161A3
:102250000843217B40EAC160E968324A11400843E3
:10226000E860286840F08070286000E05EE0E86880
:1022700040F08070E860FFF7CFFA044605E000BF49
:10228000FFF7CAFA001B022809D828688001F7D591
:102290004CE000BFFFF7C0FA001B022802D9032060
:1022A000BDE8F88328688001F4D4E8681E49084036
:1022B000E8603BE00128F3D0E868226A00F00301FF
:1022C000914226D1616A00F0F00209011039914271
:1022D0001FD1A26A00F4FE41B1EB022F19D194F88C
:1022E0002C2000F07841B1EBC26F12D1218E00F4A6
:1022F000C00249084905A1F50011914209D194F89D
:10230000341000F0C06049084906A1F10071814213
:102310000CD00120C4E700000010024000000020A3
:10232000007000400C809F01FCFFEEFE0020B7E72C
:1023300070B5040009D0606A002540B1256165616F
:10234000A56294F85D0040B10CE0012070BD6068AA
:10235000B0F5827FF4D0E561F2E784F85C50204666
:1023600000F05CF8022084F85D002068016821F02C
:1023700040010160E1684FF4E062914201D9002020
:1023800001E04FF48050B1F5706F02D0914200D05F
:10239000A562A188228901F4827102F404421143EA
:1023A000227C02F002021143227D02F0010211435D
:1023B000228B02F400721143227F02F03802114393
:1023C00094F8202002F080021143228D02F4005282
:1023D000114322681160A169042202EA114194F8B4
:1023E000242000F4805002F01002114394F83420AD
:1023F00002F008021143A28902F470621143014302
:10240000206841602068C16921F40061C1612566CE
:10241000012084F85D00002070BD000010B586B07A
:10242000044614216846FDF72BFF124920688842B4
:102430001ED11148016E41F480510166016E01F414
:1024400080510591C16C41F00101C164C06C6946C5
:1024500000F001000590E020009002200190002093
:1024600002900390052004904FF09040FFF7AAF8E7
:1024700006B010BD00300140001002402DE9FF5FA2
:102480001D46934604464FF001090E9EFFF7C4F91E
:10249000074694F85D006168012806D0B1F5827F97
:1024A00039D1A168B1BB042835D1019800287CD06E
:1024B000BBF1000FFBD0002DF9D094F85C0001288F
:1024C00029D04FF0010A84F85CA094F85D0004283C
:1024D00002D0052084F85D004FF00008C4F8608049
:1024E000C4F840B0A4F84650A4F844500199A16340
:1024F000E587A587C4F84C80C4F85080E0684FF4A5
:10250000E061884201D8012D09D92068426822F48F
:10251000805208E0FFE7022004B0BDE8F09F206889
:10252000426842F48052426020680268520603D436
:10253000026842F040020260E0688842606846D962
:1025400008B1012D3BD1A06B01882068C160A06B50
:10255000801CA063E08F401EE08730E02068816827
:1025600089070FD5E18F69B1B9F1010F0AD1A16BCC
:102570000988C160A06B801CA063E08F401EE087CB
:102580004FF0000920688168C90711D0B4F84610DF
:1025900071B1C068216C0880206C801C2064B4F884
:1025A0004600401EA4F8460000E09EE04FF00109FE
:1025B000FFF732F9C01BB04201D3701C74D1E08F19
:1025C0000028CBD1B4F846000028C7D175E008B187
:1025D000012D6BD1E08F0128A06B08D921680088FC
:1025E000C860A06B801CA063E08F801E07E021689C
:1025F00000780873A06B401CA063E08F401EE0874A
:1026000054E02068816889071AD5E18FC1B1B9F11A
:10261000010F15D1E18F0129A16B07D90988C1608C
:10262000A06B801CA063E08F801E06E00978017318
:10263000A06B401CA063E08F401EE0874FF00009B4
:1026400020688168C90728D0B4F8461029B3B4F8C7
:102650004610012914D9C068216C0880206C801CA8
:102660002064B4F84600801EA4F84600B4F8460082
:10267000012810D82068416841F4805141600AE087
:10268000007B216C0870206C401C2064B4F846006C
:10269000401EA4F846004FF00109FFF7BDF8C01B2B
:1026A000B04202D3701C01D012E08EB1E08F00283E
:1026B000A7D1B4F846000028A3D13A4631462046B7
:1026C00000F0B8FF50B12020206684F85C800CE058
:1026D00084F85DA084F85C8003201DE784F85DA089
:1026E00084F85C80206E0028F7D0012014E710B534
:1026F000401EB0F1807F01D3012010BD4FF0E024D7
:1027000060610F21601701F0BFFD0020A06107206C
:102710002061002010BD70477047704730B590F8B9
:102720003C20012A42D0012280F83C20CA688B68F4
:1027300022F440721A434B6822F480621A430B68F9
:1027400022F400621A430B6922F480521A434B6947
:1027500022F400521A430B6B22F480421A430B8B73
:1027600022F4702242EA0342CB6922F080521A43DB
:102770000F4D03680024AB4202D00E4DAB4210D186
:102780000D8D22F4700242EA05520D6A22F0807229
:102790002A434D6A22F000722A43C96A22F000528D
:1027A0000A435A6480F83C40002030BD022030BD0E
:1027B000002C014000340140704770477047000012
:1027C000F0B590F83C20012A3AD0012580F83C5021
:1027D000022280F83D2003685A689C68194E1A4FFF
:1027E000B34201D0BB4204D122F4700C4A6842EAE1
:1027F0000C02DFF858C002EA0C02D1F800C04CEA23
:10280000020CC3F804C00268B2420DD0B2F1804F8E
:102810000AD00F4B9A4207D00E4B9A4204D0BA42CC
:1028200002D00D4B9A4204D1896824F080031943E9
:10283000916080F83D50002180F83C100846F0BDC2
:102840000220F0BD002C0140003401408FFFFFFD4D
:10285000000400400008004000400140704710B5EF
:10286000040003D094F83D0010B107E0012010BD32
:10287000002084F83C00204600F022F8022084F872
:102880003D00211D206801F029F8012084F848004E
:1028900084F83E0084F83F0084F8400084F841004A
:1028A00084F8420084F8430084F8440084F845002A
:1028B00084F8460084F8470084F83D00002010BDED
:1028C00008B5114A01681148914211D1016E41F4D5
:1028D00000610166006E002200F400600090114665
:1028E0001920FEF7FFFFBDE808401920FEF7ECBFF6
:1028F000074A914207D1816D41F002018165806DE7
:1029000000F00200009008BD002C014000100240C1
:102910000004004090F83D10012901D001207047CB
:10292000022180F83D1000680F4988420ED0B0F1B6
:10293000804F0BD00D49884208D00D49884205D000
:102940000C49884202D00C49884207D181680B4A61
:102950001140062906D0B1F5803F03D0016841F04F
:102960000101016000207047002C0140000400407C
:102970000008004000340140004001400700010011
:1029800070B5044690F83C000025012814D00126BB
:1029900084F83C60022084F83D0022689068364B41
:1029A000184020F47F409060086870282ED010DC1A
:1029B00010F00F0F03D021E04FF0020070BD4FEA7E
:1029C0002012072A1AD2DFE802F0525252524A3835
:1029D00040002A4BC21A984249D009DCB0F5805F0A
:1029E0000DD0B0F5005F1CD0B0F1101F06D13EE055
:1029F000102A3CD0202A3AD0502A38D0012584F819
:102A00003D60002084F83C00284670BDCB68D1E9C9
:102A10000121206800F0CDFF2068816841F0770136
:102A200009E0CB68D1E90121206800F0C2FF2068ED
:102A3000816841F480418160E1E7CA6849682068A3
:102A400001F062F95021206806E0CA6849682068F0
:102A500001F06BF96021206800F0B6FFCFE7CA688B
:102A60004968206801F050F940212068F4E72268A5
:102A700001461046F0E7000088FFCEFF200010005E
:102A800070472DE9F04104460068C66805694FF0BB
:102A90000007A90713D5B10711D5F91E016101205F
:102AA0002077206880698007204602D0FFF7E8FF82
:102AB00004E000F0E1F8204600F0A3F9277768076A
:102AC00016D5700714D521686FF004000861022044
:102AD00020772068806910F4407F204602D0FFF7FD
:102AE000CFFF04E000F0C8F8204600F08AF927770D
:102AF000280715D5300713D521686FF00800086145
:102B0000042020772068C0698007204602D0FFF7A4
:102B1000B7FF04E000F0B0F8204600F072F9277724
:102B2000E80616D5F00614D521686FF0100008618C
:102B3000082020772068C06910F4407F204602D02A
:102B4000FFF79EFF04E000F097F8204600F059F9E7
:102B50002777E80708D0F00706D021686FF001005A
:102B60000861204600F0CCF9280601D4A80408D555
:102B7000300606D521686FF4025008612046FFF741
:102B8000CBFDE80508D5300606D521686FF48070C6
:102B900008612046FFF7BFFD680608D5700606D518
:102BA00021686FF040000861204600F0AAF9A806ED
:102BB00008D5B00606D521686FF0200008612046D0
:102BC000FFF7ABFDE80208D5F00206D521686FF4E7
:102BD000801008612046FFF7F0FDA80208D5B0027A
:102BE00006D521686FF4001008612046FFF7E4FD68
:102BF000680208D5700206D521686FF4800008616C
:102C00002046FFF7DBFD28020AD5300208D52168EF
:102C10006FF4000008612046BDE8F041FFF71EBEDA
:102C2000BDE8F08110B586B0044614216846FDF772
:102C300027FB0F492068884217D10E48C16C41F02C
:102C40000101C164C06C694600F0010005904FF4B9
:102C5000E060009002200190002002900390062086
:102C600004904FF09040FEF7ADFC06B010BD0000A0
:102C7000002C014000100240704770B5044690F8E7
:102C80003C0000260D4601280BD0012084F83C00B2
:102C90000C2A4AD007DC82B1042A20D0082A06D1A7
:102CA00031E0022070BD102A53D0142A63D00126CF
:102CB000002084F83C00304670BD206800F08EFE95
:102CC0002068816941F0080181612068816921F0F3
:102CD00004018161206881692A69114311E020683B
:102CE00000F0CAFE2068816941F4006181612068BA
:102CF000816921F480618161206881692A6941EAE2
:102D000002218161D4E7206800F0FEFE2068C169DD
:102D100041F00801C1612068C16921F00401C1616D
:102D20002068C1692A69114311E0206800F034FF6E
:102D30002068C16941F40061C1612068C16921F462
:102D40008061C1612068C1692A6941EA0221C161CB
:102D5000AEE7206800F068FF2068016D41F00801CF
:102D600001652068016D21F0040101652068016D95
:102D70002A69114311E0206800F08EFF2068016D80
:102D800041F4006101652068016D21F480610165F5
:102D90002068016D2A6941EA0221016588E710B5C2
:102DA000040003D094F83D0010B107E0012010BDED
:102DB000002084F83C00204600F022F8022084F82D
:102DC0003D00211D206800F089FD012084F84800A5
:102DD00084F83E0084F83F0084F8400084F8410005
:102DE00084F8420084F8430084F8440084F84500E5
:102DF00084F8460084F8470084F83D00002010BDA8
:102E00007047704730B50446022269B1042912D0D8
:102E1000082917D00C291CD0102921D094F8430080
:102E2000012824D0012030BD94F83E000128F9D1BA
:102E300084F83E201DE094F83F000128F2D184F888
:102E40003F2016E094F840000128EBD184F84020A0
:102E50000FE094F841000128E4D184F8412008E013
:102E600094F842000128DDD184F8422001E084F882
:102E700043200122206800F08FFD194B206819497A
:102E8000194A984209D0884207D0904205D0174D80
:102E9000A84202D0164DA84203D1456C45F4004526
:102EA0004564206898420CD0B0F1804F09D0114B96
:102EB000984206D0104B984203D0884201D09042ED
:102EC00007D181680D4A1140062906D0B1F5803F2F
:102ED00003D0016841F001010160002030BD000015
:102EE000002C0140003401400040014000440140FA
:102EF00000480140000400400008004007000100B5
:102F00007047704790F88410012918D0012180F88B
:102F100084102421C0F8881001680A680B6823F027
:102F200001030B6022F00051002242660368196021
:102F30002021C0F8881080F88420104670470220B5
:102F4000704770B5044690F8840001281DD0012018
:102F500084F884002420C4F888002068056802688A
:102F600022F0010202602068826822F060620A4357
:102F70008260204600F0ECFE206805602020C4F846
:102F80008800002084F8840070BD022070BD70B5F8
:102F9000044690F8840001281DD0012084F88400A4
:102FA0002420C4F8880020680568026822F0010225
:102FB00002602068826822F060420A4382602046F4
:102FC00000F0C6FE206805602020C4F888000020BC
:102FD00084F8840070BD022070BD10B5040003D0D9
:102FE000D4F8880010B107E0012010BD002084F85B
:102FF0008400204600F026F82420C4F888002068C9
:10300000016821F001010160A06A10B1204600F0C2
:10301000C1FE204600F0A2FF0128E6D020684168EA
:1030200021F4904141602068816821F02A0181608B
:103030002068016841F0010101602046BDE81040B0
:1030400000F00CBF70B598B00446142111A8FDF72C
:1030500017F944216846FDF713F920492068884292
:1030600039D104200024009003946846FEF7D2FC76
:1030700008B1FDF7C2FC1A48816D41F480218165D9
:10308000816D01F480211691C16C41F00401C1648D
:10309000C16C01F004011691C16C41F00201C164E0
:1030A000C06C022500F00200169007264FF4006065
:1030B000CDE91254CDE91446119011A90948FEF743
:1030C00081FA2802CDE91254CDE91446119011A9D4
:1030D0000548FEF777FA18B070BD000000480040C0
:1030E0000010024000080048000400482DE9F843A1
:1030F0000446D0F88800984616460D46202802D08F
:103100000220BDE8F883A5B19EB10020C4F890006C
:103110002120C4F888001834FEF77EFBA68781467C
:10312000E68754F8100C2027183CB0F5805F02D0D9
:1031300003E00120E5E7206910B12E46002510E0EC
:1031400000260EE08021204601F042F8C0B9DEB131
:1031500016F8010B21688862B4F85600401EA4F8E6
:103160005600B4F856004B464FF00002CDF80080F0
:103170000028E7D14FF04001204601F029F840B186
:10318000C4F888700320BCE735F8020BC0F30800D0
:10319000E0E7C4F888700020B3E7FEE700EB8100A9
:1031A000006E00F0F84070478068C0F3C0007047C0
:1031B0008068C0F3800070478068C0F3800070476B
:1031C000042303EAD15310B518444369C1F30451F1
:1031D00007248C40A3438A401343436110BD00EB96
:1031E0008100016E21F0004111430166704700002B
:1031F00010B510EE100AFDF774F941EC100B9FEDBD
:103200000A1B01F051F851EC100BFDF77DF900EEAF
:10321000100AB5EEC00AF1EE10FA03DADFED040A87
:1032200030EE200A10BD000000000060FB211940B4
:10323000DB0FC94010B58CB00024089409942021FC
:1032400068460A94FDF71CF823484FF0A041082275
:1032500001604FF48011C0E90114C46001210461D0
:10326000C0E90512047741770222026280F8244007
:10327000C462046380F83810C46380F84040FDF7EE
:1032800041FE08B1FDF7B9FB08A913480894FDF702
:10329000B7FB08B1FDF7B1FB104800900620CDE95F
:1032A00001047F2003900420CDE9040469460A4804
:1032B000FDF712FC08B1FDF7A0FB094800900C20B7
:1032C000019069460448FDF707FC002801D0FDF78E
:1032D00094FB0CB010BD0000580400200200300424
:1032E000040060080D4808B5816C41F00401816458
:1032F000816C01F004010091816C41F00101816455
:10330000806C002200F00100009011460B20FEF7B7
:10331000E9FABDE808400B20FEF7D6BA00100240DB
:10332000114810B50F490160002141608160C16002
:103330000174417481741022426101220223C0E9A8
:103340000623C0E908328262C262C0E90C218163AF
:10335000C163FDF7F7FF002803D0BDE81040FDF77B
:103360004CBB10BD006400402405002010B586B0A1
:1033700014216846FCF784FF1548C16C41F0010137
:10338000C164C16C01F001010591C16C41F00401FF
:10339000C164C16C01F004010591C16C41F00201EE
:1033A000C164C06C0B4C00F002000590002210219B
:1033B0002046FEF72BFA1020009001200021CDE9D5
:1033C0000101039169462046FEF7FCF806B010BDE6
:1033D0000010024000080048124810B51049016072
:1033E0004FF48271416000214FF47062C0E9021213
:1033F0000122C0E90412520282612022C0E90721A1
:1034000007224162C0E90A1201634163FEF790FF9F
:10341000002803D0BDE81040FDF7EFBA10BD000052
:10342000003001408805002010B59CB0002419949C
:103430001A9417941894149415941C210DA816949A
:10344000FCF71EFF34216846FCF71AFF3C483B4955
:10345000C0E900142021816041F29A01C0E90314FF
:103460008021C0E90541FFF7FAF908B1FDF7C5FA77
:103470004FF48050179017A93148FFF781FA08B12F
:10348000FDF7BBFA2E48FFF78AFC08B1FDF7B5FA45
:103490001494159414A92A481694FFF791F908B1C9
:1034A000FDF7ABFA6020CDE90D040F941094119450
:1034B000129400220DA922481394FFF7DEFB08B1F5
:1034C000FDF79BFA04220DA91D48FFF7D6FB08B1B2
:1034D000FDF793FA08220DA91948FFF7CEFB08B1B2
:1034E000FDF78BFA00944FF40050CDE904400394AB
:1034F0000003CDE9084001940294069407940A94CD
:103500000B9469460E480C94FFF708F908B1FDF7D3
:1035100074FA0B48FFF7FEF900210948FFF772FC27
:1035200004210748FFF76EFC08210548FFF76AFCF5
:103530000348FFF777FB1CB010BD0000002C0140D2
:10354000EC05002010B588B00024194800940194BF
:1035500002940394049405941449069401604FF472
:103560009671C0E901144FF6FF71C0E90314802180
:103570008161FFF774F908B1FDF73FFA4FF480500D
:10358000009069460A48FFF7FBF908B1FDF735FAE4
:10359000049404A906480694FFF712F908B1FDF750
:1035A0002CFA0348FFF7B6F908B010BD000400403C
:1035B00038060020174810B51549016016494160CA
:1035C000002181600C22C160C0E904128161C161E7
:1035D000016241628162FFF700FD08B1FDF70DFA5B
:1035E00000210C48FFF7D3FC08B1FDF706FA0021D3
:1035F0000848FFF7A6FC08B1FDF7FFF90548FFF7FB
:1036000081FC002803D0BDE81040FDF7F6B910BDDD
:103610000048004084060020A0252600FEE7FEE7C3
:10362000002101E0414040080028FBD101F00100E9
:1036300070477047F8B515460E460B460092044693
:1036400000224FF4C05100F037F888B93346002209
:1036500080212046009500F09FF848B933460022AB
:103660004FF4C0612046009500F026F8002804D0F1
:10367000206E40F0200020660320F8BD11B50C4CF0
:1036800083B0002210212046FEF7C0F84FF6FF70ED
:103690000090012301AA03A90648FEF7EFFE0122CC
:1036A00010212046FEF7B2F8BDF8040004B010BDAA
:1036B00000080048880500202DE9FE4F4FF0000A61
:1036C000984617460E4604460C9D8DF804A0FEF75A
:1036D000A3F8411BA8EB0105FEF79EF88146206880
:1036E0004FF4C06B0C3002902A480068C0EBC00059
:1036F00000EB8000000D6843009043E05E4506D17A
:103700002FB9029800788DF804009DF80400B8F1F4
:10371000FF3F37D0FEF780F8A0EB0900A84203D2A4
:1037200015B1009858B32BE02068416821F0E00102
:1037300041606068B0F5827F0BD1A068B0F5004FA2
:1037400002D0B0F5806F04D12068016821F04001FB
:103750000160A06AB0F5005F09D12068016821F41A
:10376000005101602068016841F4005101600120AE
:1037700084F85D0084F85CA00320BDE8FE8F00257E
:10378000401E0090206880683040B842B6D10020CA
:10379000F3E700000C0000202DE9F8431E46914697
:1037A00088460446089DFEF737F8401B351AFEF799
:1037B00033F8074625480068C0F3CB30684338E04B
:1037C000701C37D0FEF728F8C01BA84203D215B1F1
:1037D000009860B32CE02068416821F0E00141606E
:1037E0006068B0F5827F0BD1A068B0F5004F02D0C1
:1037F000B0F5806F04D12068016821F040010160BC
:10380000A06AB0F5005F09D12068016821F4005179
:1038100001602068016841F400510160012084F8D2
:103820005D00002084F85C000320BDE8F8830025DB
:10383000401E00902068816838EA010004D0002111
:103840004945BDD10020F0E70121F9E70C00002037
:103850007047FDF7E7BF00B593B038216846FCF725
:103860000FFD14210EA8FCF70BFD0020FEF76CF8ED
:103870000220C1010391402104910421CDE90801F6
:1038800000905521CDE90A1007900C900D906846E4
:10389000FEF74CFB08B172B6FEE70F200E90032036
:1038A0000F90002010901190129004210EA8FEF7A6
:1038B000F5F9002801D072B6FEE713B000BD000094
:1038C0000248016841F470010160704788ED00E032
:1038D0000148FFF7D6B80000EC0500202DE9F043C1
:1038E0000268264B264D274E274C4FF080499842C0
:1038F00007D0484505D0A84203D0B04201D0A0422D
:1039000003D122F070074A683A43204FDFF880C0A5
:10391000DFF8808098420DD048450BD0A84209D0EE
:10392000B04207D0A04205D0B84203D0604501D0D4
:10393000404503D122F44075CA682A434D6922F0FC
:1039400080022A4302608A68C2620A6882629842E0
:1039500007D0A04205D0B84203D0604501D0404511
:1039600001D109690163012141610169C90703D0DE
:10397000016921F001010161BDE8F083002C0140E3
:1039800000040040000800400034014000400140B5
:10399000004401400048014010B501F01F0301211F
:1039A000046A99408C430462016A9A40114301629F
:1039B00010BD10B5846842EA032224F47F440A4310
:1039C0002243826010BD00008268034B1A400A4304
:1039D00042F00701816070478FFFCFFF2DE9F04370
:1039E000056A026A22F001020262436882691C4C85
:1039F00025F0020522400C6822F0030214438A6875
:103A0000194E2A43174D194FDFF864C0DFF8649050
:103A1000A84207D0B04205D0B84203D0604501D0DB
:103A2000484506D122F00808CA6842EA080222F096
:103A30000402A84207D0B04205D0B84203D0604586
:103A400001D0484505D14D6923F440731D438B696E
:103A50002B4343608461496841630262BDE8F0839F
:103A60008FFFFEFF002C0140003401400040014068
:103A70000044014000480140F0B5056A026A22F0A6
:103A80001002026242688369194C1B4E23400C6885
:103A900023F4407343EA042425F020038D6843EAAD
:103AA0000513144DA84201D0B04206D1CF6823F0CF
:103AB000800343EA071323F04003A8420AD0B04230
:103AC00008D00E4DA84205D00D4DA84202D00D4D94
:103AD000A84207D14D6922F4406242EA85028D690D
:103AE00042EA850242608461496881630362F0BDF5
:103AF000FF8FFFFE002C01400034014000400140D8
:103B00000044014000480140F0B5056A026A22F411
:103B1000807202624368C269194C1B4E22400C68D5
:103B200022F00302144325F400728D6842EA052254
:103B3000144DA84201D0B04206D1CF6822F40062F1
:103B400042EA072222F48062A8420AD0B04208D09A
:103B50000E4DA84205D00E4DA84202D00D4DA842F0
:103B600007D14D6923F4405343EA05138D6943EAB5
:103B700005134360C4614968C1630262F0BD00007F
:103B80008FFFFEFF002C0140003401400040014047
:103B90000044014000480140F0B5056A026A22F481
:103BA000805202624268C369194C1B4E23400C6864
:103BB00023F4407343EA042425F400538D6843EA58
:103BC0000533144DA84201D0B04206D1CF6823F48A
:103BD000004343EA073323F48043A8420AD0B042AB
:103BE00008D00E4DA84205D00D4DA84202D00D4D73
:103BF000A84207D14D6922F4404242EA85128D69FC
:103C000042EA85124260C461496801640362F0BD02
:103C1000FF8FFFFE002C01400034014000400140B6
:103C2000004401400048014030B5056A026A22F4B0
:103C3000803202624268036D114C23400C681C43C1
:103C400025F400330D8943EA05430E4DA8420BD0FD
:103C50000D4DA84208D00D4DA84205D00C4DA842EC
:103C600002D00C4DA84204D14D6922F4803242EAC0
:103C700005224260046549688164036230BD00002A
:103C80008FFFFEFF002C0140003401400040014046
:103C9000004401400048014030B5046A026A22F441
:103CA000801202624268036D114D24F400142B400F
:103CB0000D6843EA05230D8944EA05540D4DA842D9
:103CC0000BD00D4DA84208D00C4DA84205D00C4D8C
:103CD000A84202D00B4DA84204D14D6922F48022A3
:103CE00042EA8522426003654968C164046230BDCE
:103CF000FF8FFFFE002C01400034014000400140D6
:103D0000004401400048014010B5036A046A24F0F1
:103D100001040462846924F0F00444EA021423F0EC
:103D20000A020A438461026210BD10B5036A046A84
:103D300024F010040462846923F0A00324F4704486
:103D400044EA023243EA01118261016210BD0000BF
:103D500030B5416EB9B1026891689268C1F34261B1
:103D60000B4B520F9C5CE50003F10804A25CB5FB11
:103D7000F2F2A0F86A205A5C615CD200B2FBF1F169
:103D8000A0F8681030BD0121A0F86A10F8E7000023
:103D90007051000890F82810090706D501684A6894
:103DA000836B22F400421A434A6090F82810C90736
:103DB00006D001684A68C36A22F400321A434A6096
:103DC00090F82810890706D501684A68036B22F429
:103DD00080321A434A6090F82810490706D50168D6
:103DE0004A68436B22F480221A434A6090F82810F4
:103DF000C90606D501688A68C36B22F480521A434B
:103E00008A6090F82810890606D501688A68036CD4
:103E100022F400521A438A6090F82810490611D5FE
:103E200001684A68436C22F480121A434A60416C6C
:103E3000B1F5801F06D101684A68836C22F4C00284
:103E40001A434A6090F82810090606D501684A68A6
:103E5000C06C22F4002202434A6070472DE9F84307
:103E600000260446C0F89060FDF7D6FC8046206826
:103E700000684FF0200500076FF07E4713D54346DA
:103E8000002229042046009700F0A2F958B12168C9
:103E900051E8000F20F0800041E80002002AF6D12E
:103EA000C4F8885021E020680068400722D54346C6
:103EB00000224FF480012046009700F089F9C8B134
:103EC000216851E8000F20F4907041E80002002AB8
:103ED000F6D12068083050E8001F21F0010140E8C9
:103EE0000012002AF5D1C4F88C5084F884600320B5
:103EF000BDE8F883C4F88850C4F88C5044F86C6F5F
:103F0000666026760020F3E710B5026852E8001FCD
:103F100021F4907142E80013002BF6D10E4B026899
:103F2000083252E8001F194042E80014002CF6D174
:103F3000C16E012908D1016851E8002F22F010025A
:103F400041E80023002BF6D12021C0F88C1000217D
:103F5000C166416710BD0000FEFFFFEF2DE9F04193
:103F60000446016880682269E3691043626900259C
:103F70001A431043DFF82CC20A688B4B1A400243E5
:103F80000A6020684168E26821F4405111434160B1
:103F90002168A069614501D0226A10438A68834B79
:103FA0001A4002438A602068C16A626A21F00F01E8
:103FB0001143C1627E4923687E488B420DD1D0F8FF
:103FC000880010F0030006D0012855D0022842D006
:103FD00003283FD152E001203DE077498B420BD1CD
:103FE000D0F8880010F00C0035D0042833D0082811
:103FF00040D00C282ED141E070498B420BD1D0F833
:10400000880010F0300026D0102835D0202831D07C
:1040100030281FD132E06A498B420BD1D0F888009A
:1040200010F0C00017D0402826D0802822D0C02809
:1040300010D123E063450DD1D0F8880010F4406022
:1040400009D0B0F5806F17D0B0F5006F12D0B0F581
:10405000406F13D010205B495B4F00264FF40042A5
:1040600063453BD160B1022813D004280BD0082847
:1040700072D10DE00220EEE70420ECE70820EAE729
:10408000FDF7FAFE01E0FDF71BFF010001D17CE026
:104090001146606A37F810206768B1FBF2F007EB51
:1040A0004703834270D8B0EB073F6DD80023084622
:1040B0001946FCF7ADF8090241EA106102027808DE
:1040C000101871413A460023FCF7A2F83F4AA0F5C8
:1040D0004071914258D82168C86056E0E3694FF6B4
:1040E000EF7893422CD109284ED2DFE800F0050882
:1040F000114D0D4D4D4D1000FDF7BEFE01E0FDF7D9
:10410000CDFE010004D140E0FDF7DAFEF9E71146EB
:10411000606A37F81000B1FBF0F04100606801EB15
:104120005001B1FBF0F0A0F1100141452CD84FF641
:10413000F0710140C0F3420001432068C16024E0F7
:10414000092821D2DFE800F0050912200E202020E6
:104150001100FDF791FE02E016E0FDF79FFE010061
:1041600004D112E0FDF7ACFEF9E71146606A37F8BA
:104170001000B1FBF0F1606801EB5001B1FBF0F011
:10418000A0F1100141450AD901250120A4F86A00D7
:1041900024F8680F2846E6602661BDE8F08180B209
:1041A00099E7000000800040F369FFCFFFF4FF11A2
:1041B0000038014000100240004400400048004028
:1041C000004C00400024F40058510008FFFC0F0090
:1041D0002DE9F047994617460D4604464FF0000872
:1041E000089E33E0701C31D0FDF716FBA0EB0900F0
:1041F000B04218D8BEB120680168490726D5802D85
:1042000024D0402D22D0C169C94309070DD4082507
:1042100005622046FFF778FEC4F8905084F8848049
:104220000120BDE8F0870320FBE7C069C04300051B
:104230000CD421684FF4006008622046FFF764FE4A
:104240002020C4F8900084F88480ECE72068C069DE
:1042500035EA000004D00020B842C3D00020E0E7D7
:104260000120F9E7FEE700000FB4054B10B503A9E4
:10427000044A029800F084F910BC5DF814FB0000B9
:10428000414E0008100000200907090E002804DB39
:1042900000F1E02080F80014704700F00F0000F1FA
:1042A000E02080F8141D704710B52DED040B86B08A
:1042B0009DED060B10EE100A10EE901A8DED000B1E
:1042C000002818BF0120084320F00040C0F17F60A3
:1042D00000F1E040C00F21D19DED080B10EE101A47
:1042E00010EE900A8DED000B002918BF0121084344
:1042F00020F00040C0F17F6000F1E040C00F0DD120
:1043000029490798B1EB400F04BF0698002842D016
:104310000998400004BF089800283CD09DED080B88
:1043200053EC102B9DED060B51EC100BFCF752FAE1
:10433000CDE902019DED020B40F2FF7110EE900AF3
:104340008DED000B31EA105021D00798039900F051
:10435000004001F00041884219D09DED080B8DED21
:10436000040B9DED020B8DED000B10EE900A0599EC
:1043700061F31E0005909DED041B9DED020B51ECB9
:10438000110B53EC102BFCF72AF8CDE902019DED3F
:10439000020B0AB010BD012000F02AF80AB0BDE8F7
:1043A000104000F005B800000000E0FF0000000031
:1043B0009FED050B10B553EC102B51EC100BFCF7D7
:1043C0009AF941EC100B10BD000000000000000045
:1043D00002E008C8121F08C1002AFAD170477047CE
:1043E000002001E001C1121F002AFBD1704700002C
:1043F0000149086070470000140000202DE9FF5FAC
:1044000082B00021DDE90430020DDDF840B0034345
:1044100018D044F61050A2F2FF32424315141198FE
:1044200001281FD0A5EB0B00401C5FEA000A4FF0EB
:1044300000064E4FDFF83891B046504615D5CAF108
:10444000000413E0119801244AA3012801D16FEA66
:104450000B010298119AC0E90031C0E9024206B08E
:10446000BDE8F09FCBF10000DFE704460021404AA1
:10447000491842EB0450CDE9001012E0E00707D0E4
:1044800032463B4640464946FBF7ACFF80468946EC
:1044900032463B4610461946FBF7A4FF06460F4638
:1044A0006410002CEAD1DDE90401DDE90023BAF152
:1044B000000F06DAFBF796FF42464B46FBF792FFEA
:1044C00005E0FCF718F942464B46FCF714F90446A0
:1044D0000E460022284BFCF7D9F903D84FF0FF30E5
:1044E000014607E00022254B20463146FBF7D3FE6C
:1044F000FCF7B3F9102409E0002C0ADB0A220023A0
:10450000FBF786FE039B30321A55641E50EA010207
:10451000F2D1641C039AC4F111031444119A012AC4
:1045200003D0012208430DD10AE0084304D0002043
:104530004FF0110B119072E7A3EB0B056D1E0DE010
:104540005B4504DD4FF0000205F1010504E003DAEC
:104550004FF00002A5F10105002AECD00298119954
:10456000C0E90231C0E9004579E7000000001440CD
:104570000000F03F300000000000F0430000E03F8A
:104580002DE9FF4F95B09B468946064600250FE270
:10459000252877D100242746F84A0121059400E018
:1045A000044316F8013F203B01FA03F01042F7D113
:1045B00030782A2811D06FF02F033078A0F1300224
:1045C000092A16D8059A44F0020402EB820203EB92
:1045D00042021044761C0590EFE759F8042B05922F
:1045E000002A03DA504244F40054059044F00204D7
:1045F000761C30782E2816D116F8010F44F00404EA
:104600002A280DD06FF02F023078A0F13003092B4B
:1046100009D807EB870302EB4303C718761CF3E7BF
:1046200059F8047B761C30786C280FD006DC4C28B7
:1046300017D068280DD06A2814D104E0742810D04F
:104640007A280FD10DE044F400140AE044F48014F9
:1046500001E044F440147278824202D104F58014DF
:10466000761C761C307866280BD013DC582877D05F
:1046700009DC002875D04528F6D04628F4D0472814
:104680001AD19DE118E0632835D0642879D06528D7
:1046900012D195E1702873D008DC6728F1D0692821
:1046A0006FD06E280DD06F2806D1B5E073282CD0BE
:1046B000752875D0782874D05A46179990476D1C84
:1046C00075E1C4F30250022809D003280DD0D9F8AF
:1046D000001004280DD00D6009F1040967E1D9F834
:1046E0000010EA17C1E90052F6E7D9F800100D8072
:1046F000F2E70D70F0E719F8041B8DF800100020A8
:104700008DF80100EA46012003E059F804AB4FF0B0
:10471000FF3061074FF0000102D40DE008F1010104
:104720008846B9420FDA8045F8DB1AF808100029EC
:10473000F4D108E008F1010188468142FADB1AF859
:1047400008100029F6D105985B46A0EB0807214622
:104750003846179A00F094FA284400EB080507E061
:104760004DE029E10DE01AF8010B5A4617999047E0
:10477000B8F10108F7D25B4621463846179A13E193
:1047800042E00A220092C4F302524FF0000A022AC9
:1047900008D059F804CB032A4FEAEC710AD00DE097
:1047A00029E02AE009F1070121F00702F2E802C13D
:1047B000914609E00FFA8CFC4FEAEC71042A03D110
:1047C0004FFA8CFC4FEAEC71002907DA0A46002107
:1047D000DCF1000C61EB02012D2202E0220504D580
:1047E0002B228DF80420012203E0E20701D02022D1
:1047F000F7E7904659E00A2102E010220DE010216F
:104800004FF0000A00910BE010224FF0000A44F034
:1048100004040827009203E008224FF0000A0092E7
:10482000C4F30252022A05D059F804CB0021032A0E
:1048300008D009E009F1070121F00702F2E802C1FE
:10484000914605E01FFA8CFC042A01D10CF0FF0C04
:104850004FF00008220728D5702806D0009B83F06F
:10486000100353EA0A0305D00EE040228DF804201D
:10487000012208E05CEA010206D030228DF8042013
:104880008DF8050002229046009B83F0080353EA4E
:104890000A030AD15CEA010201D1620705D5302280
:1048A0008DF804204FF001087F1E582804D034A052
:1048B00003900EA802900DE036A0F9E7534660463B
:1048C000009AFBF7A5FC84460398825C0298401E80
:1048D000029002705CEA0100F0D1029806A9081A61
:1048E00000F1200A600702D524F4803400E001279B
:1048F000574502DDA7EB0A0000E0002000EB0A01AB
:10490000009005984144401A0590E00306D45B46A8
:104910002146179A059800F0B3F90544002706E0F0
:1049200001A85A46C05D179990476D1C7F1C4745EA
:10493000F6DBE0030CD55B462146179A059800F09C
:104940009FF9054404E030205A46179990476D1CA2
:104950000099481E00900029F5DC08E002980299B1
:104960005A460078491C0291179990476D1CBAF17C
:104970000001AAF1010AF1DC65E10000092801004B
:1049800030313233343536373839616263646566C5
:104990000000000030313233343536373839414287
:1049A000434445460000000000F058F90544761CD9
:1049B000307800287FF4ECAD19B02846BDE8F08FC0
:1049C000620700D4062709F1070222F0070CFCE871
:1049D0000223E14603F000485FEA080C02D00FF220
:1049E000702C0DE05FEA045C02D50FF2682C07E042
:1049F0005FEAC47C02D00FF2602C01E0AFF2700CD1
:104A00004FF0FF3823F00043CDF850C065280CD09C
:104A100006DC452809D046281DD047283DD13DE079
:104A2000662818D067287ED138E00021112F01DBDD
:104A3000112000E0781CCDE9000106A90EA8FFF7BF
:104A4000DDFCDDE90F010E9A03910021009207F1D0
:104A5000010A04914DE04FF000400097CDE90110AC
:104A600006A90EA8FFF7CAFCDDE90F0203920E9B10
:104A700011990022DDF80CA00093049211B9791C61
:104A800000EB010AB7EB0A0004D4C0F1FF3007F1D4
:104A9000010A0490AAEB0700019044E0012F00DA1C
:104AA00001270021112F01DD112000E03846CDE95A
:104AB000000106A90EA8FFF7A1FCDDE90F010E9A7F
:104AC0000391002104910092BA4621070CD4039966
:104AD000514500DA8A46BAF1010F05DD009AAAF1C4
:104AE0000101515C302908D0B84202DA10F1040FFC
:104AF00006DA0121CDE9011015E0AAF10101E9E78B
:104B0000002805DC049901440491AAEB000102E0AD
:104B1000411C514500DD8A460499401A401C019011
:104B20004FF000400290200704D40198504501DB6B
:104B3000CDF8048000208DF84F0002980DF14F074A
:104B4000B0F1004F25D02B200E9002984FF00208B4
:104B500000280CDA404202902D200E9007E00A2136
:104B60000298FBF7EDFC3031029007F8011DB8F117
:104B70000001A8F10108F2DC02980028EFD1791EAB
:104B80000E980870307800F0200040F0450007F8DB
:104B9000020D12A8C01B00F107081498007800B19C
:104BA000012000EB0A01019801EBE07105984144F6
:104BB000401A401E0590E00306D45B462146179A32
:104BC000059800F05DF805441498007818B15A462D
:104BD000179990476D1CE00324D55B462146179A30
:104BE000059800F04DF805441CE00498002807DB08
:104BF000DDE90301884203DD0098405C179901E07C
:104C0000179930205A469047049805F10105401C39
:104C100004900198401E019004D12E205A46179905
:104C200090476D1CBAF10001AAF1010ADDDC05E034
:104C300017F8010B5A46179990476D1CB8F10001FF
:104C4000A8F10108F4DC5B462146179A0598ABE60B
:104C50002D0000002B000000200000002DE9F04195
:104C6000044600251E461746880404D405E039464C
:104C70002020B0476D1C641EF9D52846BDE8F081A0
:104C80002DE9F041044600251E469046C80301D593
:104C9000302700E02027880404D505E04146384647
:104CA000B0476D1C641EF9D52846BDE8F0810000B0
:104CB0009FED070A80ED000A80ED010A9FED050ACD
:104CC00080ED020A9FED040A80ED030A70470000A0
:104CD00000000000000000430000FE4210B5044642
:104CE0004FF48661FBF7CCFA0021A1600120E1605E
:104CF0009FED3E0B206084ED040B0721C4E90610F4
:104D0000F2EE040AC4ED080AF3EE082A9FED390A10
:104D1000C4ED092A84ED0C0A9FED371A84ED0D0AC3
:104D2000DFED361A84EDAD1AC4EDAE1A84EDB10A8A
:104D30009FED332AC4EDB60A84EDB92A84EDBC1A7E
:104D4000C4EDBD1A84EDC00AC4EDC50A9FED2D3A2D
:104D500084EDC82ADFED2C3A84EDCB3AC4EDCC3A91
:104D600084EDCF0AC4EDD40AC4EDD72A84EDDA3A33
:104D7000C4EDDB3A84EDDE0AC4EDE30AC4EDE62AB5
:104D800084EDE91AC4EDEA1A84EDED0AC4EDF20AE5
:104D900084EDF52A84EDFE0A84EDFD1A1B48C4F863
:104DA00038021B48C4F83C021A48C4F840021A48AA
:104DB000C4F844021948C4F848021948C4F84C021F
:104DC0001848C4F850021848C4F854021748C4F8E8
:104DD00058021748C4F864021648C4F86802164816
:104DE000C4F85C021548C4F8600210BD0000000061
:104DF0000000000000000000CDCCCC3D0AD7233CD1
:104E00000000C842CDCC4C3E0AD7A33CE54F000879
:104E1000095000082D500008515000085D5000084E
:104E200069500008E94E00082D4F0008714F000836
:104E3000E14F00087950000875500008B54F000890
:104E400013B54FF0FF33012269460248FEF74EF9D1
:104E500000981CBD840600201FB5FCF7EBFCFEF794
:104E6000FAFCFEF783FAFEF73DFAFEF7E3F9FEF7E8
:104E700057FAFEF7B1FAFEF7D7FAFEF79BFBFEF7FB
:104E800061FB1448FFF72AFF1348FFF711FF114C8D
:104E9000104800F03BF90F4800F025F90D4800F0EC
:104EA00044F9D4F8B002FBF71CFB05460E46D4F8D3
:104EB000A402FBF716FB94ED041B41EC100B8DEDE7
:104EC000021BCDE9005653EC102B04A0FFF7CCF9E0
:104ED000DEE70000180000204804002025662C258D
:104EE000662C25660A00000010B504462DED028BE5
:104EF00010EE100AFBF7F5FA41EC180B2046FBF711
:104F0000E3FA9FED081B53EC112BFBF76BFA53EC04
:104F1000182BFBF761FAFBF7F7FABDEC028B00EEFA
:104F2000100A10BD000000000080703F10B504465C
:104F30002DED028B10EE100AFBF7D3FA41EC180BA3
:104F40002046FBF7C1FA9FED081B53EC112BFBF732
:104F500049FA53EC182BFBF73FFAFBF7D5FABDECF7
:104F6000028B00EE100A10BD000000000080703FB0
:104F700010B504462DED028B10EE100AFBF7B1FAC6
:104F800041EC180B2046FBF79FFA9FED081B53ECF2
:104F9000112BFBF727FA53EC182BFBF71DFAFBF745
:104FA000B3FABDEC028B00EE100A10BD0000000049
:104FB0000080703F00EE100A9FED071AF8EE400ADD
:104FC00080EE810AF0EE000A20EE200ADFED030AEF
:104FD00020EE200A7047000000FC7F46DA0F4940AF
:104FE000FCF79EB9DFED060A064920EE200A0968A3
:104FF000BCEEC00A10EE100A80B248637047000091
:1050000000D08445EC050020DFED060A064920EEBD
:10501000200A0968BCEEC00A10EE100A80B248638C
:105020007047000000D08445EC050020DFED060A43
:10503000064920EE200A0968BCEEC00A10EE100AEC
:1050400080B248637047000000D08445EC05002022
:105050000148FBF753BF0000580400200148FBF74C
:105060004DBF0000580400200148FBF747BF000077
:1050700058040020FBF734BC10B5016804464160B9
:1050800011480068406ADFED110A2060884201D9AA
:10509000401A03E04FF6FF72511A084400EE100A5E
:1050A000B8EE401A81EE200A10EE100AFBF719FA4A
:1050B000C4E9020194ED020B51EC100BFBF724FA4A
:1050C00000EE100A10BD000038060020AB580A4957
:1050D00010B50446D0F85C028047D4F860128847C7
:1050E00084EDA90A10BD10B50446FFF7F1FF84ED69
:1050F000A90AF0EE400A94ED060A94ED0D1AB8EEF6
:10510000400AFBF706FC84EDAB0A10BD10B504465F
:10511000D0F868120830884794ED040B51EC100B5E
:10512000FBF7F2F900EE100A10BD10B590ED040B7C
:10513000044651EC100BFBF7E7F901EE100AD4ED31
:10514000AA0A94EDA90AFBF7EBFB84EDFC0AD4ED67
:10515000A90AC4EDAA0A10BD01000200040006005D
:1051600008000A000C001000200040008000000130
:105170000101010307010000080402040801010104
:1051800000000000000000000102030406070809F7
:105190000000000001020304B851000800000020D4
:1051A00018000000D0430008D0510008180000206B
:1051B000000B0000E04300081000000001000000A8
:1051C000000000000024F4000000000000000000C7
:04000005080001D915
:00000001FF
