:020000040800F2
:1000000090090020ED0100085F3600080332000867
:100010005D3600085D0800089942000800000000F5
:1000200000000000000000000000000091380008FF
:100030000F0900080000000073360008933800081C
:10004000070200080702000807020008070200086C
:10005000070200080702000807020008070200085C
:1000600007020008070200080702000861080008EC
:10007000070200080702000807020008070200083C
:10008000070200080000000007020008070200083D
:10009000070200080702000807020008070200081C
:1000A000070200080702000807020008070200080C
:1000B00007020008070200080702000807020008FC
:1000C00007020008070200080702000807020008EC
:1000D00007020008070200080702000807020008DC
:1000E00007020008070200080702000807020008CC
:1000F00007020008070200080702000800000000CD
:1001000000000000070200080000000007020008CD
:1001100007020008000000000702000807020008AC
:10012000070200080702000807020008070200088B
:10013000070200080000000000000000070200089D
:10014000070200080702000800000000000000008D
:10015000000000000000000000000000000000009F
:10016000000000000000000000000000070200087E
:10017000070200080000000000000000000000006E
:10018000000000000702000800000000000000005E
:10019000000000000000000000000000000000005F
:1001A000000000000000000007020008070200082D
:1001B000070200080702000807020008000000000C
:1001C000000000000702000800000000000000001E
:1001D0000702000807020008DFF80CD000F02CFA34
:1001E0000048004705430008900900200648804762
:1001F00006480047FEE7FEE7FEE7FEE7FEE7FEE70C
:10020000FEE7FEE7FEE7FEE701390008D901000836
:100210002DE9F05F0546002092469B46884606463B
:10022000814640241BE0284641464746224600F0CE
:100230005EF953465A46C01A914110D311461846EA
:10024000224600F045F92D1A67EB01084F46224679
:100250000120002100F03CF917EB00094E41201E5F
:10026000A4F10104DFDC484631462A464346BDE896
:10027000F09FD2B201E000F8012B491EFBD270477B
:100280000022F6E710B513460A4604461946FFF762
:10029000F0FF204610BD2DE9FE4F81EA030404F073
:1002A000004421F0004100944FF0000B23F0004384
:1002B00050EA01045ED052EA03045BD0C3F30A544F
:1002C000C1F30A552C44A4F2F3340194A0FB025468
:1002D000C1F3130141F48011C3F3130343F48013FA
:1002E00001FB024400FB034E840A970A44EA81544E
:1002F00047EA8357A4FB076802958D0A05FB07852B
:100300004FEA932C04FB0C542705029D4FEA065834
:1003100047EA1637B5EB08056EEB070C870E920E11
:1003200047EA811742EA8312A7FB0201B6EB0B01F1
:1003300064EB00042B0D43EA0C335E1844EB1C50B5
:10034000DA465146E7FB0201C5F313044FEA0B33CB
:1003500043EA14534FEA0432019C43EA0603A4F132
:100360000C040294009CCDE900B400F016F903B02F
:10037000BDE8F08F00200146F9E72DE9F04D81EA54
:10038000030404F0004B21F0004514464FF0000A2E
:1003900023F0004150EA050220D054EA01021DD0AA
:1003A000C5F30A570246C5F31303C1F31300C1F3A3
:1003B0000A5640F4801543F48013A7EB0608101B7F
:1003C000D64608F2FD3873EB050002D308F10108A8
:1003D00001E092185B41B8F1000F03DA00200146FA
:1003E000BDE8F08D00204FF48011064684460EE0F3
:1003F000171B73EB050705D3121B63EB05030643BD
:100400004CEA010C49084FEA300092185B4150EA6F
:100410000107EDD152EA030012D082EA040083EA18
:100420000501084305D0101BAB4106D20122002371
:1004300006E000224FF0004302E06FF0010253108B
:100440001AEB06004CEB085110EB0A0041EB0B01D4
:10045000BDE8F04D00F092B80EB540F23341029184
:100460000021CDE900110A460B4600F096F803B0D2
:1004700000BD00F0004230F000400AD0C10D01F58F
:100480006071C0F3160042EA0151C20840071143EF
:10049000704700200146704701F0004330B421F05E
:1004A000004150EA010206D00A0DA2F56072C1F3C4
:1004B0001301002A02DC30BC00207047440F44EADC
:1004C000C104C100E01830BC00EBC25000F01FB8FE
:1004D000202A04DB203A00FA02F100207047914004
:1004E000C2F1200320FA03F3194390407047202AF9
:1004F00004DB203A21FA02F00021704721FA02F3CE
:10050000D040C2F1200291400843194670470029AB
:10051000A8BF7047401C490008BF20F00100704789
:1005200010B4B0FA80FC00FA0CF050EA010404BFE9
:1005300010BC704749B1CCF1200421FA04F411FA3F
:100540000CF118BF012121430843A3EB0C01CB1D83
:100550004FEA00614FEA102042BF002010BC7047F4
:1005600000EBC35010440029A4BF10BC7047401CCE
:10057000490008BF20F0010010BC704710B5141EE0
:1005800073F1000408DA401C41F1000192185B414C
:100590001A4301D120F0010010BD2DE9F04D924623
:1005A0009B4611B1B1FA81F202E0B0FA80F220323A
:1005B0009046FFF78DFF04460F4640EA0A0041EAE5
:1005C0000B0153465A46084313D0114653EA010023
:1005D00019D0C8F140025046FFF789FF05460E4684
:1005E000504659464246FFF773FF084305D00120A5
:1005F00004E020463946BDE8F08D0020054346EA78
:10060000E0762C4337430A986305E40AA0EB080020
:100610000022FD0A44EA47540A3002D50020014670
:10062000E9E7010510196941DDE90845001969414B
:10063000BDE8F04DA2E70000064C074D06E0E0687B
:1006400040F0010394E8070098471034AC42F6D319
:10065000FFF7C6FDCC430008EC43000810B5846AE0
:10066000E16D11F0500F06D0E16DC90625D5204689
:1006700000F0A2FC10BDE06D40F40070E065206861
:100680000168090716D502F0CFFD78B12068C0686F
:10069000800400280ADBE06D20F48070E065E06DE6
:1006A000C00403D4E06D40F00100E065204600F096
:1006B00081FC10BDC0688007EBE7616D496BBDE848
:1006C0001040084710B5806AC16D41F04001C16516
:1006D000016E41F00401016600F06EFC10BD10B522
:1006E000806A00F068FC10BDF8B504460020009058
:1006F0002068816811F0010F41D18168214A1142BF
:100700002ED18168D5432940491C81601E488068EC
:1007100000F0E07000020DD51C481D490068B0FBD8
:10072000F1F0401C00EB4000800000E0401E009013
:100730000028FBD101F08AF906461BE0816811F020
:10074000010F03D181682940491C816001F07EF9C5
:10075000801B02280ED920680068C043C00709D05A
:10076000E06D40F01000E065206E40F00100206672
:100770000120F8BD20680168C943C907DED1002007
:10078000F8BD00003F000080000300500C00002076
:10079000400D030010B504465021FFF771FD9FED99
:1007A0001A0A84ED090A9FED190A84ED0A0A9FEDE1
:1007B000180A84ED000A9FED170A84ED010A9FEDE7
:1007C000160A84ED020A9FED150A84ED030A9FEDD7
:1007D000140A84ED040AB0EE000A84ED110A9FEDBC
:1007E000110A84ED0D0A9FED100A84ED0F0AB6EE92
:1007F000000A84ED120A9FED0D0A84ED0E0A9FEDAA
:100800000C0A84ED100A10BDD7A3703F6F12833A13
:10081000000004420000C64200304C4500610C4715
:100820009A397A44713D0A3F6666E63F9A99993E45
:10083000CDCC4C4010B540F48042104602F010FF81
:10084000012801D142F40042104602F037FF4FF474
:10085000804002F033FFC0F30D0010BDFEE7000042
:10086000014800F073BD0000AC0100200D49026892
:100870008A4201D20C4901E00B492031D2B2142343
:10088000083AB2FBF3F2436C02F01F0223F00303B9
:100890001944816404498031C1640121914001659A
:1008A0007047000008040240000802400179074A2E
:1008B00002EB81024265054A4432491E826501F01D
:1008C0001F0201219140C16570470000FC080240F1
:1008D00030B5D0E913456560446D14B1D0E91645D3
:1008E000656090F8444004F01F050124AC40056C9D
:1008F0006C60046863608368102B036803D09960A0
:100900000068C26030BD9A600068C16030BD704749
:1009100072B6FEE700F01EBE00F07AB87047000025
:10092000044B10B51C686063186881631868C26363
:1009300010BD0000D4020020274826499FED2B0A55
:10094000C0F864112549C0F86C112549C0F8681138
:100950002449C0F860112449C0F8701180ED210AC3
:100960000121BFEE000A016280ED2E0A9FED200AF0
:10097000F0EE000A80ED300A9FED1E0A80ED310A8C
:100980009FED1D0A80ED260AB2EE0C0A80ED2F0ABB
:100990009FED1A0A80ED380A9FED190A80ED390A99
:1009A0009FED180A80ED3C0AC0ED400ADFED160A03
:1009B00080ED410AC0ED480A80ED490ADFED130AD7
:1009C00080ED4C0AC0ED500A80ED510A80ED540ACA
:1009D00070470000150900081804002019090008D4
:1009E0005D0A0008210900081D0900083B72043F48
:1009F0009A99993ECDCCCC3D0AD7233C66662640D9
:100A00009A99994000000000CDCCCC3E00001A43DA
:100A100010B543F6FE70FFF70DFF00EE100A9FEDD4
:100A20000C1AF8EE400A80EE810AF0EE000A20EE81
:100A3000200A10EE100AFFF71CFD9FED061B53EC79
:100A4000112BFFF728FCFFF727FD00EE100A10BD61
:100A500000FC7F464AD8124DFB21094070B5124D6B
:100A600004462DED028B2868C8B910486168A16062
:100A70000068406A9FED0E8B6060884201D9401A81
:100A800003E04FF6FF72511A0844FFF7E5FC53EC00
:100A9000182BFFF772FCC4E904010120286094EDD3
:100AA000040BBDEC028B70BD100000202003002061
:100AB00055555555154B21412DE9F047044690F801
:100AC00058009CB00E464FF00009012815D00120B7
:100AD00084F8580000251795189520684FF0A04815
:100AE00040450ED1284F0097384602F099FB8246C8
:100AF000206802F095FB60B10EE002201CB0BDE85A
:100B0000F087E06D40F02000E06584F85850012047
:100B1000F4E7BAF1000F09D0E06D40F02000E06585
:100B20004FF0010984F858504846E7E71748326803
:100B300040F61F71002A826822F4604216D094F8B1
:100B4000383042EA433273681A438260D8F808208A
:100B5000BB6802F0010203F001031A43E2D1B3685B
:100B600032681A4383688B431A430BE08260D8F8DB
:100B70000820BB6802F0010203F001031A43D1D13F
:100B800082688A438260CDE7000100500003005074
:100B90002DE9F84F00270446009790F85800DFF839
:100BA000E0930D46B846012811D0012684F858601C
:100BB000206802F031FB60B1E06D40F02000E0659C
:100BC0005FF0010784F858803846BDE8F88F0220AE
:100BD000FBE7D5E900210C23206803EA91131844B0
:100BE000036B01F01F014FF01F0C0CFA01FCC2F364
:100BF000846223EA0C038A4013430363206802F0F3
:100C00000BFB8246206802F003FB5AEA00003CD14D
:100C1000AA6829682068B2F1004F37D002F00CFBB7
:100C20002068416921F00041416120686969C2681A
:100C3000C2F3C102520091402A69042A31D000EB6C
:100C400082002B68026EDFF83CC303F0F84302EA2F
:100C50000C020B431A4342F00041016620682A69E6
:100C6000A96900EB8200026E22F080720A430266DC
:100C7000297F22682869012910D0002102EB800019
:100C8000026E22F000720A4302667DE0002202F04A
:100C9000D3FA2068416941F00041C5E74FF0007187
:100CA000ECE7002102F0AEFA400320684FF00001AB
:100CB00072D002F0A7FA90FAA0F0B0FA80F128689A
:100CC00042036ED090FAA0F0B0FA80F0814204D1D5
:100CD00000221146206802F0BEFA0121206802F0CD
:100CE00091FA400320684FF001015DD002F08AFACA
:100CF00090FAA0F0B0FA80F12868420359D090FA37
:100D0000A0F0B0FA80F0814204D1002201212068D5
:100D100002F0A1FA0221206802F074FA4003206870
:100D20004FF0020148D002F06DFA90FAA0F0B0FA4C
:100D300080F12868420344D090FAA0F0B0FA80F025
:100D4000814204D100220221206802F084FA0321AA
:100D5000206802F057FA400320684FF0030133D0B7
:100D600002F050FA90FAA0F0B0FA80F1286842033D
:100D70002FD090FAA0F0B0FA80F0814204D1002286
:100D80000321206802F067FA2068816811F0010FE2
:100D900022D0ACE000E004E002F034FAC0F3846159
:100DA0008DE7C0F3846091E702F02CFAC0F3846110
:100DB000A2E7C0F38460A6E702F024FAC0F38461DE
:100DC000B7E7C0F38460BBE702F01CFAC0F38461AC
:100DD000CCE7C0F38460D0E72A7B296850F8B03FA5
:100DE000C1F3120C23EA0C0302F0180C664A22FA33
:100DF0000CF20A4013430360E968494577D128683B
:100E000041031CD090FAA0F1B1FA81F1491C01F024
:100E10001F0109294FEA403132D8002912D000BF02
:100E200090FAA0F1B1FA81F101F1010101F01F0185
:100E300006FA01F609D100BFC0F3846109E0C0F3EE
:100E40008461E3E7C0F38461EEE790FAA0F1B1FAC0
:100E500081F101F1010101F01F0146EA816102D136
:100E6000C0F3846003E090FAA0F0B0FA80F000F1E3
:100E7000010000F01F0000EB400041EA005132E0A9
:100E800000290ED090FAA0F1B1FA81F101F101012F
:100E900001F01F0106FA01F606D100BFC0F384611C
:100EA00006E0C0F38461F1E790FAA0F1B1FA81F1B4
:100EB00001F1010101F01F0146EA816102D1C0F395
:100EC000846003E090FAA0F0B0FA80F000F1010035
:100ED00000F01F002D4A00EB400002EB005041EAF9
:100EE000000141F00071AA68206802F0A5F92848C5
:100EF0002A6802423FF466AE26488168264B01F01C
:100F0000E0719A4202D0254B9A421CD10B021AD4AE
:100F10002268B2F1A04F7FF455AE826841F400011F
:100F200022F0E0720A4382601D481E490068B0FB4F
:100F3000F1F0401C00EB4000800000E0401E0090FB
:100F40000028FBD13EE6184D184BAA4207D1CD012F
:100F500005D422689A42F5D041F0807109E0144D21
:100F6000AA42EFD14A02EDD422689A42EAD041F473
:100F70008001826822F0E0720A43826022E600006B
:100F800000007F4000F0FF03FFFF0700000020FE8D
:100F90000000088000030050000021C31000C09032
:100FA0000C000020400D0300000052C7000100505B
:100FB000000084CB7047704770470000F8B54FF0D1
:100FC000000504002E46009502D0E06D10B107E048
:100FD0000120F8BD204600F0EBF8266684F8586042
:100FE00020688168C1F3407119B18168684A114075
:100FF000816020688168C1F3007189B98168654AA0
:10100000114041F080518160634864490068B0FB41
:10101000F1F04000801C00E0401E00900028FBD151
:1010200020688168C1F3007141B9E16D41F01001A0
:10103000E165216E41F001012166012502F0ECF825
:10104000E16DC90600D430B1E06D40F01000E065FC
:1010500001252846F8BDE06D20F4807040F00200C4
:10106000E0652068806810F0010F11D14FF0A040BA
:1010700080684B4900F00100896801F001010843D4
:1010800006D148486168826822F47C120A43826073
:10109000E168E06B627F0843A16841EA423108439E
:1010A00094F8241040EA0140012904D1218D3E4AE0
:1010B00002EB41410843E16A29B101F47871226BE6
:1010C000014342EA01002268D168384B19400143CC
:1010D000D16020680169626B21F0406111430161B8
:1010E000206802F095F870BB207F94F838108003D8
:1010F00040EA41022168C86844F202039843104361
:10110000C86020690028206801690AD041F4803154
:101110000161206850F8C01F22696FF30D0111436F
:1011200007E021F480310161206850F8C01F6FF39F
:101130000D01016094F8400001280CD0206801697D
:1011400021F001010161606901282068016B21F033
:101150000F0111D013E0D4E911010843D4E91312AF
:101160001143084321680A6940F2FC739A43104313
:1011700040F001000861E6E7226A521E1143016354
:10118000E06D20F0020040F00100E06561E7000042
:10119000C0FFFF5FC0FFFF7F0C000020400D030079
:1011A00000010050000300500000FEFF0740F0FF68
:1011B00070B598B00546142111A8FFF761F84421D5
:1011C0006846FFF75DF82868B0F1A04F3DD14FF4B5
:1011D0000040009080030F90684600F035FD08B194
:1011E000FFF796FB1A49C86C40F40050C864C86CFD
:1011F00000F400501690C86C40F00100C864C86C40
:10120000002600F0010016900320CDE9120611908F
:1012100011A94FF0904000F0EFFA0F4C0D482060FC
:101220000520C4E901068020C4E903604000606134
:101230008000A0612020C4E90706204600F0E4F801
:1012400008B1FFF765FB6C65A56218B070BD0000C2
:101250000010024008000240AC0100202DE9F041DE
:101260000446344817468846806800F01F05206809
:1012700001F0D2FF00285AD194F85800012856D026
:10128000012084F85800002625B1052D02D0092D33
:1012900000D003E02046FFF727FA18B184F8586021
:1012A000BDE8F081E06D40F60161884340F4807054
:1012B000E06521492068884202D14FF0A04100E05A
:1012C0000146814200D01DB9E06D20F48010E06538
:1012D000E06DC00404D5206E20F00600206600E01A
:1012E0002666616D1548C862616D15480863616DB9
:1012F0001448486321681C20086084F858602068FE
:10130000416841F0100141602068C16841F001016D
:10131000C16021683B4642464031606D00F0D4F820
:1013200021688A68084B1A40121D8A60B8E70220BB
:10133000B6E7000000030050000100505D06000801
:10134000DF060008C5060008C0FFFF7FF0B4016C8F
:101350000C6801680D6890F8442002F01F06042212
:1013600002FA06F3234211D06B070FD50B689B06D8
:1013700003D40B6823F004030B6090F8441001F0D1
:101380001F018A40016C4A60016B1DE0022303FAD1
:1013900006F727424FF0000C4FF0010218D0AF07BC
:1013A00016D50C68A40605D40C6824F00A040C6059
:1013B00080F8252090F8441001F01F018B40016C4B
:1013C0004B6080F824C0C16A00291AD0F0BC0847DD
:1013D0000823B340234214D02B0712D50B6823F007
:1013E0000E030B6090F84410036C01F01F0102FA29
:1013F00001F15960C26380F8252080F824C0416B58
:10140000E2E7F0BC7047000070B504000CD02B4A36
:1014100021681420914209D2294A0A44B2FBF0F013
:101420008000606427480AE0012070BD234A5242D0
:101430000A44B2FBF0F08000606420480838206461
:10144000022084F825000A6847F6F0708243D4E948
:1014500002031843D4E904352B431843A369184306
:10146000E3691843236A1843104308602046FFF7D6
:10147000FDF9A0680025B0F5804F00D16560A16C32
:1014800020790860D4E9130141606068401E032898
:1014900008D82046FFF70AFA606D0560D4E9160106
:1014A000416002E06565A565E565E563012084F8B6
:1014B000250084F82450002070BD0000080402407C
:1014C000F8FFFDBF0000024070B5044690F824000C
:1014D000002501280CD0012084F8240094F8256010
:1014E0000020012E06D084F824000225284670BD75
:1014F000022070BD022684F82560E063206806683B
:1015000026F0010606602046FFF7E2F9206B00286E
:101510002068016802D041F00E0106E021F00401CC
:1015200001602068016841F00A010160A06C016857
:10153000C90303D5016841F480710160606D18B181
:10154000016841F4807101602068016841F0010187
:101550000160CBE770B5044600F078FA0546601CE0
:1015600002D004484068044400F070FA401BA042D6
:10157000FAD370BD000000202DE9F041040006D030
:10158000DFF8E88194F85C00002518B107E001203D
:10159000BDE8F08184F85D50204600F0EFF8206847
:1015A000816921F01001816100F050FA064603279D
:1015B00005E000BF00F04AFA801B0A2811D8206815
:1015C00080690007F6D42068816941F001018161DA
:1015D00000F03CFA06460BE000F038FA801B0A28BF
:1015E00006D9206E40F00100206684F85C70CEE7DA
:1015F00020688069C007EFD02068816941F002014E
:1016000081612168414502D1594960680860207CA8
:1016100001282068816937D041F040018161607CF8
:1016200001282068816932D021F480418161A07C49
:101630000128206881692DD041F4805181612068A2
:101640008169A26821F44071114381612068816938
:1016500021F0A40181612068016921F0100101617C
:10166000E068012819D010B302281BD020688169D6
:1016700041F0800181612068016941F01001016140
:10168000E06803280ED012E021F04001C6E741F4E3
:101690008041CBE721F48051D0E72068816941F097
:1016A000040103E02068816941F020018161207E0E
:1016B000E26940066FF0FF0101EB0222A0F1007029
:1016C0001043226AA38A521E10430A0202EB03430C
:1016D00018432368D861A068B0F5407F10D1D4E9E1
:1016E0000A0301EB0321401E0843216B131303EB94
:1016F00001110843A18C02EB014108432168C86035
:10170000206850F8C01FE26B114301601948206443
:10171000216851F8802FA38E22F4F81242EA034286
:101720000A60144970316164216851F8802F94F87F
:10173000383022F0706242EA03620A600D49B0312B
:10174000A1640D49E1640C49D83121650A49F031A1
:10175000616500F5547120C08842FCD3A5652566FB
:10176000012084F85C00002012E7000000640040C3
:101770000065004000A4004088A5004010B598B066
:101780000446142111A8FEF77BFD44216846FEF7AC
:1017900077FD17492068884228D1801400904003C3
:1017A0000C90684600F050FA08B1FFF7B1F8114804
:1017B000816D41F000718165816D01F000711691BC
:1017C000C16C41F00101C164C06C11A900F00100BD
:1017D00016904FF4C05011900220129000201390E8
:1017E000149009201590C00600F006F818B010BD3E
:1017F00000640040001002402DE9F04FDFF8209215
:10180000002301260324A9F1040B85B00F2709F159
:10181000040AABF1040EFAE006FA03F52A407CD084
:1018200091F804C00CF0030CBCF1010F02D0BCF124
:10183000020F26D1D0F808C0CDF800C04FEA430C03
:1018400004FA0CF8CDF810C0DDF800C02CEA080C42
:10185000CDF800C0D1F80C80DDF810C008FA0CF803
:10186000DDF800C048EA0C08C0F80880D0F804C0D1
:101870002CEA050C0D79C5F300159D4045EA0C05D1
:1018800045600D79ED43AD070ED0C5684FEA4308BA
:1018900004FA08FC25EA0C05D1F808C00CFA08FC8B
:1018A0004CEA050CC0F80CC00D7905F00305022DBB
:1018B00016D1DD0800EB850CCDF808C0DCF82080DF
:1018C0005D074FEAD56C07FA0CF528EA05080D69A3
:1018D00005FA0CF5DDF808C045EA0805CCF82050FB
:1018E00005684FEA430CCDF808C004FA0CFC25EA61
:1018F0000C0591F804C00CF00308DDF808C008FAE4
:101900000CF848EA0508C0F800804D6815F4403F1F
:101910007CD0444DD5F860C000E077E04CF0010C7D
:10192000C5F860C02D6E23F0030C05F0010500958D
:101930003D4D65440295AD684FEA837C4FEA1C78C3
:1019400007FA08FC25EA0C05B0F1904F06D0DFF845
:10195000DCC0604505D14FF0010C20E04FF0000CD9
:101960001DE0DFF8CCC0604502D14FF0020C16E05C
:10197000DFF8C0C0604502D14FF0030C0FE0DFF884
:10198000B8C0604502D14FF0040C08E0DFF8ACC0ED
:10199000604502D14FF0050C01E04FF0060C0CFA47
:1019A00008FC4CEA050C029DC5F808C0D9F80050A7
:1019B000CC46D1F8048095435FEAC82800D515438A
:1019C000CCF80050DAF80050D446D1F804809543A2
:1019D0005FEA882800D51543CCF80050DBF80050AA
:1019E000DC46D1F8048095435FEA883800D515437A
:1019F000CCF80050DEF80050F446D1F8048095434E
:101A00005FEAC83800D51543CCF800505B1C0A6863
:101A100032FA03F57FF400AF05B0BDE8F08F0000A7
:101A2000080401400010024000000140000400488A
:101A300000080048000C004800100048001400484E
:101A40000AB1816170478162704700000148806877
:101A5000704700000000002002488168426811447D
:101A6000816070470000002010B50024032000F0C2
:101A700073F80F2000F008F808B1012401E000F02D
:101A800025F8204610BD000070B50E4E0546002416
:101A9000706898B14FF47A71B1FBF0F00A490968A7
:101AA000B1FBF0F000F03DFF40B9102D06D200224E
:101AB0002946501E00F030F8356000E00124204631
:101AC00070BD0000000000200C0000200A4882B019
:101AD000016E41F001010166016E01F0010100910A
:101AE000816D41F080518165806D00F080500090E3
:101AF00002B000F0A1B8000000100240002809DB8D
:101B000000F01F02012191404009800000F1E02017
:101B1000C0F8001170470000F0B40E4B1B680C4673
:101B2000C3F30223C3F10705042D00D90425191DB1
:101B3000072901D2002300E0DB1E012606FA05F189
:101B4000491E214099409E40761E16403143F0BC0C
:101B500002F0A3BB0CED00E0064900F007020868A4
:101B60004FF6FF03184040EA0220034A1043086082
:101B7000704700000CED00E00000FA052B492C4BEB
:101B80000A6832214A432B4940B1B0F5007F08680A
:101B900029D020F4C06040F480602CE00868C0F3D5
:101BA0004120022804D051F8800F20F4807022E0F8
:101BB000D1F8800020F48070C1F88000086820F41B
:101BC000C06040F400700860B2FBF3F0401C00E01D
:101BD000401E4A69520501D50028F9D148694005DF
:101BE0000AD503207047C0F34120022806D051F8DF
:101BF000800F40F48070086000207047D1F88000AA
:101C000040F48070C1F88000086820F4C06040F49F
:101C100000700860B2FBF3F0401C00E0401E4A690F
:101C20005205DBD50028F9D1D8E700000C000020D0
:101C300040420F00007000400248816841F480413A
:101C400081607047007000402DE9F8430446006849
:101C500000269D4D00035ED5A86D0027C00008D466
:101C6000A86D40F08050A865A86D012700F0805055
:101C70000090DFF85892D9F8001041F48071C9F84B
:101C80000010FFF7E3FE804606E000BFFFF7DEFE30
:101C9000A0EB080002282BD8D9F80000C005F5D524
:101CA000D5F8900010F4407014D0216C814211D00E
:101CB000D5F89000D5F8901020F4407041F48031B0
:101CC000C5F89010D5F8901021F48031C5F8901027
:101CD000C5F89000C00711D0FFF7B8FE804641F26A
:101CE000883907E0FFF7B2FEA0EB0801494501D9AA
:101CF00003260BE0D5F890008007F3D5D5F89000C7
:101D0000216C20F440700843C5F890001FB1A86D05
:101D100020F08050A8652078C00707D0D5F888004B
:101D2000616820F003000843C5F888002078800728
:101D300007D5D5F88800A16820F00C000843C5F845
:101D400088002078400707D5D5F88800E16820F0A2
:101D500030000843C5F888002078000707D5D5F87B
:101D60008800216920F0C0000843C5F88800207869
:101D7000800607D5D5F88800616920F440600843E3
:101D8000C5F888002078400607D5D5F88800A169F5
:101D900020F440500843C5F888002078000607D595
:101DA000D5F88800E16920F440400843C5F8880070
:101DB0002088C00507D5D5F88800216A20F4403076
:101DC0000843C5F888002088800507D5D5F8880025
:101DD000616A20F440200843C5F888002088400547
:101DE0000FD5D5F88800A16A20F440100843C5F843
:101DF0008800A06AB0F5801F03D1E86840F4801025
:101E0000E860208800050FD5D5F88800E16A20F445
:101E100040000843C5F88800E06AB0F5800F03D1A0
:101E2000E86840F48010E8602088C0040FD5D5F839
:101E30008800216B20F040700843C5F88800206BB3
:101E4000B0F1807F03D1E86840F48010E86020881A
:101E50004FF0006180040ED5D5F88800626B20F049
:101E600040601043C5F88800606B884203D1E86881
:101E700040F48010E860208840040ED5D5F8880032
:101E8000A26B20F040601043C5F88800A06B884228
:101E900003D1E86840F48010E860208800040FD582
:101EA000D5F88800E16B20F040500843C5F8880061
:101EB000E06BB0F1805F03D1E86840F48030E86007
:101EC0003046BDE8F883000000100240007000407A
:101ED0002DE9F0470E4605004FF0000725D0DFF84A
:101EE000AC81D8F8000000F00F00B0420CD2D8F856
:101EF000001021F00F013143C8F80010D8F800009D
:101F000000F00F00B04210D12968614CC80741F2BF
:101F1000883A5AD06868DFF87C91032808D00228F4
:101F200020682DD0400500282CDB0120BDE8F0877B
:101F300020688001F9D5E06800F00302E068C0F392
:101F40000310401C032A19D0534A00BFB2FBF0F023
:101F5000E268C2F306225043E268C2F34162521CB7
:101F60005200B0FBF2F0484517D9A06810F0F00F0E
:101F70000CD0880711D5A86840B10EE0474AE5E7C4
:101F80008003D0E700F0B6F8484506D9A06820F0F5
:101F9000F00040F08000A0608027A068696820F011
:101FA00003000843A060FFF751FD814606E000BF33
:101FB000FFF74CFDA0EB090151453AD8A0686968CC
:101FC00000F00C00B0EB810FF2D12868810714D526
:101FD000400703D5A06840F4E060A06028780007BF
:101FE00005D5A06820F4605040F4E060A060A068CF
:101FF000A96820F0F000084304E0802F03D1A06816
:1020000020F0F000A060D8F80010404601F00F0169
:10201000B14216D9016821F00F0131430160FFF789
:1020200015FD074607E000BFFFF710FDC11B514536
:1020300001D903207AE7D8F8000000F00F00B04281
:10204000F2D12878400705D5A068E96820F4E0605F
:102050000843A0602878000706D5A068296920F405
:10206000605040EAC100A06000F044F8A1680C4A4A
:10207000C1F30311515C01F01F01C8400949086018
:1020800009480068BDE8F047FFF7FEBC00200240A9
:102090000010024000B4C4040024F40000127A00CE
:1020A000B44300080C000020000000200548064949
:1020B00000688968054AC1F30221515C01F01F01E3
:1020C000C84070470C00002000100240C4430008C4
:1020D0000548064900688968054AC1F3C221515C78
:1020E00001F01F01C84070470C00002000100240A2
:1020F000C4430008184910B58868C0F38102174826
:10210000012A0BD08A684310C2F38102022A06D04A
:102110008A68C2F38102032A03D0002010BD18464A
:1021200010BDCA6802F00304CA68C2F30312521C4D
:10213000032C02D0B0FBF2F001E0B3FBF2F0CA686E
:10214000C968C2F306225043C1F34161491C4900EA
:10215000B0FBF1F010BD0000001002400024F400BC
:102160002DE9F84304007AD02078F84DC00747D015
:10217000A868E96800F00C0001F003010C2802D007
:10218000082817D001E0032914D06068B0F5803F1B
:1021900017D0B0F5A02F286817D020F48030286021
:1021A000286820F4802028606068E0B1FFF74EFCCA
:1021B000064614E02868800322D560680028D2D043
:1021C0001EE0286840F48030EDE740F4802028606D
:1021D000F7E700BFFFF73AFC801B642870D8286837
:1021E0008003F7D50CE0FFF731FC064605E000BFA1
:1021F000FFF72CFC801B6428F0D828688003F7D4F4
:10220000207880074CD5A868E96800F00C0001F040
:1022100003010C2802D004280DD001E002290AD0C5
:10222000E068002828682BD040F480702860FFF711
:102230000DFC064619E02868400502D5E068002834
:1022400091D06868217C20F0FE4040EA016068601F
:10225000BF480068FFF718FC002800D120E072E1B9
:10226000FFF7F4FB801B0228B8D828684005F7D593
:102270006868217C20F0FE4040EA016068600FE061
:1022800020F480702860FFF7E1FB064605E000BF00
:10229000FFF7DCFB801B0228A0D828684005F7D494
:1022A0002078000729D560690028D5F8940013D05C
:1022B00040F00100C5F89400FFF7C8FB064606E0B1
:1022C00090E000BFFFF7C2FB801B022886D8D5F83C
:1022D00094008007F6D510E020F00100C5F89400C6
:1022E000FFF7B4FB064604E0FFF7B0FB801B0228B3
:1022F00078D8D5F894008007F6D42078400761D5C7
:10230000A86D0026C00008D4A86D40F08050A865D4
:10231000A86D012600F0805000908E480168C90524
:1023200011D40168804641F480710160FFF78EFB93
:10233000074604E0FFF78AFBC01B022852D8D8F8F2
:102340000000C005F6D5A068012815D00528D5F8ED
:10235000900016D020F00100C5F89000D5F890004C
:1023600020F00400C5F89000A06841F28838B8B1A8
:10237000FFF76CFB07460EE0D5F8900040F0010037
:10238000F0E740F00400C5F89000F5E7FFF75EFBCA
:10239000C11B414526D8D5F890008007F6D50CE042
:1023A000FFF754FB074604E0FFF750FBC11B414514
:1023B00018D8D5F890008007F6D41EB1A86D20F08B
:1023C0008050A8652078800629D5A0690028D5F816
:1023D000980013D040F00100C5F89800FFF736FBD5
:1023E000064606E075E000BFFFF730FB801B0228C1
:1023F0006FD8D5F898008007F6D510E020F00100DE
:10240000C5F89800FFF722FB064604E0FFF71EFB25
:10241000801B02285DD8D5F898008007F6D4E069C3
:10242000F0B3A968C1F3810103295DD002282868AF
:1024300020F08070286003D0FFF708FB04464BE0D3
:10244000FFF704FB064604E0FFF700FB801B0228B1
:102450003FD828688001F7D4F4E908016FF00F0233
:1024600002EB01110843218A5204490802EB415151
:10247000A26841EA02210843217D4FF07E424908CB
:1024800002EB41610843217B40EAC160E968324ABE
:1024900011400843E860286840F08070286000E040
:1024A0005EE0E86840F08070E860FFF7CFFA04462D
:1024B00005E000BFFFF7CAFA001B022809D8286808
:1024C0008001F7D54CE000BFFFF7C0FA001B0228DF
:1024D00002D90320BDE8F88328688001F4D4E868B5
:1024E0001E490840E8603BE00128F3D0E868226A12
:1024F00000F00301914226D1616A00F0F002090167
:10250000103991421FD1A26A00F4FE41B1EB022FB3
:1025100019D194F82C2000F07841B1EBC26F12D1A0
:10252000218E00F4C00249084905A1F5001191422D
:1025300009D194F8341000F0C06049084906A1F1AF
:10254000007181420CD00120C4E70000001002405D
:1025500000000020007000400C809F01FCFFEEFE98
:102560000020B7E770B5040009D0606A002540B1CB
:1025700025616561A56294F85D0040B10CE0012021
:1025800070BD6068B0F5827FF4D0E561F2E784F851
:102590005C50204600F05CF8022084F85D00206862
:1025A000016821F040010160E1684FF4E06291426E
:1025B00001D9002001E04FF48050B1F5706F02D0D6
:1025C000914200D0A562A188228901F4827102F4AF
:1025D00004421143227C02F002021143227D02F0E8
:1025E00001021143228B02F400721143227F02F098
:1025F0003802114394F8202002F080021143228D0A
:1026000002F40052114322681160A169042202EA17
:10261000114194F8242000F4805002F0100211437C
:1026200094F8342002F008021143A28902F4706287
:1026300011430143206841602068C16921F40061B1
:10264000C1612566012084F85D00002070BD000096
:1026500010B586B0044614216846FDF711FE1249F4
:10266000206888421ED11148016E41F480510166F4
:10267000016E01F480510591C16C41F00101C1640A
:10268000C06C694600F001000590E0200090022037
:102690000190002002900390052004904FF090409C
:1026A000FFF7AAF806B010BD00300140001002404C
:1026B0002DE9FF5F1D46934604464FF001090E9E2B
:1026C000FFF7C4F9074694F85D006168012806D059
:1026D000B1F5827F39D1A168B1BB042835D1019809
:1026E00000287CD0BBF1000FFBD0002DF9D094F86E
:1026F0005C00012829D04FF0010A84F85CA094F80E
:102700005D00042802D0052084F85D004FF0000829
:10271000C4F86080C4F840B0A4F84650A4F844500F
:102720000199A163E587A587C4F84C80C4F850805F
:10273000E0684FF4E061884201D8012D09D9206892
:10274000426822F4805208E0FFE7022004B0BDE8AE
:10275000F09F2068426842F480524260206802681C
:10276000520603D4026842F040020260E0688842E8
:10277000606846D908B1012D3BD1A06B0188206863
:10278000C160A06B801CA063E08F401EE08730E03A
:102790002068816889070FD5E18F69B1B9F1010F10
:1027A0000AD1A16B0988C160A06B801CA063E08F77
:1027B000401EE0874FF0000920688168C90711D0EA
:1027C000B4F8461071B1C068216C0880206C801C80
:1027D0002064B4F84600401EA4F8460000E09EE0E5
:1027E0004FF00109FFF732F9C01BB04201D3701C52
:1027F00074D1E08F0028CBD1B4F846000028C7D1AF
:1028000075E008B1012D6BD1E08F0128A06B08D9CC
:1028100021680088C860A06B801CA063E08F801EC8
:1028200007E0216800780873A06B401CA063E08F6C
:10283000401EE08754E02068816889071AD5E18F3F
:10284000C1B1B9F1010F15D1E18F0129A16B07D9F0
:102850000988C160A06B801CA063E08F801E06E029
:1028600009780173A06B401CA063E08F401EE087D5
:102870004FF0000920688168C90728D0B4F84610D5
:1028800029B3B4F84610012914D9C068216C088016
:10289000206C801C2064B4F84600801EA4F846001A
:1028A000B4F84600012810D82068416841F48051EE
:1028B00041600AE0007B216C0870206C401C2064A1
:1028C000B4F84600401EA4F846004FF00109FFF797
:1028D000BDF8C01BB04202D3701C01D012E08EB113
:1028E000E08F0028A7D1B4F846000028A3D13A46CB
:1028F0003146204600F0BEFE50B12020206684F80C
:102900005C800CE084F85DA084F85C8003201DE707
:1029100084F85DA084F85C80206E0028F7D0012048
:1029200014E710B5401EB0F1807F01D3012010BD27
:102930004FF0E02460610F21601701F0AEFC002031
:10294000A06107202061002010BD000030B590F884
:102950003C20012A42D0012280F83C20CA688B68C2
:1029600022F440721A434B6822F480621A430B68C7
:1029700022F400621A430B6922F480521A434B6915
:1029800022F400521A430B6B22F480421A430B8B41
:1029900022F4702242EA0342CB6922F080521A43A9
:1029A0000F4D03680024AB4202D00E4DAB4210D154
:1029B0000D8D22F4700242EA05520D6A22F08072F7
:1029C0002A434D6A22F000722A43C96A22F000525B
:1029D0000A435A6480F83C40002030BD022030BDDC
:1029E000002C014000340140F0B590F83C20012A51
:1029F0003AD0012580F83C50022280F83D2003683F
:102A00005A689C68194E1A4FB34201D0BB4204D198
:102A100022F4700C4A6842EA0C02DFF858C002EA5D
:102A20000C02D1F800C04CEA020CC3F804C00268E2
:102A3000B2420DD0B2F1804F0AD00F4B9A4207D06C
:102A40000E4B9A4204D0BA4202D00D4B9A4204D1A6
:102A5000896824F080031943916080F83D5000217B
:102A600080F83C100846F0BD0220F0BD002C01406B
:102A7000003401408FFFFFFD0004004000080040CB
:102A80000040014010B5040003D094F83D0010B19F
:102A900007E0012010BD002084F83C00204600F033
:102AA00023F8022084F83D00211D206800F030FF4B
:102AB000012084F8480084F83E0084F83F0084F840
:102AC000400084F8410084F8420084F8430084F810
:102AD000440084F8450084F8460084F8470084F8F0
:102AE0003D00002010BD000008B50C4A01680C48EC
:102AF000914207D1016E41F400610166006E00F45D
:102B0000006009E0074A914207D1816D41F002015E
:102B10008165806D00F00200009008BD002C01402E
:102B2000001002400004004090F83D10012901D03F
:102B300001207047022180F83D1000680F4988424B
:102B40000ED0B0F1804F0BD00D49884208D00D490E
:102B5000884205D00C49884202D00C49884207D1EE
:102B600081680B4A1140062906D0B1F5803F03D099
:102B7000016841F00101016000207047002C014014
:102B800000040040000800400034014000400140C3
:102B90000700010070B5044690F83C0000250128AC
:102BA00014D0012684F83C60022084F83D0022689D
:102BB0009068364B184020F47F4090600868702879
:102BC0002ED010DC10F00F0F03D021E04FF00200E8
:102BD00070BD4FEA2012072A1AD2DFE802F05252E3
:102BE00052524A3840002A4BC21A984249D009DC56
:102BF000B0F5805F0DD0B0F5005F1CD0B0F1101FB4
:102C000006D13EE0102A3CD0202A3AD0502A38D0B3
:102C1000012584F83D60002084F83C00284670BD02
:102C2000CB68D1E90121206800F0DDFE20688168D1
:102C300041F0770109E0CB68D1E90121206800F07B
:102C4000D2FE2068816841F480418160E1E7CA6872
:102C50004968206801F072F85021206806E0CA68CF
:102C60004968206801F07BF86021206800F0C6FE0A
:102C7000CFE7CA684968206801F060F84021206801
:102C8000F4E7226801461046F0E7000088FFCEFF17
:102C90002000100010B586B0044614216846FDF7E8
:102CA000EFFA0F492068884217D10E48C16C41F0F5
:102CB0000101C164C06C694600F0010005904FF449
:102CC000E060009002200190002002900390062016
:102CD00004904FF09040FEF78FFD06B010BD00004D
:102CE000002C01400010024070B5044690F83C00F2
:102CF00000260D4601280BD0012084F83C000C2A48
:102D00004AD007DC82B1042A20D0082A06D131E05B
:102D1000022070BD102A53D0142A63D0012600204F
:102D200084F83C00304670BD206800F071FE2068D9
:102D3000816941F0080181612068816921F0040105
:102D40008161206881692A69114311E0206800F0DF
:102D5000ADFE2068816941F400618161206881696C
:102D600021F480618161206881692A6941EA022138
:102D70008161D4E7206800F0E1FE2068C16941F07C
:102D80000801C1612068C16921F00401C1612068A6
:102D9000C1692A69114311E0206800F017FF20681B
:102DA000C16941F40061C1612068C16921F4806199
:102DB000C1612068C1692A6941EA0221C161AEE7A7
:102DC000206800F04BFF2068016D41F008010165AB
:102DD0002068016D21F0040101652068016D2A69F8
:102DE000114311E0206800F071FF2068016D41F48B
:102DF000006101652068016D21F480610165206832
:102E0000016D2A6941EA0221016588E710B50400D5
:102E100003D094F83D0010B107E0012010BD002060
:102E200084F83C00204600F022F8022084F83D009F
:102E3000211D206800F06CFD012084F8480084F812
:102E40003E0084F83F0084F8400084F8410084F894
:102E5000420084F8430084F8440084F8450084F874
:102E6000460084F8470084F83D00002010BD7047FC
:102E700030B50446022269B1042912D0082917D0BE
:102E80000C291CD0102921D094F84300012824D00B
:102E9000012030BD94F83E000128F9D184F83E208D
:102EA0001DE094F83F000128F2D184F83F2016E09D
:102EB00094F840000128EBD184F840200FE094F80A
:102EC00041000128E4D184F8412008E094F8420050
:102ED0000128DDD184F8422001E084F8432001225A
:102EE000206800F073FD194B20681949194A98426F
:102EF00009D0884207D0904205D0174DA84202D091
:102F0000164DA84203D1456C45F400454564206840
:102F100098420CD0B0F1804F09D0114B984206D0A6
:102F2000104B984203D0884201D0904207D181686B
:102F30000D4A1140062906D0B1F5803F03D0016843
:102F400041F001010160002030BD0000002C014073
:102F5000003401400040014000440140004801406D
:102F600000040040000800400700010090F88410B1
:102F7000012918D0012180F884102421C0F888107C
:102F800001680A680B6823F001030B6022F000510E
:102F900000224266036819602021C0F8881080F87A
:102FA0008420104670470220704770B5044690F8A0
:102FB000840001281DD0012084F884002420C4F856
:102FC000880020680568026822F00102026020681B
:102FD000826822F060620A438260204600F0D2FEDE
:102FE000206805602020C4F88800002084F8840050
:102FF00070BD022070BD70B5044690F884000128B1
:103000001DD0012084F884002420C4F888002068A2
:103010000568026822F0010202602068826822F0DE
:1030200060420A438260204600F0ACFE20680560E2
:103030002020C4F88800002084F8840070BD02209D
:1030400070BD10B5040003D0D4F8880010B107E0BB
:10305000012010BD002084F88400204600F026F8EE
:103060002420C4F888002068016821F00101016073
:10307000A06A10B1204600F0A7FE204600F088FFAD
:103080000128E6D02068416821F490414160206821
:10309000816821F02A0181602068016841F0010106
:1030A00001602046BDE8104000F0F2BE70B598B057
:1030B0000446142111A8FDF7E3F844216846FDF702
:1030C000DFF820492068884239D10420002400908C
:1030D00003946846FEF7B8FD08B1FDF719FC1A48DD
:1030E000816D41F480218165816D01F4802116910B
:1030F000C16C41F00401C164C16C01F0040116917E
:10310000C16C41F00201C164C06C022500F00200F4
:10311000169007264FF40060CDE91254CDE914460D
:10312000119011A90948FEF767FB2802CDE9125456
:10313000CDE91446119011A90548FEF75DFB18B0C2
:1031400070BD000000480040001002400008004828
:10315000000400482DE9F8430446D0F8880098465A
:1031600016460D46202802D00220BDE8F883A5B1FE
:103170009EB10020C4F890002120C4F888001834C3
:10318000FEF764FCA6878146E68754F8100C2027DA
:10319000183CB0F5805F02D003E00120E5E720692C
:1031A00010B12E46002510E000260EE080212046BA
:1031B00001F028F8C0B9DEB116F8010B2168886269
:1031C000B4F85600401EA4F85600B4F856004B461A
:1031D0004FF00002CDF800800028E7D14FF0400109
:1031E000204601F00FF840B1C4F888700320BCE716
:1031F00035F8020BC0F30800E0E7C4F8887000203F
:10320000B3E7FEE700EB8100006E00F0F840704786
:103210008068C0F3C00070478068C0F380007047CA
:103220008068C0F380007047C06810F4406F01D020
:103230000020704701207047042303EAD15310B5E2
:1032400018444369C1F3045107248C40A3438A40C6
:103250001343436110BD00EB8100016E21F000417A
:10326000114301667047000010B58CB0002408942B
:103270000994202168460A94FDF702F825484FF08A
:10328000A041082201604FF48011C0E90114C4601C
:1032900001210461C0E9051204774177022202622C
:1032A00080F82440C462046380F83810C46380F856
:1032B0004040FDF783FE08B1FDF72AFB08A9154839
:1032C0000894FDF7F9FB08B1FDF722FB12480090C6
:1032D0000620CDE901047F2003900420CDE90404F9
:1032E00069460C48FDF754FC08B1FDF711FB0B488B
:1032F00000900C20019069460648FDF749FC08B192
:10330000FDF706FB022206490248FDF7A7FF0CB0B5
:1033100010BD0000400100200200300404006008DD
:10332000CC0000200D4808B5816C41F00401816497
:10333000816C01F004010091816C41F00101816414
:10334000806C002200F00100009011460B20FEF777
:10335000E3FBBDE808400B20FEF7D0BB00100240A5
:10336000114810B50F490160002141608160C160C2
:103370000174417481741022426101220223C0E968
:103380000623C0E908328262C262C0E90C2181636F
:10339000C163FEF7F1F8002803D0BDE81040FDF747
:1033A000B7BA10BD006400400C02002010B586B012
:1033B00014216846FCF764FF1548C16C41F0010117
:1033C000C164C16C01F001010591C16C41F00401BF
:1033D000C164C16C01F004010591C16C41F00201AE
:1033E000C164C06C0B4C00F002000590002210215B
:1033F0002046FEF725FB1020009001200021CDE99A
:103400000101039169462046FEF7F6F906B010BDAA
:103410000010024000080048124810B51049016031
:103420004FF48271416000214FF47062C0E90212D2
:103430000122C0E90412520282612022C0E9072160
:1034400007224162C0E90A1201634163FFF78AF86B
:10345000002803D0BDE81040FDF75ABA10BD0000A7
:10346000003001407002002010B59CB00024199477
:103470001A9417941894149415941C210DA816945A
:10348000FCF7FEFE34216846FCF7FAFE3C483B4957
:10349000C0E900142021816041F29A01C0E90314BF
:1034A0008021C0E90541FFF7EDFA08B1FDF730FAD8
:1034B0004FF48050179017A93148FFF76BFB08B104
:1034C000FDF726FA2E48FFF7A1FC08B1FDF720FA18
:1034D0001494159414A92A481694FFF785FA08B194
:1034E000FDF716FA6020CDE90D040F9410941194A5
:1034F000129400220DA922481394FFF7F5FB08B19E
:10350000FDF706FA04220DA91D48FFF7EDFB08B1EF
:10351000FDF7FEF908220DA91948FFF7E5FB08B1F0
:10352000FDF7F6F900944FF40050CDE90440039400
:103530000003CDE9084001940294069407940A948C
:103540000B9469460E480C94FFF700FA08B1FDF79A
:10355000DFF90B48FFF7E8FA00210948FFF788FC7C
:1035600004210748FFF784FC08210548FFF780FC89
:103570000348FFF78FFB1CB010BD0000002C01407A
:10358000D402002010B588B000241948009401949A
:1035900002940394049405941449069401604FF432
:1035A0009671C0E901144FF6FF71C0E90314802140
:1035B0008161FFF767FA08B1FDF7AAF94FF480506F
:1035C000009069460A48FFF7E5FA08B1FDF7A0F94F
:1035D000049404A906480694FFF706FA08B1FDF71B
:1035E00097F90348FFF7A0FA08B010BD00040040A7
:1035F00020030020174810B51549016016494160A5
:10360000002181600C22C160C0E904128161C161A6
:10361000016241628162FFF714FD08B1FDF778F99C
:1036200000210C48FFF7E7FC08B1FDF771F9002114
:103630000848FFF7BAFC08B1FDF76AF90548FFF73B
:1036400095FC002803D0BDE81040FDF761B910BD1E
:10365000004800406C030020A0252600FEE7FEE79E
:10366000002101E0414040080028FBD101F00100A9
:1036700070477047F8B515460E460B460092044653
:1036800000224FF4C05100F037F888B933460022C9
:1036900080212046009500F09FF848B9334600226B
:1036A0004FF4C0612046009500F026F8002804D0B1
:1036B000206E40F0200020660320F8BD11B50C4CB0
:1036C00083B0002210212046FEF7BAF94FF6FF70B2
:1036D0000090012301AA03A90648FEF7E9FF012291
:1036E00010212046FEF7ACF9BDF8040004B010BD6F
:1036F00000080048700200202DE9FE4F4FF0000A3C
:10370000984617460E4604460C9D8DF804A0FEF719
:103710009DF9411BA8EB0105FEF798F98146206849
:103720004FF4C06B0C3002902A480068C0EBC00018
:1037300000EB8000000D6843009043E05E4506D139
:103740002FB9029800788DF804009DF80400B8F1B4
:10375000FF3F37D0FEF77AF9A0EB0900A84203D269
:1037600015B1009858B32BE02068416821F0E001C2
:1037700041606068B0F5827F0BD1A068B0F5004F62
:1037800002D0B0F5806F04D12068016821F04001BB
:103790000160A06AB0F5005F09D12068016821F4DA
:1037A000005101602068016841F40051016001206E
:1037B00084F85D0084F85CA00320BDE8FE8F00253E
:1037C000401E0090206880683040B842B6D100208A
:1037D000F3E700000C0000202DE9F8431E46914657
:1037E00088460446089DFEF731F9401B351AFEF75E
:1037F0002DF9074625480068C0F3CB30684338E010
:10380000701C37D0FEF722F9C01BA84203D215B1B5
:10381000009860B32CE02068416821F0E00141602D
:103820006068B0F5827F0BD1A068B0F5004F02D080
:10383000B0F5806F04D12068016821F0400101607B
:10384000A06AB0F5005F09D12068016821F4005139
:1038500001602068016841F400510160012084F892
:103860005D00002084F85C000320BDE8F88300259B
:10387000401E00902068816838EA010004D00021D1
:103880004945BDD10020F0E70121F9E70C000020F7
:103890007047FEF7E1B800B593B038216846FCF7F1
:1038A000EFFC14210EA8FCF7EBFC0020FEF766F9F4
:1038B0000220C1010391402104910421CDE90801B6
:1038C00000905521CDE90A1007900C900D906846A4
:1038D000FEF746FC08B172B6FEE70F200E900320FB
:1038E0000F90002010901190129004210EA8FEF766
:1038F000EFFA002801D072B6FEE713B000BD000059
:103900000248016841F470010160704788ED00E0F1
:103910002DE9F0430268264B264D274E274C4FF0E9
:103920008049984207D0484505D0A84203D0B0420C
:1039300001D0A04203D122F070074A683A43204FD9
:10394000DFF880C0DFF8808098420DD048450BD06A
:10395000A84209D0B04207D0A04205D0B84203D057
:10396000604501D0404503D122F44075CA682A431E
:103970004D6922F080022A4302608A68C2620A68A6
:103980008262984207D0A04205D0B84203D0604579
:1039900001D0404501D109690163012141610169FB
:1039A000C90703D0016921F001010161BDE8F0837D
:1039B000002C014000040040000800400034014099
:1039C00000400140004401400048014010B501F0B2
:1039D0001F030121046A99408C430462016A9A40E2
:1039E0001143016210BD10B5846842EA032224F439
:1039F0007F440A432243826010BD00008268034B6B
:103A00001A400A4342F00701816070478FFFCFFFE1
:103A10002DE9F043056A026A22F00102026243685E
:103A200082691C4C25F0020522400C6822F003023A
:103A300014438A68194E2A43174D194FDFF864C0A2
:103A4000DFF86490A84207D0B04205D0B84203D056
:103A5000604501D0484506D122F00808CA6842EA0C
:103A6000080222F00402A84207D0B04205D0B842B2
:103A700003D0604501D0484505D14D6923F440731A
:103A80001D438B692B434360846149684163026233
:103A9000BDE8F0838FFFFEFF002C014000340140A1
:103AA000004001400044014000480140F0B5056A73
:103AB000026A22F01002026242688369194C1B4EAE
:103AC00023400C6823F4407343EA042425F02003C8
:103AD0008D6843EA0513144DA84201D0B04206D1C7
:103AE000CF6823F0800343EA071323F04003A84282
:103AF0000AD0B04208D00E4DA84205D00D4DA842C4
:103B000002D00D4DA84207D14D6922F4406242EA2D
:103B100085028D6942EA8502426084614968816359
:103B20000362F0BDFF8FFFFE002C01400034014016
:103B3000004001400044014000480140F0B5056AE2
:103B4000026A22F4807202624368C269194C1B4EF9
:103B500022400C6822F00302144325F400728D68A1
:103B600042EA0522144DA84201D0B04206D1CF68E6
:103B700022F4006242EA072222F48062A8420AD0BC
:103B8000B04208D00E4DA84205D00E4DA84202D03A
:103B90000D4DA84207D14D6923F4405343EA051364
:103BA0008D6943EA05134360C4614968C1630262D9
:103BB000F0BD00008FFFFEFF002C014000340140EB
:103BC000004001400044014000480140F0B5056A52
:103BD000026A22F4805202624268C369194C1B4E89
:103BE00023400C6823F4407343EA042425F4005373
:103BF0008D6843EA0533144DA84201D0B04206D186
:103C0000CF6823F4004343EA073323F48043A842F8
:103C10000AD0B04208D00E4DA84205D00D4DA842A2
:103C200002D00D4DA84207D14D6922F4404242EA2C
:103C300085128D6942EA85124260C4614968016457
:103C40000362F0BDFF8FFFFE002C014000340140F5
:103C500000400140004401400048014030B5056A81
:103C6000026A22F4803202624268036D114C2340E2
:103C70000C681C4325F400330D8943EA05430E4DBF
:103C8000A8420BD00D4DA84208D00D4DA84205D03A
:103C90000C4DA84202D00C4DA84204D14D6922F42B
:103CA000803242EA05224260046549688164036209
:103CB00030BD00008FFFFEFF002C014000340140AA
:103CC00000400140004401400048014030B5046A12
:103CD000026A22F4801202624268036D114D24F4DC
:103CE00000142B400D6843EA05230D8944EA05546E
:103CF0000D4DA8420BD00D4DA84208D00C4DA84246
:103D000005D00C4DA84202D00B4DA84204D14D69FC
:103D100022F4802242EA8522426003654968C16438
:103D2000046230BDFF8FFFFE002C014000340140D3
:103D300000400140004401400048014010B5036AC2
:103D4000046A24F001040462846924F0F00444EA63
:103D5000021423F00A020A438461026210BD10B506
:103D6000036A046A24F010040462846923F0A00347
:103D700024F4704444EA023243EA01118261016290
:103D800010BD000030B5416EB9B10268916892680B
:103D9000C1F342610B4B520F9C5CE50003F1080438
:103DA000A25CB5FBF2F2A0F86A205A5C615CD2001A
:103DB000B2FBF1F1A0F8681030BD0121A0F86A1043
:103DC000F8E70000A443000890F82810090706D57A
:103DD00001684A68836B22F400421A434A6090F8F3
:103DE0002810C90706D001684A68C36A22F4003265
:103DF0001A434A6090F82810890706D501684A6876
:103E0000036B22F480321A434A6090F82810490765
:103E100006D501684A68436B22F480221A434A603F
:103E200090F82810C90606D501688A68C36B22F489
:103E300080521A438A6090F82810890606D50168D6
:103E40008A68036C22F400521A438A6090F82810A2
:103E5000490611D501684A68436C22F480121A435E
:103E60004A60416CB1F5801F06D101684A68836CD5
:103E700022F4C0021A434A6090F82810090606D5B9
:103E800001684A68C06C22F4002202434A6070470D
:103E90002DE9F84300260446C0F89060FDF7D6FDF2
:103EA0008046206800684FF0200500076FF07E47CD
:103EB00013D54346002229042046009700F0A2F9BA
:103EC00058B1216851E8000F20F0800041E800025D
:103ED000002AF6D1C4F8885021E020680068400725
:103EE00022D5434600224FF480012046009700F07F
:103EF00089F9C8B1216851E8000F20F4907041E8B9
:103F00000002002AF6D12068083050E8001F21F096
:103F1000010140E80012002AF5D1C4F88C5084F861
:103F200084600320BDE8F883C4F88850C4F88C503E
:103F300044F86C6F666026760020F3E710B50268DF
:103F400052E8001F21F4907142E80013002BF6D1D3
:103F50000E4B0268083252E8001F194042E8001474
:103F6000002CF6D1C16E012908D1016851E8002F5B
:103F700022F0100241E80023002BF6D12021C0F8E6
:103F80008C100021C166416710BD0000FEFFFFEFED
:103F90002DE9F0410446016880682269E369104315
:103FA000626900251A431043DFF82CC20A688B4B64
:103FB0001A4002430A6020684168E26821F44051D7
:103FC000114341602168A069614501D0226A104314
:103FD0008A68834B1A4002438A602068C16A626A19
:103FE00021F00F011143C1627E4923687E488B4254
:103FF0000DD1D0F8880010F0030006D0012855D06C
:10400000022842D003283FD152E001203DE0774909
:104010008B420BD1D0F8880010F00C0035D004286A
:1040200033D0082840D00C282ED141E070498B4273
:104030000BD1D0F8880010F0300026D0102835D0F1
:10404000202831D030281FD132E06A498B420BD171
:10405000D0F8880010F0C00017D0402826D0802863
:1040600022D0C02810D123E063450DD1D0F88800BC
:1040700010F4406009D0B0F5806F17D0B0F5006F34
:1040800012D0B0F5406F13D010205B495B4F002673
:104090004FF4004263453BD160B1022813D004289D
:1040A0000BD0082872D10DE00220EEE70420ECE7E7
:1040B0000820EAE7FDF7FAFF01E0FEF71BF8010030
:1040C00001D17CE01146606A37F810206768B1FBC7
:1040D000F2F007EB4703834270D8B0EB073F6DD88F
:1040E000002308461946FCF793F8090241EA1061DB
:1040F00002027808101871413A460023FCF788F84C
:104100003F4AA0F54071914258D82168C86056E0F6
:10411000E3694FF6EF7893422CD109284ED2DFE8BD
:1041200000F00508114D0D4D4D4D1000FDF7BEFF7F
:1041300001E0FDF7CDFF010004D140E0FDF7DAFF1B
:10414000F9E71146606A37F81000B1FBF0F0410062
:10415000606801EB5001B1FBF0F0A0F110014145A6
:104160002CD84FF6F0710140C0F3420001432068A3
:10417000C16024E0092821D2DFE800F005091220FF
:104180000E2020201100FDF791FF02E016E0FDF760
:104190009FFF010004D112E0FDF7ACFFF9E71146E3
:1041A000606A37F81000B1FBF0F1606801EB500174
:1041B000B1FBF0F0A0F1100141450AD90125012021
:1041C000A4F86A0024F8680F2846E6602661BDE876
:1041D000F08180B299E7000000800040F369FFCFD2
:1041E000FFF4FF110038014000100240004400407D
:1041F00000480040004C00400024F4008C430008BC
:10420000FFFC0F002DE9F047994617460D4604467E
:104210004FF00008089E33E0701C31D0FDF716FC0B
:10422000A0EB0900B04218D8BEB120680168490768
:1042300026D5802D24D0402D22D0C169C94309073D
:104240000DD4082505622046FFF778FEC4F890508B
:1042500084F884800120BDE8F0870320FBE7C06973
:10426000C04300050CD421684FF40060086220466A
:10427000FFF764FE2020C4F8900084F88480ECE707
:104280002068C06935EA000004D00020B842C3D0DD
:104290000020E0E70120F9E7FEE70907090E002802
:1042A00004DB00F1E02080F80014704700F00F00FC
:1042B00000F1E02080F8141D704702E008C8121FCA
:1042C00008C1002AFAD170477047002001E001C1FF
:1042D000121F002AFBD170479FED070A80ED000AEC
:1042E00080ED010A9FED050A80ED020A9FED040AA8
:1042F00080ED030A7047000000000000000000434A
:104300000000FE422DED048BFDF7AEFBFFF7C3FA74
:10431000FFF74CF8FFF706F8FEF7A6FFFFF720F8C7
:10432000FFF77AF8FFF7A0F8FFF764F9FFF72AF92B
:10433000FCF702FB0F48FCF72DFA0E481038FFF788
:10434000CBFF0C4C0025103C9FED0B8ADFED0B8A58
:104350009FED0B9A0B4E6F1E06493B4610221039FB
:10436000094884EC038AFEF7F5FE0120FDF7F2F818
:104370003560F1E7F00000200000DE4200005E43FF
:104380000080A643100000206C0300200100020002
:104390000400060008000A000C0010002000400085
:1043A000800000010101010307010000080402046C
:1043B00008010101000000000000000001020304E8
:1043C000060708090000000001020304EC4300088E
:1043D00000000020CC000000BA420008B8440008E9
:1043E000CC000020C4080000CA42000810000000F1
:1043F00001000000000000000024F40000000000A4
:1044000000000000000000000000000000000000AC
:10441000000000000000000000000000000000009C
:10442000000000000000000000000000000000008C
:10443000000000000000000000000000000000007C
:10444000000000000000000000000000000000006C
:10445000000000000000000000000000000000005C
:10446000000000000000000000000000000000004C
:10447000000000000000000000000000000000003C
:104480000000000000000000000000000000844167
:1044900000B0CC450000000000000000000000005B
:1044A000000000000000000000000000000000000C
:0844B000000000000000000004
:04000005080001D915
:00000001FF
